:1000000000000120750300005D0300005F03000095
:1000100061030000630300006503000000000000AE
:100020000000000000000000000000006703000066
:1000300069030000000000006B0300006D03000076
:100040006F0300000D580000C12100006F03000085
:100050006F0300006F0300003D2000006F030000ED
:10006000F56E00006F0300006F0300006F030000D7
:100070006F0300006F0300006F0300006F030000B8
:100080006F030000511200006F0300006F030000B7
:10009000ED120000D16100006F0300006F0300004B
:1000A0006F0300006F0300006F0300006F03000088
:1000B0006F0300006F03000000000000000000005C
:1000C0006F0300006F0300006F0300006F03000068
:1000D0006F0300006F0300006F03000000000000CA
:1000E0000000000000000000000000000000000010
:1000F0000000000000000000000000000000000000
:1001000000000000000000000000000000000000EF
:1001100000000000000000000000000000000000DF
:1001200000000000000000000000000000000000CF
:1001300000000000000000000000000000000000BF
:1001400000000000000000000000000000000000AF
:10015000000000000000000000000000000000009F
:10016000000000000000000000000000000000008F
:10017000000000000000000000000000000000007F
:10018000000000000000000000000000000000006F
:10019000000000000000000000000000000000005F
:1001A000000000000000000000000000000000004F
:1001B000000000000000000000000000000000003F
:1001C000000000000000000000000000000000002F
:1001D000000000000000000000000000000000001F
:1001E000000000000000000000000000000000000F
:1001F00000000000000000000000000000000000FF
:10020000354936480A1A02D0072291438D463449AF
:1002100034480A1A06D00722914381F30988022242
:1002200082F3148830483149314A00F044F83148AB
:100230003149324A00F03FF831483249324A00F041
:100240003AF832483249334A00F035F832483349F7
:10025000334A00F030F833483349344A00F02BF881
:1002600033483449344A00F026F8344834490022EF
:1002700000F02CF833483449002200F027F83348C6
:100280003349091A082902DB002202604160314A21
:1002900090471F481F49884205D00268043003B4C4
:1002A000904703BCF7E700208646EC46002000217B
:1002B000294A9047FEE7884207D0521A05D00378B2
:1002C00001300B700131013AF9D17047884202D0F8
:1002D00002700130FAE770470000012000E00020C2
:1002E00000000120000001205C77000000000020D9
:1002F00050000020D4030000D40300000672000068
:100300005C77000000000020000000205472000014
:1003100054720000547200005472000054720000C5
:100320005472000054720000547200005C770000A8
:10033000AC7700005000002050000020500000204A
:100340008B0D00208C0D00208C0D00208C0D0020CA
:100350008C2D00209D030000F52E0000FEE7FEE737
:10036000FEE7FEE7FEE7FEE7FEE7FEE7FEE7FEE765
:10037000704700BF1048804710484FF0070188437E
:1003800085460F4880470F48016841F470010160BD
:10039000BFF34F8FBFF36F8FFFF732BF0A480B4990
:1003A0000B4A884207D0521A05D0037801300B70EF
:1003B0000131013AF9D170477103000000000120BA
:1003C000D130000088ED00E05472000000000020F1
:0403D0000000002009
:1003D400F0B595B01C46164608460D4601F05DFC86
:1003E4001A9B0D93CDE9086400242346082205A92D
:1003F40028460A948DF82C400C9401F06BFC079B62
:100404000293069B03939DF814308DF8114003F07A
:100414000302012A1DD1BDF81440059EC3F3C20393
:10042400C4F383148DF81030A20008230EA92846C3
:1004340001F050FCC6F3952608AB0093224602ABAC
:100444000EA9304600F0D0FB284601F02AFC15B076
:10045400F0BD022AF8D1BDF81640C3F3C203A409C3
:100464008DF810300827082C264628BF08263B465E
:1004740032460EA9284601F02DFCA41B08AB02AAA3
:1004840031460EA8374400F013FC002CEBD1DBE717
:10049400014B01221A707047910000207047000040
:1004A40070B50E4D06460FCD88B06C460FC495E866
:1004B4000F00002E84E80F004FF00603084A094895
:1004C400009308BF0022694601F04CFC08B100F01B
:1004D40013FE054B1E7008B070BD00BF54720000BF
:1004E40095040000000000205000002007B5044BD4
:1004F4000093044A4023FFF76BFF03B05DF804FB4D
:100504000D0500005100002038B50D4B0D4D0020A5
:1005140018700D4804782D5DD2B21C4665B10430C4
:1005240002F06EFA08B100F0E7FD084B1A7812B138
:100534002378002BFBD038BD0C3002F067F8F1E7CC
:10054400910000208C0700200000002050000020B3
:1005540008B50848084A0378D35C3BB1043002F07C
:10056400EBF90020BDE80840FFF79ABF0C3001F01A
:10057400E9FFF6E7000000208C0700200120FFF7C8
:100584008FBF000008B5FFF7F9FF0421034800F00E
:1005940099FA034B01225A7108BD00BF3072000062
:1005A40014000020037813F0040216D003F00303B0
:1005B400012B03D0022B09D0012070470A68008860
:1005C4000232C0F3831002440A60F5E70B684288E4
:1005D400023303EB92130B60EEE710467047000002
:1005E4002DE9F04F044685B0851C00200F46904647
:1005F40001F07CF8454806683E60D0E901321344B6
:1006040001339B1B824600F21C4600F5836900F20D
:100614001447AB421AD30022B8F1000F6FD0052360
:1006240063F3070264F38912DAF80010DAF8083089
:100634000B4003330D444AF823200020CAF800502D
:1006440001F056F8012005B0BDE8F08F01213046D5
:1006540001F070F8484601F083F8384601F080F85C
:10066400DAF80400DAF808B0009000EA0B0003306E
:100674000AEB80006946FFF795FF009B50BB0BEA2D
:1006840003020AEB820203F1020CD26801920133E5
:1006940003EA0B0B0AEB8B0B02F00302012ACDF8E1
:1006A40000C0DBF80C1022D0022A16D0834638464C
:1006B40001F059F810B1009BCAF80430594630468D
:1006C40001F038F8DAE901231344DAF800200133A1
:1006D4009B1A9EE70BEA0300C9E7BDF806309B09A5
:1006E40003334FEA114B0CEB93030093DFE7BDF8A0
:1006F4000430C3F383134FEA114B6344F5E7062335
:1007040063F3070264F39F528EE700BF6401002085
:100714000B4B0C48FF2210B59A600022C3F8182432
:10072400C3E90022C3F8142483F8202401F06EFAEC
:10073400044610B9044801F0D7FA204610BD00BFA2
:1007440064010020407200009472000030B50A4C2D
:1007540071B10A4A0A49121BD20800239A4201D1F4
:10076400002030BD31F82350854202D00133F5E733
:10077400034654F83300F4E70872000030720000B6
:1007840000000020094B013903EBC000032909D8FC
:10079400DFE801F00A02040604207047007970477C
:1007A40040797047002070470220704708720000AB
:1007B400034BD3E90030C31A58425841704700BF75
:1007C400640100202DE9F04385B0FFF7F1FF0646F0
:1007D400002840F0F7807C4DC5F81804BFF34F8F14
:1007E4006868AC6800902040033005EB80006946DF
:1007F400FFF7D8FE009B18B1D5F81824002A5FD063
:1008040004EA0302991C013305EB8202234005EB41
:100814008303D268DB68029302F00303022B019284
:10082400009162D1BDF8063068484FEA9318B8F1D8
:10083400500FC14628BF4FF0500969F38F1309F1D7
:100844000801ADF8063001F0F9F90746002800F078
:10085400A48001F022FA01A900230822384601F0FD
:100864002FFA009924EA01060136B600B14535D9BC
:100874005FFA89F97EB3F6B2A9EB06092140033188
:100884005FFA89F4B146524E05EB810108234A46CA
:10089400384601F015FA36B109F10803224631460B
:1008A400384601F00DFA009B08F1030803EB9803A6
:1008B4000093D5F81834002B4BD1D5F810445BE0E5
:1008C4002A689A4204D86A60304605B0BDE8F083CD
:1008D40004EA030088E73E493446D7E72140033160
:1008E40008234A4605EB8101DAE7012B55D1BDF80F
:1008F40004303648C3F38311062928BF062161F367
:10090400891302318900ADF8043001F097F90746E4
:10091400002842D001F0C1F90023082201A9384679
:1009240001F0CEF90026BDF80420C2F38312B3000F
:10093400964203F10803BCD200994A1C21400331BA
:10094400009205EB81010422384601F0B9F9013621
:10095400E9E7384601F0A5F9FFF72AFF80F0010026
:10096400C6B2B1E7E3685B7923B1236839461B68F3
:1009740020469847E3681C68002CF3D1384601F000
:1009840090F9204600F0B2FED5F818340BB9009B5C
:100994006B60002000F0ACFEDEE7D5F8104454B9DB
:1009A4000C4B0D480D49C01AC008000440F0020069
:1009B40000F06EF8D0E7236820469B689847E36808
:1009C4001C68ECE700267FE7640100204072000009
:1009D400700100200872000028720000A07200005C
:1009E4002DE9F74F284C80460F46924601A9012273
:1009F40018469B46D4F80890FFF7F2FD80B3019D9A
:100A04000026A91C5E4506EB010233D100211F48D4
:100A140000F070FE80F310006A1C02EA090204EB85
:100A24008202000405EA0903033340EA1840D06057
:100A340014F8232068F3C50204F8232034F8232093
:100A440066F3891224F8232054F8232067F39F22A5
:100A540044F8232002F0F80242F0010204F82320B3
:100A640094F820341BB1FFF7ADFE0028FBD103B08E
:100A7400BDE8F08F09EA020204EB82025AF826303C
:100A8400D3600136BEE700BF64010020800500206A
:100A940000231A46FFF7A4BF07B50123019201AA58
:100AA400FFF79EFF03B05DF804FB1FB5CDE90123FA
:100AB400069B039301AA0323FFF792FF05B05DF899
:100AC40004FB000030B50F49D1F81024002314466C
:100AD4003CB9C468237152B9C1F8100422601846A5
:100AE40030BDE46825799D4206D02468F0E7D268D9
:100AF400116821601060F2E701330A2BE7D14FF04F
:100B0400FF33ECE764010020094A38B50123D2F829
:100B1400104482F820341D4604B938BDE3685D7181
:100B2400236820465B689847E3681C68F4E700BFC5
:100B340064010020037A052B10B50C460FD0437ACC
:100B440023B1084A0849204600F067FE07492046B9
:100B540000F063FE2046BDE8104000F053BE002ABA
:100B6400F8D0F3E7EB720000F0720000107300009D
:100B7400C38873B504460D4633B1144A0092144930
:100B8400144A284600F049FE217A05291CD0637ACC
:100B94004BB1A088FFF7F6FD0F4B104953F8202006
:100BA400284600F03AFE227A0D4BA08853F82260C2
:100BB4000021FFF7CBFD0B4903463246284602B01D
:100BC400BDE8704000F029BE02B070BDEB720000B9
:100BD400FB720000F3720000B8720000F0720000B3
:100BE40020730000137300002DE9F04385B01F4605
:100BF4000C9D002306460C46904695F80C902B73EA
:100C040029463846FFF7B4FFB8F1060F09D8DFE8E4
:100C140008F00412181F283340003146284600F01B
:100C2400FCFD002229463846FFF784FF85F80C9026
:100C340005B0BDE8F08322683146284600F0EDFD9A
:100C4400EFE7D4E900233146284600F0E6FDE8E763
:100C5400A36800933146D4E90023284600F0DDFD63
:100C6400DFE7E3680193A36800933146D4E90023E6
:100C7400284600F0D2FDD4E723690293E368019388
:100C8400A36800933146D4E90023284600F0C5FD4B
:100C9400C7E76369039323690293E3680193A36835
:100CA40000933146D4E90023284600F0B6FDB8E7A6
:100CB40008292DE9F84F80460E4617461C463AD8B7
:100CC400002593F80C901D7319461046FFF750FF4A
:100CD400DFF884A0DFF884B0AE422ED918F80520DE
:100CE4005946204600F099FD0135082DF4D11849E4
:100CF400DFF86CB0204600F090FD4FF0000A564536
:100D040020D918F80A507E2D03D8284606F0E8F9B1
:100D140000B92E252A465946204600F07EFD0AF1E8
:100D2400010ABAF1080FEAD1012221463846FFF739
:100D340001FF84F80C90BDE8F88F5146204600F07E
:100D44006CFDD1E70349204600F067FDE7E700BFEB
:100D5400E6720000E4720000E2720000DC7200003F
:100D6400E8720000054A4FF0A043105CD3F8043544
:100D740023FA00F0C04300F00100704783730000C1
:100D8400044B1A5C012393404FF0A042C2F80C3587
:100D9400704700BF83730000044B1A5C0123934027
:100DA4004FF0A042C2F80835704700BF83730000BB
:100DB40008B50020FFF7F0FF0120FFF7EDFF022048
:100DC400FFF7EAFF0320BDE80840FFF7E5BF08B5D9
:100DD4000020FFF7D5FF0120FFF7D2FF0220FFF725
:100DE400CFFF0320BDE80840FFF7CABF074A4FF012
:100DF400A041105CD1F804350122824022EA0300AC
:100E04001340C1F80805C1F80C357047837300001E
:100E1400054A4FF0A043105CD3F8103523FA00F0D4
:100E2400C04300F0010070477F7300000D2809D013
:100E34000E2809D00F2809D010280CBF03204FF02A
:100E4400FF30704700207047012070470220704730
:100E5400C20708B501460CD54FF0A0430322C3F8DE
:100E64004427C3F84827C3F84C27C3F85027FFF793
:100E74009FFF8B070AD54FF0A0430C22C3F83427F9
:100E8400C3F83827C3F83C27C3F8402708BD00003F
:100E94002DE9F04F394E87B04FF00009384B1B78DD
:100EA4005FFA89F5AB4202D807B0BDE8F08F354B45
:100EB400D3F800A01AF835000124D6E9001EA0F1E9
:100EC4002002C0F1200304FA02F224FA03F31343CC
:100ED40004FA00FC009301EA0C030293009B0EEA5F
:100EE40003030393DDE9022313430AEBC50B41D04B
:100EF400009B21EA0C012EEA0303C6E9001301F06A
:100F040091F81AF835502049A5F12002C5F12003C3
:100F140004FA02F224FA03F31343D1E900C2AC4009
:100F2400134004EA0C0105930024C3B2CDE9003454
:100F3400009A0491C5F12003A5F1200122FA03F3DC
:100F440002FA01F848EA03081346AB401F46DDE9FC
:100F54000434444508BFBB420CD1DBF804304BB128
:100F64009BF801104A1E51425141081A4142414125
:100F74002846984709F1010990E700BF5006002070
:100F84002006002058060020480600202DE9F041E4
:100F94008046204800F088FBD0BB0125A8F120043E
:100FA400C8F1200325FA03F305FA04F41C431A4B91
:100FB400D3E9001205FA08F501EA050602EA040776
:100FC40056EA07001E461DD1404601F02BF8134B8C
:100FD400D3E9001288B129432243C3E90012D6E9B8
:100FE40000231C430E4B0B4819681543C6E90054F3
:100FF4000022BDE8F04100F015BB21EA050122EA18
:101004000402EAE721EA050522EA0404C3E90054DC
:10101400BDE8F08128060020500600204806002084
:1010240024060020042A2DE9F34105460C46164601
:101034003AD900F035FFD8B11C4B1D491D601D4B3A
:10104400DFF884801C701C4B00221E600023C1E961
:1010540000231A49C1E90023013CE4B20026032716
:10106400FF2C0CD1164A1748002100F0C9FA03E0FE
:1010740000F0DEFE0028DFD002B0BDE8F08123B22C
:1010840005EBC30201A992788DF8052015F8330009
:101094008DF8066042468DF8047000F00BFF013CA9
:1010A400E4B20028DCD0E7E70720E5E75806002093
:1010B40048060020200600202406002050060020B8
:1010C400950E000088730000910F000070B5084D64
:1010D400084E00242B789C4201D3002070BD336855
:1010E400012113F8340000F059FF0134F2E700BF86
:1010F40020060020580600201FB50021039001AAF5
:1011040044F20100CDE9011100F004F805B05DF8E6
:1011140004FB000010B572B6FFF7F6FCFFF752FBB4
:101124000028FBD1104B114C1149E41AE4082404A3
:1011340044F00100FFF7ACFC0E4B1B68DB0700D545
:1011440000BE0D4944F00200FFF7A2FCBFF34F8F2D
:101154000A490B4BCA6802F4E0621343CB60BFF345
:101164004F8F00BFFDE700BF087200002872000027
:101174008C730000F0ED00E09873000000ED00E0D7
:101184000400FA05094A537891780133DBB2994295
:1011940008BF0023117899421FBF037050781823A9
:1011A40003FB002014BF0430002070475C060020BD
:1011B40037B5044600200D4600F098FA0DF10700FB
:1011C400FFF7E0FF90B10570094B9DF807204460DC
:1011D4005A700024002000F08BFA24B9054B4FF418
:1011E4008012C3F80021204603B030BD0424F1E787
:1011F4005C06002000E100E0024B4FF43C6043F049
:1012040001031847B073000038B50C4B0C4C4FF475
:101214000032C3F8802001254FF48033C4F84833EA
:10122400C4F808336560FFF7E7FF064BA5600024A8
:101234001C60FFF7E1FF044B1C7038BD00E100E0C7
:10124400001001407807002069070020F8B51F4B03
:101254001F491B680025C1F84051C1F84451C1F829
:101264004851C1F84C51C1F80051C1F804514BB375
:10127400D1F8044517490968641A24F07F442F46BD
:101284001A68A24209D8A41A15441A7CDE691AB154
:101294001F74D3E905209047AEB90F4A0F4B11785C
:1012A4001B788B4205D10133DBB2022B08BF00232C
:1012B400137012780A4B43F822500A4B4FF48012F1
:1012C400C3F80021F8BD3346DAE700BF7C070020ED
:1012D40000100140780700207507002074070020E3
:1012E4006C07002000E100E02DE9F04FA14AA2497B
:1012F40013780978A14D994285B03CD00133DBB213
:10130400022B08BF002313709D4912789D4B0F6870
:1013140053F822003B1823F07F4300220B602B6814
:1013240016461446944613B942B12B6006E0196878
:1013340081420ED902B12B60091A196001272B686A
:10134400DFF848A201934FF00008BEB9DFF844B2B9
:1013540066E0401A0C44D968C3F800C0D3F81CE016
:1013640031B13A1922F07F42C3E90121DE611E4600
:1013740001227346D7E700263746E0E73446F6698C
:101384007F4A63681268DFF810C2A068991A21F0D6
:101394007F41614500F2A68001442160012222744C
:1013A4002A680023C4E90133E361002A40F0A380E2
:1013B4002C60CAE75A1C9BF80210D2B291428BF8F7
:1013C400002004BF00228BF80020182202FB03B384
:1013D4001A799C68022A1CD0032A12D0012A1FD130
:1013E400207CE8B9D3E90312A2605A69E2609A69E1
:1013F400654BA2611B78002B0CBF0B460346636050
:10140400BEE700222B681146002B67D142B12B6046
:1014140006E029680A468946002A5AD10023237423
:101424009BF800309BF801209A42C3D12B68B8F195
:10143400000F04D1019A9A4201D1002F43D0002B0E
:1014440073D0D3F800A0514D4D4BD5F804751C68EA
:10145400DFF848813E1B98F8003026F07F460336BB
:101464009BB94FF48033C5F84433C5F80433484B73
:101474004FF400324FF00109C3F880211A60C5F817
:101484000090FFF7B9FE88F80090B2452CBF544491
:10149400A41924F07F44C5F84045D5F80435DB1B76
:1014A40023F07F43E41B033324F07F44A3420AD98F
:1014B400D5F80435C5F84035FFF79EFE344B4FF49C
:1014C4000032C3F80021304B00221A7005B0BDE889
:1014D400F08F94422CD09146D2699DE71974012271
:1014E400DB6991E7D31A23F07F43834234BFC31AE5
:1014F4000023236052E721681368994213D8591ACC
:101504001160E26154E7091AD8691A4638B10346F2
:1015140018688842F7D3401A1860184613462160A9
:10152400E061DC6111E71346F2E7FFF76DFECAE7FD
:101534004C4511D1CB692B6073B9DFF844E001202D
:10154400CDE90212CAF80800CEF800300E4B18702C
:10155400FFF752FEDDE902121368D269C9F81C20B4
:1015640012B11068034413602B68994218BF4FF0FE
:10157400010853E774070020750700207C0700204A
:10158400780700206C070020680700200010014045
:1015940000E100E05C060020FEFF7F0069070020F8
:1015A40008B5FFF731FE104B00200B2218809A700B
:1015B4000E4B18600E4B18700E4B18700E4B4FF4F8
:1015C4008012C021C3F8802183F814131A6002F139
:1015D4008042A2F56F22C2F8080583F81113074B65
:1015E400D2F804251A6008BD5C0600207C070020A0
:1015F400740700207507002000E100E07807002050
:10160400074B9B784BB132B128B10368187C20B9E1
:1016140059745A617047072070470820704700BF0B
:101624005C0600202DE9F3411C4EB37804460D46B8
:1016340017468BB380B304292CD9436963B3437C25
:101644000020012B0CBF88464FF0000800F04EF834
:101654000DF10700FFF796FDD0B101230370104B85
:101664004460D3F80435C0E90487C0E902359DF825
:10167400073073700024002000F03AF824B9094BB5
:101684004FF48012C3F80021204602B0BDE8F08177
:101694000424F0E70724F7E70824F5E75C060020B4
:1016A4000010014000E100E0064A92783AB130B1FE
:1016B400426922B1002202740221FFF779BD082099
:1016C400704700BF5C06002072B6024A13680133FB
:1016D4001360704780070020034A1368013B1360BE
:1016E40003B962B6704700BF80070020FFF7ECBF64
:1016F400FFF7F2BF50E8002F0B4640E8003C9CF097
:10170400000FF7D11046704750E8003F43EA01024A
:1017140040E8002C9CF0000FF6D11046704750E8CA
:10172400002F02EA010340E8003C9CF0000FF6D1D0
:101734001046704750E8003F03EB010240E8002CDC
:101744009CF0000FF6D11046704750E8003FA3EB21
:10175400010240E8002C9CF0000FF6D110467047BF
:101764000121FFF7D1BF0021FFF7D9BF10B590B118
:10177400D0E9012301689B1ADBB20A60013BDBB2AA
:10178400FF2B026802D10020107110BD11684C1C9F
:1017940014600B70F2E70E20F7E738B5044600201A
:1017A400FFF7A4FF226863681168994213D9481EA1
:1017B400106011F8015CE368218A01FB0535A36818
:1017C40011791B1ADBB2994200D213710020FFF782
:1017D4008FFF284638BD0025F8E738B505460020B8
:1017E4000C46FFF783FF2A681368591C1160E968E7
:1017F400641A298AB4FBF1F41C700020BDE8384057
:10180400FFF776BF826810B504462AB143690168C0
:10181400006998470023A36010BD0EB403B5039973
:1018240021B104AB01AA019300F074F802B05DF891
:1018340004EB03B070470A2938B504460D4602D1BB
:101844000D21FFF7F8FFA3682268591CA160D55445
:10185400D4E901329A4204D32046BDE83840FFF768
:10186400D1BF38BD2DE9F84F9946DDE90A43174643
:10187400824688460A460126BA420FD24E4538BFF0
:101884004E4613F0010B01D164B900240125B9F1CE
:10189400010F1AD909F1FF397D43F8E7B2FBF7F2DA
:1018A4000136E9E79B070ED5B9F1000F0CBF3025CF
:1018B4002025A642EAD2013C29465046FFF7BBFF49
:1018C400002CF6D1E1E72025F3E7B8FBF5F39F42BE
:1018D400E2D9DFF83C90B8FBF5F3504619F8031051
:1018E40005FB1388FFF7A7FFB5FBF7F3BD4207D24B
:1018F400BBF1000F02D00CB1A64203D3BDE8F88FB0
:101904001D46E8E720215046013CFFF794FFF2E72B
:10191400B67300002DE9F74F05461746884600299F
:1019240000F0308118F8011B49B92B7B002B00F023
:101934002981284603B0BDE8F04FFFF763BF25298E
:1019440040F0C080002698F800302D2B424608F164
:10195400010823D0302B24D02B2B25D000242A2B74
:1019640002F1010123D13B681A1D1B683A601C4433
:101974000A4613782E2B26D101324FF00009104667
:1019840010F8011BA1F1300CBCF1090F1DD80A237A
:1019940003FB0913A3F130090246F0E746F0010600
:1019A400D1E746F00206CEE746F00406CBE711F88D
:1019B400013CA3F130000928DBD80A2202FB0434DD
:1019C400303C0A46CBE74FF0000912F8011B01F046
:1019D400FB0068289046F8D069290ED04AD85829C7
:1019E40064D006D825296DD098F80030002B99D101
:1019F4009BE7632962D06429F6D13A68D2F800A043
:101A0400111D8AEAEA723960A2EBEA724FF0010B07
:101A1400092A5BDCCB4538BFCB462CB1BAF1000FA9
:101A240001DB720700D5013CB30702D5B9F1000F01
:101A340004D0F00702D4002C4ED10024BAF1000FD8
:101A440052DACAF1000A2D212846FFF7F4FE06F007
:101A54000302022A05D1B9F1000F02D1002C47D1AB
:101A64000024CDE900464B460A2251462846FFF79A
:101A7400F9FEB9E773294CD014D87029B4D13B6866
:101A84001A1D3A60302128461C68FFF7D4FE7821DD
:101A94002846FFF7D0FE00220823CDE90032214674
:101AA4001022E3E775292BD078299DD139680A1DC6
:101AB4003A60CDE900464B46102228E03B681A1DE7
:101AC40019783A602846FFF7B6FE8DE70A230BF132
:101AD400010BB2FBF3F29BE7A345AFD220212846CA
:101AE400013CFFF7A8FEA6E77107B0D52B21ABE7B1
:101AF400A345B6D230212846013CFFF79CFEADE752
:101B04003968CDE900460A1D3A604B460A22096845
:101B1400ACE73B681A1D3A6016F00106D3F800A042
:101B240020D1BAF1000F03D0504605F03AFB064627
:101B3400B44200D9C4B90AF1FF3A1EE0284601367E
:101B4400FFF779FE1AF806100029F7D1A642BFF470
:101B54004BAF002C3FF448AF20212846013CFFF74F
:101B64006AFEF3E70026EDE720212846013CFFF753
:101B740062FEDDE72846FFF75EFE1AF8011F002922
:101B8400F8D131E703B0BDE8F08F2DE9F047B0F8A4
:101B940006904479D2F800A09DF8208009FB04F453
:101BA400043C06460AEB0300A0420F4688BFA4EBA0
:101BB400030A191DC2F800A0B1FBF9F509FB1511C0
:101BC4004DB9A9EB0104544528BF5446BAF1000F9E
:101BD40004D1BDE8F0873668013DF1E704317B1993
:101BE40070182246B8F1000F0ED001461846AAEB31
:101BF400040A05F07AFAD145254436684C464FF07C
:101C0400000128BF5446E1E71946F0E7FFF7AEBDEF
:101C1400F8B546790146721E0546002393422D68A5
:101C240003D30024A64202D8F8BD0133F6E70F68B7
:101C34002846FFF7D2FD01343946F3E72DE9F8438E
:101C4400068ACD1C0746FFF7A8FD043E354404462A
:101C5400B5FBF6F5F0B14FF48073EDB28380C68026
:101C6400013D076081464FF00008A84512D238466E
:101C7400FFF793FD064648B163790133637108F1B8
:101C84000108C9F8000007608146EEE72046FFF727
:101C9400BFFF34462046BDE8F88301210430FFF736
:101CA40049BD10B5012104460430FFF74EFD10F084
:101CB400FF0F04D12046BDE81040FFF7A9BF10BDB7
:101CC4001FB503920022009203AAFFF75EFF05B03E
:101CD4005DF804FB1FB503920122009203AAFFF7EB
:101CE40054FF05B05DF804FB836800225A609A60D3
:101CF400C3E90422DA601A60704700001FB5037854
:101D04008DF800304368019383688DF80830C36808
:101D14000393054A054B684653F8213052F82110C5
:101D2400984705B05DF804FB84070020880700206D
:101D34001FB503788DF800304368019383688DF8EC
:101D44000830C3680393054A054B684653F82130AD
:101D540052F82110984705B05DF804FB8407002071
:101D640088070020F0B5184B077891F81DE043F878
:101D74002720164B16460A6943F82720144B03F80C
:101D840007E00C4684460FCC89B06D460FC594E835
:101D94000F0085E80F000497BEF1000F0AD0002E53
:101DA4000C4A694608BF32460CF1040000F002FDFB
:101DB40009B0F0BD002E084A694608BF32460CF14E
:101DC4000C0000F005FBF3E78807002084070020DF
:101DD4008C070020011D0000351D000000F180402B
:101DE40000F5C040002382B0036003680193019BA7
:101DF40002B07047800000F1A040D0F8003723F40F
:101E04004033C0F80037D0F8003743EA0141C0F846
:101E140000177047054B4FF0FF32072843F8202086
:101E240084BF1B1883F84820704700BF9007002028
:101E340010B5174C94F8583043BB04F130032021FB
:101E4400FF22013911F0FF0103F8012BF9D1C8B2C7
:101E5400FFF7E0FF01310C29F9D1042200210D48DC
:101E640005F06CF90C4BC02283F8062340221A605B
:101E74004FF4BE70FFF7B2FF084B4FF00042C3F8B7
:101E84000423012384F85830002010BD0820FCE707
:101E940090070020E407002000E100E0006000401B
:101EA400034B93F85800003018BF0120704700BF5F
:101EB40090070020F0B5374B1C1894F93040002CE3
:101EC4001C4664DA8D78C5F34005002D0BBF08234A
:101ED40000230C260826B34201D10420F0BD54F897
:101EE400237001373FD1261844F8232086F8303078
:101EF40015B9E21882F848008A78550713D4D60732
:101F040033D5820002F1A042D2F8005725F0020531
:101F1400C2F80057204EC50800F007070122BA4056
:101F2400775D3A4372558A780D7812F0020225D013
:101F34009B0003F1804303F5C0430202D3F810155C
:101F440021F4473121F44071C3F810152D04D3F85E
:101F5400101502F4F85205F440352A430A43C3F835
:101F640010250020BAE70133B5E74D7800F5E0729B
:101F74004FF0A046AD0046F82250CBE7083B23447F
:101F840093F8501041EA851583F85050E9E708208A
:101F9400A4E700BF90070020E407002038B51F4CD9
:101FA400251895F93020072A17DD224492F84810A5
:101FB400890903290CD14FF0A043D3F81035C3404D
:101FC40013F0010F08BF0221BDE83840FFF712BF2C
:101FD400012914BF03210221F6E7D3B2072B1CD831
:101FE400930003F1804303F5C043D3F8100540F098
:101FF4000100C3F8100502F14000800080B2FFF731
:10200400EDFE51B195F9303054F823302BB1012352
:1020140003FA02F2024BC3F8042338BD90070020F0
:10202400006000404FF0A043D3F8103523FA00F0CD
:1020340000F00100704700002DE9F04F85B0002446
:102044005A4D01944FF48072012102F1804303F54B
:10205400C04390B21B68012B06D1D5F804330B4260
:1020640002D0FFF7BBFE0C430432B2F5907F4FEA77
:102074004101EAD14E4B1B68012B0AD14FF4BE70CB
:10208400FFF7ACFE4FF0A04344F00044D3F8103502
:10209400019314F0FF0F1AD0464F00250126344255
:1020A40010D0AB0003F1804303F5C043D3F810050F
:1020B400D3F8101557F8253023B1C1F30141C0F30B
:1020C400042098470135082D4FEA4606E7D1002C35
:1020D40064DA00224FF0FF33CDE90223354D0127A6
:1020E4004FF0000A344E54464FF0A04816F9012B25
:1020F400531C46D0D2B222F0C0094FEAD90104A839
:10210400084402F0070310F804CC07FA03F31CEAAE
:10211400030F36D005EB090C92099CF930C055F831
:102124002CB0BBF1000F0AD1032A2AD10DF1080EFD
:102134001EF801C04CEA030C0EF801C001E0032AAA
:10214400F4D009F5E07110F80C0C58F8211018427D
:10215400C1F3014105D0022913D1032A0BD1114641
:1021640004E003290DD1032A05D102214846FFF7D3
:1021740041FE0134E4B2BBF1000F02D011464846DF
:10218400D8470AF1010ABAF1040FAFD134B14FF0C4
:10219400A043019AD3F81035934202D105B0BDE8AB
:1021A400F08F0193029B03939AE700BF0060004005
:1021B4007C61004090070020E0070020014B1B6871
:1021C400184700BFEC07002038B50B4B98420D466A
:1021D40001D0002038BD0020FFF788FA074B1C7996
:1021E40014B901221D601A710020FFF781FA002C36
:1021F400EFD01120EEE700BF00200040EC070020E4
:10220400034B984201BF034B00221A601A717047B6
:1022140000200040EC0700200023435082B04358C4
:102224000193019B02B070470A4610B54FF48E71BA
:10223400FFF7F2FF136A9168C95C136A01331362F2
:10224400C0F81C1510BD8B690A4610B54FF4847193
:1022540023B9FFF7E1FFD0F8183510BDFFF7DCFF15
:10226400536AD168D0F81805C854536A01335362CD
:10227400F3E700001FB501238DF80030044BCDE9CE
:102284000110D3E900126846904705B05DF804FBDD
:10229400F407002030B54C4AD2F8043313F4007F1D
:1022A40085B015464FD0D2F82431002B4BD04FF4D3
:1022B40092711046FFF7B0FF4FF40173C2F8083370
:1022C400424B93F8291009B9012151603E49022279
:1022D4008DF80020D1F88024C1F8802403929A69F3
:1022E4000292DA6801920022C3E906226846D3E921
:1022F400001290473448D0F81C315BB133490A6A64
:102304004B699A420A464BD291F82830002B47D1A8
:10231400FFF78AFF2C4AD2F8443193B14FF4A271EB
:102324001046FFF779FF294B93F8291009B10121D1
:1023340011609A692AB100229A61586AD968FFF734
:1023440099FF05B030BDD5F804335B07D2D5D5F875
:102354000831002BCED01D4C1B482146FFF773FFDC
:10236400636AA2699A422346C4D1E269E1684AB128
:102374002369E3600023606AA261E3616362FFF79B
:1023840079FFB7E794F829200AB901226A600E4A56
:102394004FF40170C2F8080300229A61586AEEE70C
:1023A4004FF48E710848FFF737FF51690029B1D007
:1023B4000023029191688DF80030019153616846C1
:1023C400D2E900139847A5E700200040F407002055
:1023D4002DE9F843564F047991462C2202FB0472EE
:1023E400064692F82A200D46002A40F09A80514968
:1023F4000068FFF7E9FE8046002840F095802968D0
:102404003368481C0BD04FF0A04001228A40C0F82A
:10241400082501F5E0724FF0030C40F822C068680B
:10242400421C1FBF00F5E0724FF0A04C4FF0000EAD
:102434004CF822E0AA6995F814C0C3F824256A7DF3
:10244400BCF1010F4CEA0202C3F86C25C3F8140571
:10245400C3F80C151DD1AA68511C1FBF02F5E07109
:102464004FF0A0404FF0000C40F821C0E968481C30
:102474000BD04FF0A04C01208840CCF8080501F5A2
:10248400E0704FF0030E4CF820E0C3F80815C3F8D1
:1024940010252C236343FA18C2F804902A69FA50D1
:1024A400B9F1000F2AD04FF48E7130682D7FFFF7F9
:1024B400B3FE30684FF4A271FFF7AEFE32681E4BD4
:1024C400C2F80433120B51B20029A8BF01F16040D5
:1024D4004FEA4513BABF194802F00F0500F56140F1
:1024E400DBB2B4BF435580F8003302F01F0201236E
:1024F40003FA02F24909124B43F8212033680422FB
:10250400C3F800252C2303FB04730022C3E906222D
:1025140083F829205A61012283F82A204046BDE825
:10252400F8834FF00808F9E74FF01108F6E700BF09
:10253400F4070020992200008000020014ED00E05E
:1025440000E100E0F8B5047900682D4D0023C0F8DF
:1025540000352C2303FB04535B6873B1294BC0F88B
:102564000833020B53B201215B0902F01F0201FA86
:1025740002F22033244941F82320D0F80C65D0F826
:102584001415D0F80835D0F810254FF0FF37BE42A7
:10259400C0F8147518BF06F5E076C0F80C75C0F8DD
:1025A4000875C0F810751EBF4FF0A0474FF0020C1D
:1025B40047F826C04E1C1FBF4FF0A04601F5E0713E
:1025C400022746F82170511C1FBF4FF0A04102F5AD
:1025D400E072022641F822605A1C1FBF03F5E07323
:1025E4004FF0A042022142F82310FFF709FE2C23EA
:1025F40003FB0454002384F82A306360F8BD00BF51
:10260400F40700208402020000E100E02DE9F04715
:10261400214F06794FF02C0909FB06748046656941
:10262400002D37D16261A16025624FF48E7100687C
:1026340084F82850FFF7F0FDD8F8000001238360E8
:102644002146FFF7F1FD6368A14693B9D8F800A0CD
:10265400226A63699A4212D3D8F80030D3F81C2155
:10266400002AFBD00122DA602C2303FB0676002328
:1026740073612846BDE8F08794F8283043B9DAF846
:102684001C31002BF8D049465046FFF7CDFDDFE75B
:102694000F25E9E71125ECE7F40700200023435058
:1026A40082B043580193019B02B070471FB50123C8
:1026B4008DF80030044BCDE90110D3E900126846CF
:1026C400904705B05DF804FB200800207FB5374A29
:1026D400D2F82461002E48D010464FF49271FFF7CF
:1026E400DDFF02238DF80030D2F88034C2F8803444
:1026F4000393D2F83C3502932D4BDA680192002201
:10270400C3E906226846D3E900129047274AD2F863
:1027140044317BB14FF4A2711046FFF7BFFF244B45
:10272400996939B10021C3E90611D968D2F83C0589
:10273400FFF7BCFF1D4AD2F82031A3B14FF49071CA
:102744001046FFF7ABFF1A4B596961B1D2F84C152B
:102754000291002299688DF8002001915A6168461F
:10276400D3E90012904704B070BDD2F81031002BA9
:10277400CCD04FF488711046FFF790FF0C4BD2F881
:102784003C0599698842C1D1DC69D96864B1D2F841
:10279400005225F02005C2F800521A699C61DA60E3
:1027A400DE61FFF783FFB1E79C61FAE70020004098
:1027B400200800202DE9F8435A4F06799146242237
:1027C40002FB0672044692F820200D46002A40F0CF
:1027D400A28055490068FFF7F7FC8046002840F0C6
:1027E4009D8029682368481C0BD04FF0A04001222B
:1027F4008A40C0F8082501F5E0724FF0030C40F858
:1028040022C06868421C1FBF00F5E0724FF0A04C64
:102814004FF0000E4CF822E0AA6995F814C0C3F8F2
:1028240024256A7DBCF1010F4CEA0202C3F86C2531
:10283400C3F80C15C3F814051DD1AA68511C1FBF99
:1028440002F5E0714FF0A0404FF0000C40F821C0B9
:10285400E968481C0BD04FF0A04C01208840CCF80C
:10286400080501F5E0704FF0030E4CF820E0C3F8C2
:102874000815C3F8102524237343FA18C2F80490EA
:102884002A69FA50B9F1000F34D04FF488712068E6
:102894002D7FFFF703FF4FF490712068FFF7FEFED2
:1028A4004FF492712068FFF7F9FE20684FF4A2718B
:1028B400FFF7F4FE22681D4BC2F80433120B51B229
:1028C4000029A8BF01F160404FEA4513BABF184878
:1028D40002F00F0500F56140DBB2B4BF435580F848
:1028E400003302F01F02012303FA02F24909114BDB
:1028F40043F8212023680822C3F80025242303FB7E
:1029040006730022C3E906225A61012283F82020BB
:102914004046BDE8F8834FF00808F9E74FF0110886
:10292400F6E700BF20080020D126000010030200B3
:1029340014ED00E000E100E0F8B5047900682D4DE5
:102944000023C0F80035242303FB04535B6873B1F0
:10295400294BC0F80833020B53B201215B0902F082
:102964001F0201FA02F22033244941F82320D0F84F
:102974000C65D0F81415D0F80835D0F810254FF0B0
:10298400FF37BE42C0F80C7518BF06F5E076C0F8F4
:102994001475C0F80875C0F810751EBF4FF0A04735
:1029A4004FF0020C47F826C04E1C1FBF4FF0A04644
:1029B40001F5E071022746F82170511C1FBF4FF04A
:1029C400A04102F5E072022641F822605A1C1FBFA2
:1029D40003F5E0734FF0A042022142F82310FFF701
:1029E4000FFC242303FB0454002384F82030636089
:1029F400F8BD00BF200800201003020000E100E041
:102A040001F06043B3F1005F2DE9F041074632D194
:102A14001B4B0679242505FB063598466C6964BB77
:102A24006A61A96000684FF49071FFF737FE4FF4B4
:102A3400AC713868FFF732FE3B686A69A968C3F86D
:102A44004415C3F8482501229A606A6862B9D3F82C
:102A54002021D3F8584152B9002CF8D00F24242354
:102A640003FB0686002373612046BDE8F081002C39
:102A740018BF0F24F3E71024F6E71124F4E700BF8E
:102A8400200800200220FEF7B1B900002DE9F0472C
:102A940081460D46FEF7CAF90328044604D8012DE1
:102AA40004D025B3022D2FD0BDE8F087194D47007F
:102AB4003A18A918AE5C4A7852B1DFF86880164813
:102AC40042464FF40041FEF7ADFD08B988F8009086
:102AD4003B192B449A78114B1A55002EE4D0104B15
:102AE4001B68002BE0D03046BDE8F04718470A4881
:102AF400FEF7DAFD074B04EB440213449E78074BC0
:102B04001B5DB342D0D1E8E7024B00EB40041C4408
:102B14006678E2E7A808002068080020C1080020C1
:102B2400BC0800204408002002210078FFF7AEBF53
:102B340008B5094B1B7853B10020FEF72DF901208D
:102B4400FEF72AF90320BDE80840FEF725B9BDE8E1
:102B54000840FEF72DB900BF45080020F8B57B4CAE
:102B6400237805461BB100232370FFF7E1FF172DDF
:102B740000F28880DFE805F00C171743546576806F
:102B8400888D888D959A9A9A9A9AC4C9D1D9E4E481
:102B9400FFF7CEFF6E48FEF787FD6E4B002204461A
:102BA4001A702046F8BD0020FEF7DCF8F8B10020CA
:102BB400FEF7F2F8022D0CBF4FF4E1614FF47A6195
:102BC400644B1D704FF400404FF4FA740025E0FB91
:102BD40001454FF47A7200232046294604F0C0F9D7
:102BE400002201465A48BDE8F840FEF71BBDFEF737
:102BF400C7F8022D0CBFC8214FF4C871E0E70020CC
:102C0400FEF7B0F840B10020FEF7C6F84FF4487163
:102C1400504B03221A70D5E7FEF7B2F8C821F7E744
:102C24000020FEF79FF838B10020FEF7B5F84FF406
:102C34007A61484B0422EDE7FEF7A2F84FF4C8711D
:102C4400F7E70020FEF78EF848B10020FEF7A4F85D
:102C5400404B05221A7041F69A110022C2E7FEF792
:102C64008FF8F5E70020FEF7C1F83A4B06221A70F8
:102C7400002240F6CD41B5E70020FEF781F8354B40
:102C840007221A7000248CE701202070FEF7AEF8AA
:102C9400EEE701202070FEF7A9F800224FF48041EE
:102CA400A0E7FEF794F82B4B0C22EAE72A482B4EB8
:102CB400FEF7FAFCD5F1110504461CD0D8B9012D54
:102CC40013D0C8235D434FF400474FF4FA7000213A
:102CD4004FF47A720023C7FB050104F041F9224640
:102CE40001461D48FEF79EFC04460220FEF748F804
:102CF4000123337055E70220FEF74EF80023F8E76E
:102D0400FFF716FF134B1222BBE7FFF711FF00205A
:102D1400FEF736F80F4B1322B3E7FFF709FF012044
:102D2400FEF72EF80B4B1422ABE7FFF701FF002050
:102D3400FEF726F80120FEF723F8064B1522A0E73C
:102D4400FEF745F8034B1D709CE700BFB808002050
:102D540088080020C00800204808002045080020FA
:102D6400044B1B68DB0703D5034B1878FFF7F6BE4B
:102D7400704700BFB4080020C0080020032801D811
:102D8400FEF746B80020704738B51C4B18601C4B42
:102D940010F00204054619601AD01A4B1A480E2284
:102DA4001A700F22DA7010229A7111225A720421B9
:102DB40040F26662FEF736F9044648B9FEF786F932
:102DC400044628B90146114A1148FEF719FC044685
:102DD400EB0711D50120FEF73BF86CB921460D4AEB
:102DE4000D48FEF70DFC044630B90C4A0C4801218D
:102DF400BDE83840FEF704BC204638BDB4080020C6
:102E0400BC080020A8080020DC7300002D2B000063
:102E140000740000652D000004740000892A00007D
:102E2400FC73000070B500252C4601262846FFF7E8
:102E3400A5FF18B106FA05F00443E4B20135042DE8
:102E4400F4D1E043C0B270BD7FB5202303AA1B496F
:102E54000393054600F070FB48B91948194B1A4909
:102E6400C01AC008000440F00100FDF711FE039BE6
:102E740063B1124B1E78002446FA04F3DB072046A4
:102E840019D5FDF77DFF0134042CF5D1FFF7CAFFF6
:102E94000E4901220870284600F0F4FA48B908489F
:102EA400084B0B49C01AC008000440F00100FDF7AC
:102EB400EFFD04B070BDFDF76FFFE4E7C608002026
:102EC4002872000008720000CB740000C5080020BE
:102ED400DA74000082B002AB03E9060002B0704766
:102EE40082B002AB03E9060002B0704770470000ED
:102EF4002DE9F74FFEF754FB08B1FEF7FDF800216A
:102F04000320FFF741FF08B1FEF7F6F84FF4004144
:102F14000020FDF7FDFB08B1FEF7EEF8FDF732FBEC
:102F2400414C424B4249E41AE408240444F00306A9
:102F34003046FDF7ADFDFDF745FC0028FBD101202F
:102F4400FDF786FF012000F0EFF928B900F0A0FB9F
:102F540000F50340FEF7D0F8364800F05FFB28B9CF
:102F640000F096FB00F50340FEF7C6F8FFF75AFFA2
:102F7400314B324918700122002000F083FA40B925
:102F84002F4944F00100FDF783FDFDF71BFC0028E9
:102F9400FBD100F05BFA28B900F07AFB00F503409E
:102FA400FEF7AAF82749234FDFF8A4903046FDF72F
:102FB4006FFDB846FDF706FC05460028FAD120BF90
:102FC4003B68B3F57A7FF5D3FEF790FB494644F0AE
:102FD4000500FDF75DFD3A681B49DFF878A030462F
:102FE400FDF75AFD7A6819493046FDF755FD00F0A2
:102FF400DDFA5FFA85FB584505F1010505D8002087
:10300400FEF776FB00F0D8FAD4E70BF102020BF1DD
:10301400120358F82220009258F823305A46514699
:103024003046FDF742FDE2E7287200000872000016
:1030340008740000E8080020C5080020C608002025
:10304400DA7400002F7400005674000074740000D9
:1030540010730000957400000C4B1B78062B10D1E4
:103064000B4B1B681A070CD10A4B186800F0F003CD
:10307400302B08D000F0E000A0F140035842584142
:103084007047002070470120704700BFE00F00F038
:10309400E40F00F0E80F00F0094B1B78062B0CD16D
:1030A400084B1B681A0708D1074B186800F0F0009A
:1030B400A0F130035842584170470020704700BFC8
:1030C400E00F00F0E40F00F0E80F00F008B5FFF7A0
:1030D400C3FF28B17D4B7E4A1B68C3F304231360EE
:1030E400FFF7DAFF10B17B4B7B4A1A60FFF7B4FF9E
:1030F40028B17A4B7A4A1B68C3F342331360FFF753
:10310400CBFF20B1774AD36823F08073D360FFF7F5
:10311400A3FF40B14FF080430022C3F80C21C3F851
:103124001021C3F83825FFF7B7FF10B16E4B032207
:103134001A60FFF7B1FF40B16C4B05221A600122FF
:103144009A6700229A603F225A60694B1B78062BCB
:1031540050D1684B1B6819074CD1674B1B6803F0AF
:10316400F003502B46D14FF08052644BD2F8041434
:10317400C3F82015D2F80814C3F82415D2F80C1497
:10318400C3F82815D2F81014C3F82C15D2F8141467
:10319400C3F83015D2F81814C3F83415D2F81C1437
:1031A400C3F84015D2F82014C3F84415D2F82414F7
:1031B400C3F84815D2F82814C3F84C15D2F82C14C7
:1031C400C3F85015D2F83014C3F85415D2F8341497
:1031D400C3F86015D2F83814C3F86415D2F83C1457
:1031E400C3F86815D2F84014C3F86C15D2F8442417
:1031F400C3F87025FFF730FF28B1414B414A1B68E3
:1032040003F04F031360FFF727FF48B14FF08043EB
:10321400D3F80024D20744BF6FF00102C3F800249E
:10322400394B1B68062B08D1384B1B68062B01BF92
:10323400374A136843F480631360364AD2F88830FF
:1032440043F47003C2F88830BFF34F8FBFF36F8F1E
:103254004FF01023D3F80022002A03DBD3F8043202
:10326400002B2FDA2C4B0122C3F80425D3F80024B9
:10327400002AFBD04FF010221521C2F80012D3F817
:103284000024002AFBD04FF010231522C3F8042297
:10329400214B1A46D3F800140029FBD00021C3F8AF
:1032A4000415D2F80034002BFBD0BFF34F8F19491B
:1032B4001A4BCA6802F4E0621343CB60BFF34F8F2A
:1032C40000BFFDE7164B174A1A6008BD240300101F
:1032D4004035014074C007400DF0ADBA44020010FF
:1032E4003C050040F0ED00E0A00500401056004011
:1032F400E00F00F0E40F00F0E80F00F000C0004021
:1033040058020010E40E0040300100103401001097
:103314003C17004000ED00E000E001400400FA0525
:103324001C0000200090D0032DE9F0413F4B404D9C
:10333400404F002421460C2280463F481C602C70DC
:1033440003F0FCFE3D4801F095F93860002845D0B3
:10335400042001F0D1FA3B685E7DD6B9384C22686E
:10336400531E0F2B44D83749084603F0BEFE21688C
:10337400344801F0A5FAB8F1010F4FF001060ED15F
:10338400022001F0BBF83B68587D98B901F0F4FACB
:1033940013E0022326462B70B8F1010FF0D041D37D
:1033A400B8F1020F20D005232B7000263B68587D0E
:1033B4000028EBD002232B700026002001F0ACFA89
:1033C4003B685B7DBBB1022301202B7001F0C0FA86
:1033D40000231D4A1846136000F0EAFF012300266B
:1033E4002B703046BDE8F081002001F087F8DDE75E
:1033F40007232B70D0E7012001F09AFA3B685C7D2B
:10340400002CE0D1204601F0BDFA012001F0A0FA21
:103414000D4B20461C6000F0CBFF002EDED0304662
:10342400BDE8F081012001F069F8BFE778090020C8
:10343400740900207C09002084090020A5360000BE
:1034440030000020200000208009002008B50B4B2C
:10345400186878B101F01EFA80B218B100F0AEFF1E
:10346400012008BD01F01CFA0028F7D1044B1122F9
:103474001A7008BD024B02221A7008BD7C09002094
:1034840074090020072808D869B1202A10D9284BCC
:10349400062200211A7008467047254B0422002199
:1034A4001A7008467047224B03221A700846704768
:1034B400F0B583B0054616460C4601F0E5F902283E
:1034C40006D91B4B09221A700021084603B0F0BD2F
:1034D400284601F0DBF9022804D9154B0A221A7098
:1034E4000021F2E701F0D4F9012804D8104B082296
:1034F4001A700021E9E701F061F94378067043F09E
:1035040001034370074632462146023003F0EDFDC5
:103514003946E8B201F066F901460028D5D1019098
:10352400044803F085F9024B01990F221A70CCE785
:1035340074090020FC00050070B50D4616460446CB
:1035440001F0A4F988B15DB1204601F09BF932681D
:1035540003789A420DD2134B06221A70002070BDD4
:10356400104B03221A70284670BD0E4B0B221A70A2
:1035740070BD204601F07CF9044658B10146284646
:1035840011F8022B326003F0B0FD204601F020F95F
:10359400012070BD044803F04BF9024B0F221A704E
:1035A400204670BD7409002026010500014B1868EF
:1035B400704700BF30000020174B1A68002A2AD039
:1035C400012282F310881A680023C2E90033936051
:1035D4009364D360D364136113655361536593613A
:1035E4009365D361D3651362136653625366936222
:1035F4009366D362D366136313675363536793630A
:103604009367D363D3671364C2F880305364C2F8FA
:10361400843083F3108870478009002000282ED05E
:10362400194B0121186081F310881A680023C2E93C
:10363400003393609364D360D3641361136553615F
:10364400536593619365D361D365136213665362C3
:10365400536693629366D362D366136313675363AB
:10366400536793639367D363D3671364C2F880305B
:103674005364C2F8843083F3108808467047034BC0
:1036840003221A70704700BF8009002074090020CB
:10369400014B1878704700BF74090020704700BFC1
:1036A40070B5037882B00446072B00F2C380DFE8CC
:1036B40003F03663968492040821FFF717FC02B0E6
:1036C40070BD654A8379126893420AD2634A1268CC
:1036D4003AB102EB8303996801319960536801336D
:1036E40053605F4B1B68002BE9D0617920799847C0
:1036F40002B070BD584A8379126893420AD2574A7D
:1037040012683AB102EB83039968013199605368F6
:1037140001335360534B1B68002BE6D1CFE74E4A6D
:10372400037C126893420AD24C4A12683AB102EB03
:103734008303996C013199641368013313606D46F6
:1037440028460822002103F0F9FCA37B667BA168CC
:10375400227B60688DF80030E37BCDF802108DF891
:1037640006208DF8073001F033F8304695E806005E
:10377400FFF7B0FB02B070BD6D4628460822002159
:1037840003F0DCFC384B1B685B7D13B9374803F04E
:103794004FF8A268267B637B6068CDF80220002284
:1037A4008DF800208DF8073001F012F8304695E8C6
:1037B4000600FFF795FB02B070BD2D4B5A681978CF
:1037C40001325A6000293FF47AAF9A68002A36D051
:1037D400013A9A6073E7FFF761FF02B070BD1E4AB9
:1037E400037B126893420AD21C4A12683AB102EB74
:1037F4008303996C013199641368013313600322C4
:103804000021684603F09AFCA37A217AE27A657A69
:103814008DF800308DF801108DF8022064681BB11A
:10382400ACB1204600F0D4FF28460099FFF70CFB0A
:1038340002B070BD0F4802F0FBFF02B070BD00F093
:1038440055FE00287FF439AF00F012FE37E70A482E
:1038540002F0EEFFE5E700BF300000208009002001
:1038640070090020900900207C0900203D04050017
:1038740084090020BC04050063040500024A034BCC
:103884000F21117018607047740900207809002016
:103894002DE9F0475C4BD3F80024012A86B003D00D
:1038A400D3F83435002B36D1584B594C5B681D780E
:1038B4002369202D8CBF00250125002B30D002F078
:1038C4002FFF012802D0534802F0B2FF524E336852
:1038D4001B7D002B47D101F09FFE45BB23784F4A47
:1038E4000121022B117001D063688BB102F0BEFD7F
:1038F400054601F0C5FBA27D8DF80900062301A849
:103904008DF808508DF80A208DF8043002F00EFC72
:1039140006B0BDE8F0873E4C23690025002BCED1CC
:1039240003F038FA0028CAD101232361C7E7012133
:10393400084602F017FD0546002840D0022816D09C
:1039440002F0CEFF364B21785A69E06002296260AA
:1039540000D092B3DB68334A0020136002F0C6FF44
:1039640006B0BDE8F087304802F062FFB3E702F02A
:1039740083FD3368278993F916906689804602F09F
:1039840075FD054601F07CFBA17D8DF81300002236
:10399400012301A88DF81090CDF80880ADF80C70C3
:1039A400ADF80E608DF811508DF814108DF80420C8
:1039B4008DF8123002F0BAFBC2E79B68CBE702F045
:1039C4005BFD3368B4F8088093F916A067898146D3
:1039D40002F04CFD064601F053FBA37D8DF8130065
:1039E40001A88DF810A0CDF80890ADF80C80ADF8C2
:1039F4000E708DF811608DF804508DF812508DF80A
:103A0400143002F093FB9BE700100040F4090020FF
:103A1400DC0900203C0709000C0A0020A009002052
:103A2400A8090020940900203D07090038B5224D5B
:103A3400224C01F0F1FD0123214A2B702149D2F8D7
:103A44003035096923F0FF030B43C2F830350023F6
:103A5400236102F065FEE8B902F0A4FB012821D835
:103A6400022001F0A5FC002001F00CFD02F058FE3C
:103A7400032802D0144802F0DBFE2B78012B02D07D
:103A8400124802F0D5FE124B022100222970C4E92B
:103A9400033238BD02F044FE0328E1D00D4802F0A1
:103AA400C7FEDDE702F0F4FC60600028D8D10A48C4
:103AB40002F0BEFED4E700BFA1090020F4090020F3
:103AC40000100040A80900200106090007060900AB
:103AD400E13A0000F9050900F40509002DE9F04177
:103AE400624B634CD3F80024012A88B002D0D3F887
:103AF400343503BB63681B78202B1CD85D4D5B4BAE
:103B04000321002229702260D3F80864D3F8082422
:103B1400C3F82C25D3F80C24019402A801230090A7
:103B24003146184602F022FD032800F28F80DFE8B8
:103B340000F0805C382C504E4E4D33784B4A0321B4
:103B4400297000212160022BD2F8087401D0736817
:103B540073B101F095FAB27D8DF81100062303A824
:103B64008DF812208DF810708DF80C3002F0DEFA0A
:103B74000023CDE900331A461946184602F0F6FC34
:103B8400042802D03D4802F053FE2668002E54D08B
:103B940001233B4A6375042322612B7008B0BDE8FE
:103BA400F081029B002B5DD0304602F001FE00281C
:103BB40050D0344B029F1B6893F9168001F060FAD1
:103BC4002D4B8DF81700997D8DF814800222012366
:103BD40003A804978DF815608DF818108DF80C2043
:103BE4008DF8163002F0A2FACFE7029B13B12648F3
:103BF40002F01EFE304602F0DBFD78B3214B1B6859
:103C040093F9167001F03CFA1B4B8DF81700997D5F
:103C14008DF814700023022203A88DF815608DF826
:103C240018108DF80C2004938DF8163002F07EFAEB
:103C3400ABE7164802F0FCFDA7E701F0EDFC667562
:103C44002661FFF7F3FE08B0BDE8F081104802F0EA
:103C5400EFFD9AE70F4802F0EBFDAAE70E4802F0E9
:103C6400E7FDCBE70D4802F0E3FD9DE700100040BF
:103C7400F4090020A1090020DC09002058060900ED
:103C8400014300000C0A00202D0609003806090033
:103C9400490609003D0609002E0609003C060900F4
:103CA40030B589B003F070F8012828D11E4D01F019
:103CB400B3FC08A80523002400F8143DAC706C750F
:103CC40002F034FA194A1A4B14704FF44072C3F8D4
:103CD400082502F025FD80B1022820D903280CD143
:103CE400CDE90044234622462146204602F03EFC0C
:103CF400042802D00F4802F09BFD09B030BD03F048
:103D040021F80D4B1B7F1BB94FF0804301225A60F1
:103D14000020054D02F064FD00236B60C7E72146D7
:103D2400204602F01FFBE3E7DC090020A109002084
:103D340000F0014048020900A80900202DE9F04FD5
:103D4400E34DE44FE44AE54E4FF440780024012368
:103D5400C7F85445C7F80885C5F8FC4FC5F8FC3FBB
:103D6400D5F8143523F48073C5F81435D5F8143513
:103D740023F00F0343F00603C5F81435D5F81435C2
:103D840023F4702343F44033C5F81435D5F81835BB
:103D940023F00073C5F81835D5F8183543F080734F
:103DA400C5F81835D5F8183523F0FF0343F0200380
:103DB400C5F81835D5F81835022123F47F4385B0AA
:103DC400C5F81835C2F8801103F08AF8C44AC54B07
:103DD400C7F85C05C7F85825C7F804851968C248B0
:103DE40001F054F9D6E90832C04996F81DA00860DC
:103DF400110A180A0E464FEAC31B0BF4FF474FEA99
:103E0400C01E4FEAC61B0BF4FF490EF4FF4EC0F36D
:103E1400C01B4BEA0E0B4FEA401E0EF0400C4BEA5F
:103E24000C0EC3F3C01C4CEA070B4FEA431C0CF006
:103E340040074BEA070CC6F3C01B4BEA090B4FEAD9
:103E440046194FEAC21809F040094BEA090B08F475
:103E5400FF48C2F3C019190C49EA08084FEA42198D
:103E64000096CF01160C09F0400948EA090807F446
:103E7400FF474FEAC619029709F4FF49D5F81875A8
:103E8400CDF80C904FEAC00909F020094EEA090E5A
:103E94004FEAC309029E09F0200927F4E02747EA04
:103EA4000A474CEA090CC1F3C01ACDF804C04AEA27
:103EB400060A4FEA411C009E0CF0400C4AEA0C0A28
:103EC4004FEAC60C0CF0200C4BEA0C0B4FEAC20C68
:103ED4000CF0200C48EA0C0CCDF808C0C5F8187595
:103EE400470007F010074EEA070E470807F00807D7
:103EF4004EEA070EC70807F0040740094EEA070711
:103F040000F00200019E074358004FEA530E00F0F0
:103F1400100030430EF0080E40EA0E004FEAD30EB4
:103F24004FEA13690EF0040E5B0940EA0E0003F039
:103F3400020303431B06FFB243EA0747CB0003F027
:103F440020034AEA030A4B00480803F010034AEA34
:103F5400030300F008000343C808019700F00400BD
:103F64004F09034307F002014FEA4910039E194326
:103F740000F04003100CC0F3C0173743064640015D
:103F840000F0400007434FEAE91040EAC910184323
:103F9400009B4FEA42084FEA430E029B08F01008C8
:103FA40043EA0808F30003F020031F43019BC9B24E
:103FB40043EA01214FEAC90303F0200318434FEAFF
:103FC400490303F0100318434FEA590303F00803AD
:103FD40018434FEAD90303F004034FEA59194FEA8F
:103FE400126C034309F0020900984FEA4C1A43EAA1
:103FF40009094FEAEC1343EACC130AF0400A43EAF6
:104004000A0A0EF0100E43084BEA0E0E03F00803E2
:104014004EEA030E530803F0080348EA030873004A
:1040240003F010031F434FEACC0303F020034AEAD2
:10403400030AC30803F004034EEA030ED30803F093
:1040440004034FEA501B520948EA03080BF002002C
:10405400730802F0020203F008034EEA000048EA83
:1040640002021F43C0B24FEA4C03120603F01003CE
:1040740042EA0042F0084AEA030A00F00400730925
:10408400384303F0020318434FEA5C034FEADC07AA
:1040940003F0080307F004074AEA03034FEA5C1C31
:1040A4003B430CF0020CC0B243EA0C0342EA002288
:1040B4005FFA89F9DBB2094E49EA01011343C5F8F5
:1040C4001C152846C5F82035FF2706F128051CE0F5
:1040D4000010004000F0014000E100E0A8090020C9
:1040E40004110040A4090020F40900200C0A002057
:1040F400D0F824150A40C0F82425D0F8242501342A
:104104001343082CC0F824353CD015F8012B02F0D9
:104114000101D3094FEA421C43EAC1130CF0400CDD
:10412400D10043EA0C0301F020014FEA420C0B4397
:104134000CF0100C510843EA0C0301F008014FEA9B
:10414400D20C0B430CF0040C520904F0030102F0EE
:104154000202C90043EA0C031343032C07FA01F2D9
:1041640003FA01F36FEA0202C2D9D0F828150A4013
:10417400C0F82825D0F8282501341343082CC0F8AA
:104184002835C2D12149224B91F83020C3F80C259F
:10419400D3F8342591F8311022F0FF020129C3F835
:1041A400342524D01ED302290ED01A4802F040FB35
:1041B400164B93F832300BB1012B02D1144AC2F8DA
:1041C400103505B0BDE8F08FD3F83425124942F01C
:1041D40002024FF6FF70C3F83425C3F83C05C3F858
:1041E4003815E5E7D3F83425C3F83425E0E7D3F8E8
:1041F4003425FF2042F0010240F20711C3F83425B0
:10420400C3F83C05C3F83815D2E700BFA80900205D
:104214000010004033040900211001002DE9F04191
:104224002D4F2E4D2E4E4FF00008C7F8088002F097
:104234001DF9C5F82C05D5F8304502F017F901230E
:1042440003FA00F024F0FF040443C5F8304502F0FB
:1042540013F9306002F016F9224A234B82F80080E9
:10426400F360706002F012FBC5F8080502F038FB39
:10427400B87502F055FA012804D002F051FA022868
:1042840015D1002001F094F802F02EFE174B184AC5
:10429400C3F850051268174C5268C3F854252068B7
:1042A40018B1037873B903792BB9BDE8F0811248CA
:1042B40002F0BEFAE5E700F0D1FE2068BDE8F04167
:1042C40000F0AEBE02F010FE216800F047FE206848
:1042D4000379002BE9D0EEE7DC0900200010004050
:1042E400F4090020A00900209538000000F00140E6
:1042F4000C0A0020A40900209C06090038B5234CB0
:10430400234D0523237001F087F90123214A2370EB
:104314002149D2F83035096923F0FF030B43C2F871
:10432400303500232B6102F0FBF9E8B901F03AFFC4
:10433400012821D8022001F03BF8002001F0A2F866
:1043440002F0EEF9032802D0144802F071FA23783F
:10435400012B02D0124802F06BFA124B0221002208
:104364002170C5E9033238BD02F0DAF90328E1D03F
:104374000D4802F05DFADDE702F08AF86860002873
:10438400D8D10A4802F054FAD4E700BFA1090020AA
:10439400F409002000100040A809002001060900CB
:1043A40007060900E13A0000F9050900F4050900CF
:1043B400014B1860704700BFA409002038B5234C96
:1043C400637D03B138BD224DFFF7B8FCAB68002B09
:1043D40034D06B6873B302F011FA38BB002002F0DA
:1043E400FFF90123637502F0CFFC0128EAD102F042
:1043F4000BFA38BB00226421164802F0D1FC164B9C
:104404001B7F7BB94FF08042144801210160C2F840
:104414000031116000BF00BF00BF00BFD2F80031FF
:10442400002BFBD0BDE8384002F080BC0C4802F001
:10443400FFF9D3E70B4802F0FBF9CCE70A4802F096
:10444400F7F9C6E7094802F0F3F9D3E7DC090020DD
:104454009409002019680000A809002014050040F0
:10446400D4020900CF020900CE020900B9060900EE
:1044740008B5012282F31088174B597D09B1997848
:1044840019B1002383F3108808BD9A7002F07CFCF4
:104494000128F6D102F0B8F9D0B9002264210F48FE
:1044A40002F07EFC0E4B1B7F7BB94FF080420D481F
:1044B40001210160C2F80031116000BF00BF00BFDC
:1044C40000BFD2F80031002BFBD002F02FFCD8E75C
:1044D400054802F0ADF9E0E7DC09002019680000A6
:1044E400A809002014050040B9060900024B587DB4
:1044F40080F00100704700BFDC09002070B5012383
:1045040088B083F31088514C2378834207D0627DAE
:104514006070054642B102F037FC01282DD000231B
:1045240083F3108808B070BD002B60D0002D43D0F9
:10453400474B484E0025C3F8545501F06DF82378D5
:104544003561012BC6E90055C6E9025555D0022B49
:1045540061D06368002B56D13F4B99683F4A08A845
:10456400042300F8143D63782370116001F0DEFD2C
:10457400002383F3108808B070BD02F045F90028C9
:104584005BD100226421364802F00AFC324B1B7FC7
:104594007BB94FF08042334801210160C2F80031F9
:1045A400116000BF00BF00BF00BFD2F80031002B74
:1045B400FBD002F0BBFBB2E7254B4FF44072C3F8CB
:1045C400082502F0ADF80028B2D002281ED903282D
:1045D400AED1CDE900552B462A462946284601F09E
:1045E400C5FF0428A4D0204802F022F9A0E7FFF771
:1045F400A5FB6578002D9BD1DEE702F091F800BBA6
:104604002378022BA5D1144BD968A7E7294628465D
:1046140001F0A8FEE5E700F0FFFF144B35611D70C3
:1046240002F07EF80328EBD1CDE900552B462A464B
:104634002946284601F09AFFE2E70D4802F0F8F80F
:104644009FE72946284601F08DFED9E7DC090020C2
:1046540000F00140F4090020A8090020940900207A
:10466400196800001405004048020900A10900204F
:10467400B90609002DE9F0418046012787F3108827
:10468400424B434C434E677000250322C3E9005557
:10469400C3E902551D611D752270A570C4E9015559
:1046A400C4E9035525756575C6E9015502F006FB95
:1046B400404601F01FFD01F0C5FD284602F088F8D0
:1046C400304602F0B7F8344B202283F808533846BA
:1046D40083F8015383F81523FFF710FF2F4B30485D
:1046E400227883F83050FF2119612E49596204253C
:1046F40069215D7718622C4D2C48196002219D6256
:10470400D8621E254FF416708A4283F832705D61B8
:10471400586083F83110D96034D062680F21002AC0
:104724000CBF0A4602229960002132600846012229
:10473400598319771A765A7602F044F86378012B74
:1047440002D01B4802F074F81A491B4A00250123C1
:104754000D6015702370A570C4E90155C4E90355B3
:1047640025756575FFF7EAFA0B4B4FF480714FF42A
:104774000012C3F88011C3F8802185F3108804481F
:10478400BDE8F0810F219960CEE700BFF409002055
:10479400DC0900209409002000E100E0A8090020C1
:1047A40004070A0D05080B0E010203040506070899
:1047B4009F020900A4090020A009002008B50123D4
:1047C40083F3108801F0F8FF002383F3108808BDF9
:1047D40008B5012383F3108801F0F0FF002383F36D
:1047E400108808BD10B5012383F3108801F09EFFE3
:1047F400044648B1194B9A780AB95B7D43B9002342
:1048040083F31088204610BD80F31088204610BD25
:1048140002F0BAFA0128F2D101F0F6FFD0B9002271
:1048240064210F4802F0BCFA0E4B1B7F7BB94FF09A
:1048340080420D4801210160C2F80031116000BFBF
:1048440000BF00BF00BFD2F80031002BFBD002F044
:104854006DFAD4E7054801F0EBFFE0E7DC0900203E
:1048640019680000A809002014050040B9060900D1
:1048740008B5012383F3108801F096FF002383F326
:10488400108808BD01F08CBF01F088BF01F090BF13
:1048940001F096BF014B186A704700BFA8090020B9
:1048A400072810B5044602D9034801F0C1FF0348A4
:1048B400204490F8280010BDAF030900A809002087
:1048C40038B505460C4641B165B1084BC3E901450D
:1048D4000020BDE8384001F0EFBF054801F0A8FF13
:1048E400002DF2D1034801F0A3FFEEE79409002064
:1048F400B8030900B9030900054A0649D2F8183576
:10490400487723F4E02343EA0043C2F8183570479C
:1049140000100040A8090020034A044B82F830002C
:10492400C3F80C05704700BFA80900200010004020
:10493400054B83F8320008B1012803D1034BC3F8B7
:1049440010057047704700BFA80900200010004000
:1049540010B5064B1B68044613B1054B1C7510BDFE
:10496400044801F065FF024B1C7510BD0C0A0020C1
:10497400F409002073040900014B1876704700BF46
:10498400A8090020014B1877704700BFA809002030
:104994002DE9F047AB4C23698AB023B363682278CE
:1049A4006BB1013B022A63600CD0002B00F0A9809C
:1049B400A54DA64AA378E96811605BB9A9E0022A6B
:1049C40040F09F80A04DA14AA378E9681160002BB4
:1049D40000F0F48001F042FF637D002B40F002817F
:1049E4000AB0BDE8F08702F0D5F90028D6D12378C3
:1049F400012B00F0A580022B6ED001F02FFF63681D
:104A0400E3B12678013B022E636000D0CBB18E4D1A
:104A14008E4FA278EB683B60D2B1637D002B40F0EF
:104A2400928001F0BFFB01284ED90AA8032300F8A5
:104A3400143D01F07BFB0AB0BDE8F0872678022E16
:104A4400E5D0814D814FA278AB683B60002AE4D168
:104A540094F80180B04579D0002E00F0C680B8F1FA
:104A6400000F00F005817A4BDFF800820026C3F8BE
:104A7400546500F0D1FD2378C8F81060012BC8E913
:104A84000066C8E9026600F08981022B00F0948177
:104A94006368FBB1EB683B600AA8042200F8142D9C
:104AA4006278227001F042FB00206D6801F098FEEC
:104AB40021698D4240F27B816648691A012202F025
:104AC4006FF900232361ACE7634801F0B1FE0AB03B
:104AD400BDE8F087AB68DEE7604B1878033801283F
:104AE4008CBF00200120002887D0574B59485B68B1
:104AF4005B0819460122236102F052F90AB0BDE8AD
:104B0400F087514D514AA378A9681160002B7FF4B6
:104B140061AF01F0A3FE00206D6801F061FE216920
:104B24008D4203D84E4801F083FE21694948691A31
:104B3400012202F035F9002323610AB0BDE8F087B1
:104B440000F05EFDCFE7FFF7ABF86AE7012E00F057
:104B5400AE80C0F02181022E54D0424801F068FE9C
:104B64006E7E012E7FF45DAF2778022F3FF459AF9C
:104B74006368002B7FF455AF002F00F06081012F94
:104B840040F0598101F0CCFD00287FF44AAF01F0D8
:104B940085FB00287FF445AF02F0F6F801283FF4C6
:104BA40040AF02F0CFF82B7F13B94FF080435F6022
:104BB400002001F015FE0023636032E7274E3378AE
:104BC400033B012B3BD9284F01F048FED7F8088559
:104BD40001F05CFE80450DD13378002B9BD1FEF7AC
:104BE40025FF98E7FFF75CF8FAE6FFF7A7F894F8D3
:104BF400018034E701F04AFEC7F8080501F070FEB1
:104C0400A075ECE7184ED6F8087501F03FFE874210
:104C140040F0E580114B1B780BB9FEF707FF00202D
:104C24006E6801F0DDFD21698E4240F2B0800948D2
:104C3400711A012202F0B4F80023236190E76B6833
:104C4400044855E7DC090020A80900209409002045
:104C540000F00140196800000B050900A1090020BB
:104C6400DB060900D504090000100040F409002007
:104C7400964B4FF44072C3F8082501F051FD00280B
:104C84003FF4F1AE022840F2B28003287FF4EBAE89
:104C9400CDE90088434642464146404601F066FC61
:104CA40004283FF4E0AE8A4801F0C2FDDBE603923B
:104CB40000F0B2FC01F034FD039A002800F09C805F
:104CC4006B8B1BB12189994280F0D88002F062F885
:104CD400002840F0AC807F4BD3F8086501F0D6FD86
:104CE400864202D06389013363817B4E3378B3B942
:104CF4002378022B01D063688BB101F0B7FB074620
:104D040000F0BEF9A27D8DF81900072305A88DF8DF
:104D140018708DF81A208DF8143001F007FA00236A
:104D2400337001F0B3FD6B4BC3F8080501F0D8FDF7
:104D3400A07501F0F5FC012807D001F0F1FC022870
:104D440002D0664801F074FD002000F031FB02F04F
:104D5400CBF85E4B624AC3F850051268614E526844
:104D6400C3F85425306850B10378002B40F0A68076
:104D7400037923B100F072F9306800F051F9012091
:104D84002E6801F02DFD21698E423FF650AF564842
:104D940001F04EFD21694AE7104641E701F0C0FCED
:104DA40000283FD12378022B3FF474AE70E64E48BE
:104DB40001F03EFD21697FE600F02EFC4B4BC8F864
:104DC40010601E7001F0ACFC0328EBD1CDE9006645
:104DD400334632463146304601F0C8FBE2E701F083
:104DE40055FDC6F8080501F07BFDA07515E74146A1
:104DF400404601F0B7FA53E701F0D4F90128BED9CF
:104E04002378022B2AD0666846BBE06801F054FD83
:104E1400304601F06BFD01F047FA0028AFD0FFF7F0
:104E2400FDF9ACE73146304601F09CFABAE7304868
:104E340001F0FEFC4FE72F4801F0FAFCF1E501F028
:104E4400A3FF01283FF4EDAD01F07CFF2B7F002B85
:104E54007FF4AEAE4FF080435E60A9E601F05AFDE8
:104E640000288CD12B7E23B901F03AFDE3689842E7
:104E740085D101F019FA002881D0D0E710463146D7
:104E840001F070FA01F0F8FAB4F80890B4F80A8066
:104E9400824601F0EBFA074600F0F2F88DF82100A3
:104EA40005A8CDF818A0ADF81C90ADF81E808DF8BB
:104EB40020708DF8146001F039F960E702F014F8FD
:104EC400316800F04BF8306852E700BF00F0014051
:104ED4004802090000100040A00900209C060900B7
:104EE4000C0A0020A4090020DB060900A109002007
:104EF40081050900EF04090038B5124B124D1B68F7
:104F04005B7D2BB1012000F0BDFA2B8901332B818D
:104F14000E4A0F4B0020C2F85405D3E90014641A5A
:104F240001F05EFC29698C4203D80A4801F080FC38
:104F340029690948611A012201F032FF00232B611B
:104F440038BD00BF0C0A0020DC09002000F001403D
:104F5400A8090020DB0609001968000070B48B68FA
:104F64002A4A0024C3F840410B7B8C68A23304F521
:104F7400A07442F833400B7B4C78CD78A233002CDC
:104F840036D0234C02EBC30304EB85045C604A7BFC
:104F94001E4B204C204EA23243F832004A7B8D68CF
:104FA400A23203EBC20200205560C4F80C01C4F81D
:104FB40010018A7BA23243F832608A7B4878CC782D
:104FC400A232E0B9124803EBC20300EB840058603C
:104FD4000B7B487B8D7B0D4C012202FA03F302FA12
:104FE40000F10B43AA401343C4F8043570BC704766
:104FF4000A4C02EBC30304EB85045C60C7E7074873
:1050040003EBC20300EB84005860E1E700F00140C9
:1050140030600040001000400C110040606000400F
:1050240083680C4A002110B4C3F84011C37B0A4CB6
:10503400A233012142F83340C37B8468A23302EBDC
:10504400C3035C60C37B01FA03F3C2F804355DF863
:10505400044B704700F00140101100404279C379BD
:105064002AB90C33054A012142F82310704718333A
:10507400024A012142F82310704700BF006000403B
:10508400014B1878704700BF140A0020F0B5A14CFA
:10509400A14BA24A0225C4F880500026C4F88050CF
:1050A4004FF0FF37C4F880510124C3F80873C3F8E4
:1050B4000062C3F810611C619C611378A34200F084
:1050C4003981023B012B40F2D180013C00BF00BF7B
:1050D40000BF00BF00BF00BF00BF00BF00BF00BFD4
:1050E40000BF00BF00BF00BF00BF00BF00BF00BFC4
:1050F40000BF00BF00BF00BF00BF00BF00BF00BFB4
:1051040000BF00BF00BF00BF00BF00BF00BF00BFA3
:1051140000BF00BF00BF00BF00BF00BF00BF00BF93
:1051240000BF00BF00BF00BF00BF00BF00BF00BF83
:1051340000BF00BF00BF00BF00BF00BF00BF00BF73
:10514400C3D1754C734D764FDFF8E0E1DFF8E0C171
:1051540000234FF0FF36C4F81031C4F80032C4F80D
:1051640008630226C4F80C31C5F88061C4F8003124
:10517400C4F81031C4F804312E6003243960CEF829
:1051840000006849684813705470CCF86405CCF882
:105194006015D0F86017536021F0807121F001018F
:1051A40041F08071C0F860172E603968136113757F
:1051B40053759375002953D00B79002B52D08B680B
:1051C40003200422C3F80805C3F810250A7C002034
:1051D40040F20115C2F181020124C3F84025C3F84D
:1051E4000052C3F80405DC60C3F840010B79D3B165
:1051F400CB798A7948799B0003F18043120203F545
:10520400C04302F4F85242F40032C3F81025D3F834
:105214001025002872D0C3F81025D3F8102542F0C9
:105224000302C3F810250B78D3B1CB788A78497878
:105234009B0003F18043120203F5C04302F4F852C9
:1052440042F40032C3F81025D3F8102500294AD0BF
:10525400C3F81025D3F8102542F00302C3F8102533
:105264002E48F0BD0B78002BFAD0A8E7013D00BF13
:1052740000BF00BF00BF00BF00BF00BF00BF00BF32
:1052840000BF00BF00BF00BF00BF00BF00BF00BF22
:1052940000BF00BF00BF00BF00BF00BF00BF00BF12
:1052A40000BF00BF00BF00BF00BF00BF00BF00BF02
:1052B40000BF00BF00BF00BF00BF00BF00BF00BFF2
:1052C40000BF00BF00BF00BF00BF00BF00BF00BFE2
:1052D40000BF00BF00BF00BF00BF00BF00BF00BFD2
:1052E40000BFC3D12DE742F48012C3F81025D3F8D0
:1052F400102542F00302C3F81025B1E742F48012EE
:10530400C3F81025D3F8102542F00302C3F8102582
:1053140089E700BF00E100E000100040180A002007
:10532400340A00200411004014100040100A002028
:1053340000F001400623013B00BF00BF00BF00BFD7
:1053440000BF00BF00BF00BF00BF00BF00BF00BF61
:1053540000BF00BF00BF00BF00BF00BF00BF00BF51
:1053640000BF00BF00BF00BF00BF00BF00BF00BF41
:1053740000BF00BF00BF00BF00BF00BF00BF00BF31
:1053840000BF00BF00BF00BF00BF00BF00BF00BF21
:1053940000BF00BF00BF00BF00BF00BF00BF00BF11
:1053A40000BF00BF00BF00BF00BF00BFC3D1C8E63D
:1053B4002DE9F8432C4A2D4BDFF8C4802C4C2D4E9C
:1053C4004FF0FF350221C2F80853C3F88011D8F812
:1053D4000010607000236375D1F800E0C4F808E0A1
:1053E4000701D1F804C0F559A3610228C4E903C335
:1053F400656006EB070921D8054699F80B0099F872
:105404000890C2F80092C2F80C31C2F81031C8B941
:10541400C2F804E5D2F8043503B3F319124A5B7AEF
:10542400C2F804330B7D4BB1022D07D102F5F032E3
:105434004FF480610023C2F80415A375012363753A
:10544400BDE8F883C2F804C5D2F80435002BE4D1D2
:10545400094801F0EDF9D8F80010DEE7074801F03B
:10546400E7F9D8F80010D8E70010004000E100E0A8
:10547400180A0020EC740000A1020A009C020A0031
:10548400100A0020F8B5504C637D65780646002B61
:105494003CD0237D002B35D101220023022D22751F
:1054A40063752AD856B9494B1B6813B11A79002A77
:1054B40030D147492B010122CB581A606B1E012BB6
:1054C40010D9444B1B681B7D5BB1022D09D1424BA3
:1054D400D3F804355B0564D5404BD3F80435002B71
:1054E4005AD0F8BD3A4B03EB05139B7A2370394B22
:1054F4001B681B7D002BE8D1F3E73948BDE8F84071
:1055040001F096B9374801F093F9C5E7364801F040
:105514008FF9BEE79A68304FC2F84061197B9868EA
:10552400A23100F5A07047F831001A7B5979D87977
:10553400A232002939D12D4907EBC20201EB8000C8
:105544005060264A24492A480026C2F80C615A7B36
:10555400A23241F832005A7B5879DE79A23258BB24
:10556400244801EBC20200EB860050601A7B597B91
:10557400194E012000FA01F100FA02F20A434FF039
:10558400A041C6F80425D1F810259979CA40D2075C
:105594005CBF9B6818608CE71748BDE8F84001F0D1
:1055A40047B9164801F044F996E7124907EBC202DD
:1055B40001EB80005060C4E70C4801EBC20200EB31
:1055C40086005060D2E700BF180A0020340A002089
:1055D400EC740000100A002000F0014000100040AC
:1055E400DD020A00B9020A00B8020A006060004045
:1055F4000C11004030600040E3020A00E2020A009D
:10560400044BD3F80401A0F10100B0FA80F0400982
:10561400704700BF0010004030B4784A784B794995
:105624000220C2F880000024C2F880014FF0FF3548
:105634000122C3F80853C3F80042C3F810411A61A9
:105644009A610B78934200F09B80023B012B5AD95C
:10565400013A00BF00BF00BF00BF00BF00BF00BFD2
:1056640000BF00BF00BF00BF00BF00BF00BF00BF3E
:1056740000BF00BF00BF00BF00BF00BF00BF00BF2E
:1056840000BF00BF00BF00BF00BF00BF00BF00BF1E
:1056940000BF00BF00BF00BF00BF00BF00BF00BF0E
:1056A40000BF00BF00BF00BF00BF00BF00BF00BFFE
:1056B40000BF00BF00BF00BF00BF00BF00BF00BFEE
:1056C40000BF00BF00BFC3D14D4A4C4800234FF078
:1056D400FF34C2F8103103254B750B704B60C2F8D0
:1056E40000320B75C2F808430224C2F80C314D7025
:1056F400C0F88041C2F80031C2F81031C2F8043158
:10570400046030BC7047013800BF00BF00BF00BF59
:1057140000BF00BF00BF00BF00BF00BF00BF00BF8D
:1057240000BF00BF00BF00BF00BF00BF00BF00BF7D
:1057340000BF00BF00BF00BF00BF00BF00BF00BF6D
:1057440000BF00BF00BF00BF00BF00BF00BF00BF5D
:1057540000BF00BF00BF00BF00BF00BF00BF00BF4D
:1057640000BF00BF00BF00BF00BF00BF00BF00BF3D
:1057740000BF00BF00BF00BF00BF00BFC3D1A3E78D
:105784000623013B00BF00BF00BF00BF00BF00BF36
:1057940000BF00BF00BF00BF00BF00BF00BF00BF0D
:1057A40000BF00BF00BF00BF00BF00BF00BF00BFFD
:1057B40000BF00BF00BF00BF00BF00BF00BF00BFED
:1057C40000BF00BF00BF00BF00BF00BF00BF00BFDD
:1057D40000BF00BF00BF00BF00BF00BF00BF00BFCD
:1057E40000BF00BF00BF00BF00BF00BF00BF00BFBD
:1057F40000BF00BF00BF00BFC3D165E700E100E008
:1058040000100040180A00202DE9F041934C236950
:10581400627D657801332361002A40F0C6802378D5
:10582400032B5ED0022D00F2C480012D00F0CE8047
:10583400022D00F004816278894B120199180D7BC6
:105844002DB18849D1F80C51003518BF01251344F6
:10585400844A9B7A23700021032BC2F8001200F0C3
:10586400AD804FF0FF30804BC2F80803C2F80C1132
:10587400032002226070C3F880217A4A7B4E002301
:10588400C2F80031C2F81031C2F80431326823750D
:105894001269636002B190471DB133689B6803B11C
:1058A4009847734B1B68D3B11A79C2B19A7B71487C
:1058B40002F51172002440F82240DA7B02F51172DD
:1058C400012140F822405A7B9C7BDD7B01FA02F3E4
:1058D40001FA04F21343A9400B43C0F80835BDE8AC
:1058E400F081604ED6F80C31002B9BD0012D00F0D6
:1058F400D180022D40F01E812369022B00F01F810C
:105904005D4800F095FF2369012B00F0DF82022B34
:1059140000F01581032B40F09C80D6F80C31012B4C
:1059240002D0564800F084FF4E4BD3F81031012BBF
:1059340002D0534800F07CFF4A4BD3F80031012BCE
:1059440002D0504800F074FF464B494900224FF002
:10595400FF30C3F80C21C3F81021C3F80021C3F8A9
:105964000421C3F80803C3F800220B687BB11A783A
:105974006AB15A7B987BDE7B3E4D012101FA02F32A
:1059840001FA00F21343B1400B43C5F80835374A16
:105994000023126823751269237003216360617008
:1059A400002A9CD0BDE8F0411047374800F040FF82
:1059B40035E73648BDE8F04100F03ABF6FF0080122
:1059C4000823C2F80813C2F8043356E72369012BED
:1059D40000F0E281022B00F01B82032B7FF47FAFE7
:1059E400204A6370022000234FF0FF3120701E4FC5
:1059F400C2F80C31C2F80031C2F81031C2F80431D7
:105A0400C2F82831C2F80032C2F80813A169174E4F
:105A1400C7F88001013130682375A161017D63609D
:105A2400002976D0D2F84815124FC2F81C314B42E7
:105A34004FF48061A3759561C7F8081569E023697F
:105A4400012B00F0E180022B00F03881032B00F0E1
:105A5400D4800F48BDE8F04100F0EABE180A0020E7
:105A6400EC7400000010004000E100E0100A002087
:105A7400340A002000F0014045030A00F5040A003E
:105A8400F6040A00F7040A0038030A0060030A0057
:105A940033050A002369032B0CD0B04800F0C8FE7C
:105AA4002369012B00F02E82022B00F03182032B9C
:105AB4007FF415AFAA4AAB4DA169AB4E03276770BB
:105AC400002302204FF0FF372070C2F80C31C2F8D7
:105AD4000031C2F81031C2F80431C2F82831C2F8DA
