:1000000000000120AD1F0000D51F0000D71F000019
:10001000D91F0000DB1F0000DD1F000000000000F2
:10002000000000000000000000000000DF1F0000D2
:10003000E11F000000000000E31F0000E51F0000BA
:10004000E71F00004D820000514F0000E71F000035
:10005000E71F0000E71F0000094A0000E71F00003B
:1000600035990000E71F0000E71F0000E71F0000B0
:10007000E71F0000E71F0000E71F0000E71F000068
:10008000E71F000089340000E71F0000E71F0000A1
:1000900029350000118C0000E71F0000E71F000059
:1000A000E71F0000E71F0000E71F0000E71F000038
:1000B000E71F0000E71F0000000000000000000034
:1000C000E71F0000E71F0000E71F0000E71F000018
:1000D000E71F0000E71F0000E71F0000000000000E
:1000E0000000000000000000000000000000000010
:1000F0000000000000000000000000000000000000
:1001000000000000000000000000000000000000EF
:1001100000000000000000000000000000000000DF
:1001200000000000000000000000000000000000CF
:1001300000000000000000000000000000000000BF
:1001400000000000000000000000000000000000AF
:10015000000000000000000000000000000000009F
:10016000000000000000000000000000000000008F
:10017000000000000000000000000000000000007F
:10018000000000000000000000000000000000006F
:10019000000000000000000000000000000000005F
:1001A000000000000000000000000000000000004F
:1001B000000000000000000000000000000000003F
:1001C000000000000000000000000000000000002F
:1001D000000000000000000000000000000000001F
:1001E000000000000000000000000000000000000F
:1001F00000000000000000000000000000000000FF
:100200000348044B834202D0034B03B118477047A5
:10021000A8040020A80400200000000005480649AA
:10022000091A891001EBD171491002D0034B03B1B7
:1002300018477047A8040020A80400200000000010
:1002400010B5064C237843B9FFF7DAFF044B13B11E
:100250000448AFF300800123237010BDA8040020E0
:1002600000000000B8AB000008B5044B1BB1044906
:100270000448AFF30080BDE80840CFE7000000006D
:10028000AC040020B8AB0000134B002B08BF114B8F
:100290009D46A3F5803A00218B460F461148124A2D
:1002A000121A09F071FC0D4B002B00D098470C4B33
:1002B000002B00D098470020002104000D000B48BF
:1002C00009F070FB09F0A2FB2000290000F086F87D
:1002D00009F06EFB00000800000001200000000093
:1002E00000000000A80400209C120020D999000002
:1002F000F0B585B004AA202342F8043D294B2A49D1
:1003000000241C80064605F039FE00283FD0039BE0
:100310003BBB00252C460127204605F0C3FC18B145
:1003200007FA04F31D43EDB20134042CF4D101F0BB
:1003300035FE08B945F010051C4BED433046194613
:1003400001221D7005F0C0FD48B91948194B1A4922
:10035000C01AC008000440F0010002F0FBF905B02B
:10036000F0BD114B1D78002445FA04F313F0010F82
:10037000204609D002F056FE0134042CF4D1EB06DD
:10038000C7D502F071FEC4E702F040FEF4E7094B66
:1003900007480A49C01AC008000440F0010002F0F2
:1003A000D9F9B4E7C4040020CC040020C80400201C
:1003B000DCAB0000BCAB0000B0A20000A0A20000BB
:1003C00082B002AB03E9060002B0704782B002AB14
:1003D00003E9060002B07047704700BF2DE9F04FF7
:1003E00085B003F06BFA08B103F006F80021032092
:1003F00005F05EFC08B102F0FFFF4FF40041002061
:1004000002F048F908B102F0F7FF02F0C9F8DFF88E
:10041000A8815C4B5C49A8EB03084FEAD8084FEA77
:10042000084848F00307384602F094F902F030FC1F
:100430000028FBD10446012002F05EFE00F000FA25
:1004400001F0A6FD514A2146204601F08BFA2046D4
:100450004F4A052101F086FA012005F087FC28B9F2
:1004600005F038FE00F5034002F0C6FF494805F0EC
:10047000F7FD28B905F02EFE00F5034002F0BCFFA1
:10048000002425460126284605F00CFC18B106FA82
:1004900005F31C43E4B20135042DF4D101F07EFDD7
:1004A00008B944F010043C4B3C49E44301220020CD
:1004B0001C7005F009FD00285AD005F0E9FC28B9A8
:1004C00005F008FE00F5034002F096FF3449354D73
:1004D000304EDFF8E8A0DFF8E890384602F03AF94D
:1004E00048F0050B02F0D4FB0028FBD120BF2B887D
:1004F000B3F57A7F34BF4A465246052101F032FAFD
:100500002B8832680133B2F57A7F2B80EAD3002042
:1005100003F0BCFA2449DFF8AC80584602F01AF91F
:1005200032682249384602F0B9FA726820493846E2
:1005300002F0B4FA0024039706E056F82C7056F83F
:100540002330009702F022FB05F052FDE2B2904208
:1005500002F1120302F1020C04F101044146039876
:10056000EBD80746002003F099FA05F047FDB9E7FC
:10057000104948F0010002F0EDF802F089FB002874
:10058000FBD19AE7BCAB000080A10000A8A100004D
:10059000BCA10000EC040020C8040020CC04002012
:1005A000D0A10000C404002020A2000024A200006A
:1005B00044A20000B0A20000DCAB00000CA20000CE
:1005C000F8A1000068A200002DE9F04F4FEA401C9E
:1005D0004FEA400A4FEA80094FEAC0084FEA001E7E
:1005E0008701C6010AF0800A09F0800908F0800836
:1005F0000EF0800E0CF0800C07F08007F6B244B2CB
:100600004FF4B05B4FF0A0434FF080654FF4000112
:100610004FF000621BF0800FC3F80C554FEA8B00BF
:10062000C3F80815C3F80C25C3F80825C3F80C1542
:10063000C3F80C25C3F80825C3F80815C3F80C2522
:10064000C3F80825C3F80815C3F80C25C3F8082516
:10065000C3F80C15C3F80C25C3F808250CBFC3F864
:100660000C15C3F808151BF0400FC3F80C25C3F890
:1006700008250CBFC3F80C15C3F8081510F0FC0FC3
:10068000C3F80C254FF08000C3F808250CBFC3F851
:100690000C15C3F80815C3F80C25C3F80825C3F8D2
:1006A0000C55C3F80C15C3F80C25C3F80825C3F87E
:1006B0000C15C3F80C25C3F80825C3F80C15C3F8AE
:1006C0000C25C3F80825C3F80C15C3F80C25C3F88E
:1006D0000825C3F80C15C3F80C25C3F80825C3F882
:1006E0000C15C3F80C25C3F80825C3F80C15C3F87E
:1006F0000C25C3F80825C3F80815C3F80C25C3F862
:100700000825C3F80C55C3F80C15C3F80C25C3F81D
:100710000825C3F80C15C3F80C25C3F80825C3F841
:100720000C15C3F80C25C3F80825C3F80815C3F841
:100730000C25C3F80825C3F80C15C3F80C25C3F81D
:100740000825C3F80C15C3F80C25C3F80825C3F811
:100750000C15C3F80C25C3F80825C3F80C15C3F80D
:100760000C25C3F80825002CC3F80855ACBFC3F806
:100770000C15C3F80815C3F80C25C3F80825BAF101
:10078000000F59D1C3F80C15C3F80C25C3F8082580
:10079000B9F1000F4DD1C3F80C15C3F80C25C3F8FF
:1007A0000825B8F1000F41D1C3F80C15C3F80C258A
:1007B000C3F80825BEF1000F35D1C3F80C15C3F8F6
:1007C0000C25C3F80825BCF1000F29D1C3F80C157E
:1007D000C3F80C25C3F80825FFB9C3F80C15C3F8F6
:1007E0000C25C3F808257EB90138C3F80C15C3F8E9
:1007F0000C25C3F80825B6D10BF1200BBBF5B85F6B
:100800007FF408AFBDE8F08F0138C3F80815C3F8CE
:100810000C25C3F80825A6D1EEE7C3F80815DEE7D6
:10082000C3F80815D4E7C3F80815C8E7C3F80815D6
:10083000BCE7C3F80815B0E7C3F80815A4E700BF84
:100840002DE9F8434FF0A0430322114CC3F86C2765
:100850004FF48005C3F85C274FF00070C3F86027A1
:100860004FF00061C3F86827C3F85827C3F864271E
:100870004FF08072C3F80C5544F00104C3F808052A
:100880004FF03208C3F80815C3F80C2502E000BF8A
:10089000B0A800004FF47A40A047B8F10108F9D1A0
:1008A0004FF0A0444FF000654FF400064FF0806712
:1008B0004FF08073C4F808354046C4F80C75C4F88E
:1008C0000865C4F80C55C4F80855C4F80C65C4F89C
:1008D0000C55C4F80855C4F80865C4F80C55C4F89C
:1008E0000855C4F80C65C4F80C55C4F80855C4F88C
:1008F0000865C4F80C55C4F80855C4F80865C4F870
:100900000C55C4F80855C4F80865C4F80C55C4F86B
:100910000855C4F80C65C4F80C55C4F80855C4F85B
:100920000C75C4F80C65C4F80C55C4F80855C4F827
:100930000C65C4F80C55C4F80855C4F80C65C4F827
:100940000C55C4F80855C4F80C65C4F80C55C4F827
:100950000855C4F80C65C4F80C55C4F80855C4F81B
:100960000C65C4F80C55C4F80855C4F80C65C4F8F7
:100970000C55C4F80855C4F80C65C4F80C55C4F8F7
:100980000855C4F80C75C4F80C65C4F80C55C4F8C7
:100990000855C4F80C65C4F80C55C4F80855C4F8DB
:1009A0000C65C4F80C55C4F80855C4F80865C4F8BB
:1009B0000C55C4F80855C4F80C65C4F80C55C4F8B7
:1009C0000855C4F80C65C4F80C55C4F80855C4F8AB
:1009D0000C65C4F80C55C4F80855C4F80C65C4F887
:1009E0000C55C4F80855C4F80C75C4F80C65C4F867
:1009F0000C55C4F80855C4F80865C4F80C55C4F87B
:100A00000855C4F80C65C4F80C55C4F80855C4F86A
:100A10000C65C4F80C55C4F80855C4F80C65C4F846
:100A20000C55C4F80855C4F80C65C4F80C55C4F846
:100A30000855C4F80C65C4F80C55C4F80855C4F83A
:100A40000C65C4F80C55C4F80855C4F80C75C4F806
:100A50000865C4F80C55C4F80855C4F80C65C4F80A
:100A60000C55C4F80855C4F80C65C4F80C55C4F806
:100A70000855C4F80C65C4F80C55C4F80855C4F8FA
:100A80000C65C4F80C55C4F80855C4F80C65C4F8D6
:100A90000C55C4F80855C4F80C65C4F80C55C4F8D6
:100AA0000855C4F80865C4F80C55C4F80855C4F8CE
:100AB0000C75C4F80865C4F80C55C4F80855C4F89A
:100AC0000865C4F80C55C4F80855C4F80C65C4F89A
:100AD0000C55C4F80855C4F80C65C4F80C55C4F896
:100AE0000855C4F80865C4F80C55C4F80855C4F88E
:100AF0000865C4F80C55C4F80855C4F80865C4F86E
:100B00000C55C4F80855C4F80865C4F80C55C4F869
:100B10000855C4F80C75C4F80865C4F80C55C4F839
:100B20000855C4F80C65C4F80C55C4F80855C4F849
:100B30000865C4F80C55C4F80855C4F80C65C4F829
:100B40000C55C4F80855C4F80C65C4F80C55C4F825
:100B50000855C4F80C65C4F80C55C4F80855C4F819
:100B60000C65C4F80C55C4F80855C4F80865C4F8F9
:100B70000C55C4F80855C4F80C75C4F80865C4F8D9
:100B80000C55C4F80855C4F80865C4F80C55C4F8E9
:100B90000855C4F80C65C4F80C55C4F80855C4F8D9
:100BA0000C65C4F80C55C4F80855C4F80865C4F8B9
:100BB0000C55C4F80855C4F80C65C4F80C55C4F8B5
:100BC0000855C4F80C65C4F80C55C4F80855C4F8A9
:100BD0000C65C4F80C55C4F80855C4F80C75C4F875
:100BE0000865C4F80C55C4F80855C4F80C65C4F879
:100BF0000C55C4F80855C4F80865C4F80C55C4F879
:100C00000855C4F80C65C4F80C55C4F80855C4F868
:100C10000C65C4F80C55C4F80855C4F80865C4F848
:100C20000C55C4F80855C4F80865C4F80C55C4F848
:100C30000855C4F80C65C4F80C55C4F80855C4F838
:100C40000C75C4F80865C4F80C55C4F80855C4F808
:100C50000C65C4F80C55C4F80855C4F80865C4F808
:100C60000C55C4F80855C4F80C65C4F80C55C4F804
:100C70000855C4F80865C4F80C55C4F80855C4F8FC
:100C80000C65C4F80C55C4F80855C4F80C65C4F8D4
:100C90000C55C4F80855C4F80C65C4F80C55C4F8D4
:100CA0000855C4F80C75C4F80C65C4F80C55C4F8A4
:100CB0000855C4F80C65C4F80C55C4F80855C4F8B8
:100CC0000865C4F80C55C4F80855C4F80865C4F89C
:100CD0000C55C4F80855C4F80865C4F80C55C4F898
:100CE0000855C4F80865C4F80C55C4F80855C4F88C
:100CF0000865C4F80C55C4F80855C4F80865C4F86C
:100D00000C55C4F80855C4F80C75C4F80865C4F847
:100D10000C55C4F80855C4F80865C4F80C55C4F857
:100D20000855C4F80C65C4F80C55C4F80855C4F847
:100D30000865C4F80C55C4F80855C4F80C65C4F827
:100D40000C55C4F80855C4F80C65C4F80C55C4F823
:100D50000855C4F80865C4F80C55C4F80855C4F81B
:100D60000865C4F80C55C4F80855C4F80C75C4F8E7
:100D70000C65C4F80C55C4F80855C4F80C65C4F8E3
:100D80000C55C4F80855C4F80C65C4F80C55C4F8E3
:100D90000855C4F80C65C4F80C55C4F80855C4F8D7
:100DA0000C65C4F80C55C4F80855C4F80C65C4F8B3
:100DB0000C55C4F80855C4F80C65C4F80C55C4F8B3
:100DC0000855C4F80C65C4F80C55C4F80855C4F8A7
:100DD0000C75C4F80865C4F80C55C4F80855C4F877
:100DE0000865C4F80C55C4F80855C4F80C65C4F877
:100DF0000C55C4F80855C4F80865C4F80C55C4F877
:100E00000855C4F80C65C4F80C55C4F80855C4F866
:100E10000865C4F80C55C4F80855C4F80C65C4F846
:100E20000C55C4F80855C4F80865C4F80C55C4F846
:100E30000855C4F80C75C4F80865C4F80C55C4F816
:100E40000855C4F80C65C4F80C55C4F80855C4F826
:100E50000C65C4F80C55C4F80855C4F80C65C4F802
:100E60000C55C4F80855C4F80C65C4F80C55C4F802
:100E70000855C4F80C65C4F80C55C4F80855C4F8F6
:100E80000C65C4F80C55C4F80855C4F80C65C4F8D2
:100E90000C55C4F80855C4F80C75C4F80865C4F8B6
:100EA0000C55C4F80855C4F80865C4F80C55C4F8C6
:100EB0000855C4F80C65C4F80C55C4F80855C4F8B6
:100EC0000865C4F80C55C4F80855C4F80865C4F89A
:100ED0000C55C4F80855C4F80C65C4F80C55C4F892
:100EE0000855C4F80C65C4F80C55C4F80855C4F886
:100EF0000865C4F80C55C4F80855C4F80C75C4F856
:100F00000865C4F80C55C4F80855C4F80865C4F859
:100F10000C55C4F80855C4F80865C4F80C55C4F855
:100F20000855C4F80865C4F80C55C4F80855C4F849
:100F30000C65C4F80C55C4F80855C4F80C65C4F821
:100F40000C55C4F80855C4F80C65C4F80C55C4F821
:100F50000855C4F80865C4F80C55C4F80855C4F819
:100F60000C75C4F80865C4F80C55C4F80855C4F8E5
:100F70000865C4F80C55C4F80855C4F80C65C4F8E5
:100F80000C55C4F80855C4F80865C4F80C55C4F8E5
:100F90000855C4F80865C4F80C55C4F80855C4F8D9
:100FA0000C65C4F80C55C4F80855C4F80865C4F8B5
:100FB0000C55C4F80855C4F80C65C4F80C55C4F8B1
:100FC0000855C4F80C75C4F80C65C4F80C55C4F881
:100FD0000855C4F80C65C4F80C55C4F80855C4F895
:100FE0000C65C4F80C55C4F80855C4F80865C4F875
:100FF0000C55C4F80855C4F80C65C4F80C55C4F871
:101000000855C4F80C65C4F80C55C4F80855C4F864
:101010000865C4F80C55C4F80855C4F80C65C4F844
:101020000C55C4F80855C4F80C75C4F80865C4F824
:101030000C55C4F80855C4F80865C4F80C55C4F834
:101040000855C4F80C65C4F80C55C4F80855C4F824
:101050000865C4F80C55C4F80855C4F80865C4F808
:101060000C55C4F80855C4F80C65C4F80C55C4F800
:101070000855C4F80865C4F80C55C4F80855C4F8F8
:101080000865C4F80C55C4F80855C4F80C75C4F8C4
:101090000C65C4F80C55C4F80855C4F80865C4F8C4
:1010A0000C55C4F80855C4F80C65C4F80C55C4F8C0
:1010B0000855C4F80C65C4F80C55C4F80855C4F8B4
:1010C0000C65C4F80C55C4F80855C4F80C65C4F890
:1010D0000C55C4F80855C4F80C65C4F80C55C4F890
:1010E0000855C4F80C65C4F80C55C4F80855C4F884
:1010F0000C75C4F80C65C4F80C55C4F80855C4F850
:101100000C65C4F80C55C4F80855C4F80865C4F853
:101110000C55C4F80855C4F80C65C4F80C55C4F84F
:101120000855C4F80C65C4F80C55C4F80855C4F843
:101130000C65C4F80C55C4F80855C4F80C65C4F81F
:101140000C55C4F80855C4F80C65C4F80C55C4F81F
:101150000855C4F80C75C4F80C65C4F80C55C4F8EF
:101160000855C4F80C65C4F80C55C4F80855C4F803
:101170000C65C4F80C55C4F80855C4F80C65C4F8DF
:101180000C55C4F80855C4F80C65C4F80C55C4F8DF
:101190000855C4F80C65C4F80C55C4F80855C4F8D3
:1011A0000865C4F80C55C4F80855C4F80C65C4F8B3
:1011B0000C55C4F80855C4F80C75C4F80865C4F893
:1011C0000C55C4F80855C4F80C65C4F80C55C4F89F
:1011D0000855C4F80C65C4F80C55C4F80855C4F893
:1011E0000C65C4F80C55C4F80855C4F80865C4F873
:1011F0000C55C4F80855C4F80865C4F80C55C4F873
:101200000855C4F80C65C4F80C55C4F80855C4F862
:101210000865C4F80C55C4F80855C4F80C75C4F832
:101220000C65C4F80C55C4F80855C4F80C65C4F82E
:101230000C55C4F80855C4F80C65C4F80C55C4F82E
:101240000855C4F80865C4F80C55C4F80855C4F826
:101250000C65C4F80C55C4F80855C4F80865C4F802
:101260000C55C4F80855C4F80C65C4F80C55C4F8FE
:101270000855C4F80C65C4F80C55C4F80855C4F8F2
:101280000C75C4F80865C4F80C55C4F80855C4F8C2
:101290000C65C4F80C55C4F80855C4F80865C4F8C2
:1012A0000C55C4F80855C4F80C65C4F80C55C4F8BE
:1012B0000855C4F80C65C4F80C55C4F80855C4F8B2
:1012C0000865C4F80C55C4F80855C4F80C65C4F892
:1012D0000C55C4F80855C4F80C65C4F80C55C4F88E
:1012E0000855C4F80C75C4F80865C4F80C55C4F862
:1012F0000855C4F80C65C4F80C55C4F80855C4F872
:101300000865C4F80C55C4F80855C4F80C65C4F851
:101310000C55C4F80855C4F80C65C4F80C55C4F84D
:101320000855C4F80865C4F80C55C4F80855C4F845
:101330000865C4F80C55C4F80855C4F80C65C4F821
:101340000C55C4F80855C4F80C75C4F80865C4F801
:101350000C55C4F80855C4F80C65C4F80C55C4F80D
:101360000855C4F80865C4F80C55C4F80855C4F805
:101370000C65C4F80C55C4F80855C4F80865C4F8E1
:101380000C55C4F80855C4F80865C4F80C55C4F8E1
:101390000855C4F80865C4F80C55C4F80855C4F8D5
:1013A0000865C4F80C55C4F80855FFF70DF9DFF8C7
:1013B000B0E5C4F80C75C446C4F808653046C4F8F6
:1013C0000C552946C4F808552346C4F80C65C4F8E2
:1013D0000C55C4F80855C4F80865C4F80C55C4F891
:1013E0000855C4F80865C4F80C55C4F80855C4F885
:1013F0000C65C4F80C55C4F80855C4F80C65C4F85D
:101400000C55C4F80855C4F80C65C4F80C55C4F85C
:101410000855C4F80C65C4F80C55C4F80855C4F850
:101420000C75C4F80C65C4F80C55C4F80855C4F81C
:101430000C65C4F80C55C4F80855C4F80C65C4F81C
:101440000C55C4F80855C4F80865C4F80C55C4F820
:101450000855C4F80C65C4F80C55C4F80855C4F810
:101460000C65C4F80C55C4F80855C4F80C65C4F8EC
:101470000C55C4F80855C4F80C65C4F80C55C4F8EC
:101480000855C4F80C75C4F80C65C4F80C55C4F8BC
:101490000855C4F80C65C4F80C55C4F80855C4F8D0
:1014A0000C65C4F80C55C4F80855C4F80C65C4F8AC
:1014B0000C55C4F80855C4F80C65C4F80C55C4F8AC
:1014C0000855C4F80C65C4F80C55C4F80855C4F8A0
:1014D0000C65C4F80C55C4F80855C4F80865C4F880
:1014E0000C55C4F808554FEA1C1242F010024FEA9E
:1014F000421818F080084FEA8214C3F80C754FEABE
:10150000C212C3F80805C3F80C15C3F80815C3F8D0
:101510000C05C3F80C15C3F80815C3F80805C3F883
:101520000C15C3F80815C3F80805C3F80C15C3F863
:101530000815C3F80C05C3F80C15C3F80815C3F853
:101540000C05C3F80C15C3F80815C3F80C05C3F84F
:101550000C15C3F80815C3F80C05C3F80C15C3F82F
:101560000815C3F80C75C3F80C05C3F80C15C3F8BF
:101570000815C3F80C05C3F80C15C3F80815C3F813
:101580000C05C3F80C15C3F80815C3F80805C3F813
:101590000C15C3F80815C3F80C05C3F80C15C3F8EF
:1015A00008150CBFC3F80C05C3F8080514F0800932
:1015B000C3F80C15C3F808150CBFC3F80C05C3F825
:1015C000080512F0FF06C3F80C150EF11005C3F85C
:1015D000081574460CBFC3F80C05C3F80805C3F81A
:1015E0000C15C3F80815C3F80C75C3F80C05C3F83F
:1015F0000C15C3F80815C3F80C05C3F80C15C3F88F
:101600000815C3F80C05C3F80C15C3F80815C3F882
:101610000C05C3F80C15C3F80815C3F80C05C3F87E
:101620000C15C3F80815C3F80C05C3F80C15C3F85E
:101630000815C3F80C05C3F80C15C3F80815C3F852
:101640000805C3F80C15C3F8081514F8012BC3F8E6
:10165000087512F0800F0CBFC3F80C05C3F808051D
:1016600012F0400FC3F80C15C3F808150CBFC3F8EF
:101670000C05C3F8080512F0200FC3F80C15C3F8C9
:1016800008150CBFC3F80C05C3F8080512F0100FBD
:10169000C3F80C15C3F808150CBFC3F80C05C3F844
:1016A000080512F0080FC3F80C15C3F808150CBF95
:1016B000C3F80C05C3F8080512F0040FC3F80C15A5
:1016C000C3F808150CBFC3F80C05C3F8080512F0E1
:1016D000020FC3F80C15C3F808150CBFC3F80C05AE
:1016E000C3F80805D207C3F80C15C3F8081500F1B4
:1016F0001681A542C3F80C05C3F80C15C3F80815EC
:10170000A3D1C3F80C75C3F80805C3F80C15C3F8CA
:101710000815C3F80C05C3F80C15C3F80815C3F871
:101720000805C3F80C15C3F80815C3F80805C3F875
:101730000C15C3F80815C3F80C05C3F80C15C3F84D
:101740000815C3F80C05C3F80C15C3F80815C3F841
:101750000C05C3F80C15C3F80815C3F80805C3F841
:101760000C15C3F80815C3F80C75C3F80C05C3F8BD
:101770000C15C3F80815C3F80C05C3F80C15C3F80D
:101780000815C3F80C05C3F80C15C3F80815C3F801
:101790000805C3F80C15C3F80815C3F80C05C3F801
:1017A0000C15C3F80815B8F1000F40F0C280C3F85B
:1017B0000C05C3F80C15C3F80815B9F1000F40F07B
:1017C000C280C3F80C05C3F80C15C3F80815002E29
:1017D00040F0C280C3F80C05C3F80C150EF10F04DD
:1017E000C3F808150EF11F05C3F80C75C3F80C05F6
:1017F000C3F80C15C3F80815C3F80C05C3F80C158D
:10180000C3F80815C3F80C05C3F80C15C3F8081580
:10181000C3F80C05C3F80C15C3F80815C3F80C057C
:10182000C3F80C15C3F80815C3F80C05C3F80C155C
:10183000C3F80815C3F80C05C3F80C15C3F8081550
:10184000C3F80805C3F80C15C3F8081514F8012FE0
:10185000C3F80875160654BFC3F80C05C3F808058D
:101860005606C3F80C15C3F8081554BFC3F80C0589
:10187000C3F808059606C3F80C15C3F8081554BF3D
:10188000C3F80C05C3F80805D606C3F80C15C3F851
:10189000081554BFC3F80C05C3F808051607C3F8AC
:1018A0000C15C3F8081554BFC3F80C05C3F8080598
:1018B0005607C3F80C15C3F8081554BFC3F80C0538
:1018C000C3F808059607C3F80C15C3F8081554BFEC
:1018D000C3F80C05C3F80805D207C3F80C15C3F804
:1018E000081513D4AC42C3F80C05C3F80C15C3F8A3
:1018F0000815ABD10CF1100C5FFA8CFCBCF1800F19
:101900000EF1200E7FF4EFADBDE8F883AC42C3F8D2
:101910000805C3F80C15C3F8081597D1EAE7A542E6
:10192000C3F80805C3F80C15C3F808157FF48DAE8D
:10193000E7E6C3F80805C3F80C15C3F80815B9F1B4
:10194000000F3FF43EAFC3F80805C3F80C15C3F809
:101950000815002E3FF43EAFC3F808053CE700BF72
:10196000000000202DE9F04F804689B010780792E2
:101970000691002800F0AC8200234FF00067059329
:101980003A464FF0A0434FF080654FF400062038F0
:10199000B8F1780FC4B200F2E98208F00E0141F00C
:1019A00001014FEA01194FEA181E4FEA411C4FEAA4
:1019B000811A09F080014EF0100E04910CF08001A4
:1019C0004FEA8E1003910AF080014FEA4E1B08F196
:1019D00008084FEACE1E029100F080015FFA88F8F5
:1019E0000BF0800B01915FFA8EFE9DF818C0C3F8D2
:1019F0000C55ACF15001C9B2080654BFC3F80C65D0
:101A0000C3F808654806C3F80C25C3F8082554BF79
:101A1000C3F80C65C3F808658806C3F80C25C3F83D
:101A2000082554BFC3F80C65C3F80865C806C3F899
:101A30000C25C3F8082554BFC3F80C65C3F8086526
:101A40000807C3F80C25C3F8082554BFC3F80C6574
:101A5000C3F808654807C3F80C25C3F8082554BF28
:101A6000C3F80C65C3F808658807C3F80C25C3F8EC
:101A7000082554BFC3F80C65C3F80865C907C3F847
:101A80000C25C3F8082554BFC3F80C65C3F80865D6
:101A9000C3F80C25C3F80825C3F80C55C3F80C652A
:101AA000C3F80C25C3F80825C3F80C65C3F80C254A
:101AB000C3F80825C3F80C65C3F80C25C3F808253E
:101AC000C3F80865C3F80C25C3F80825C3F80C65EE
:101AD000C3F80C25C3F80825BBF1000F40F0558270
:101AE000C3F80C65C3F80C25C3F808250199002933
:101AF00040F03982C3F80C65C3F80C25C3F80825FB
:101B0000BEF1000F40F02C82C3F80C65C3F80C2521
:101B1000C3F80825C3F80C55C3F80C65C3F80C25A9
:101B2000C3F80825C3F80C65C3F80C25C3F80825CD
:101B3000C3F80C65C3F80C25C3F80825C3F80C6579
:101B4000C3F80C25C3F808250499002900F0058284
:101B5000C3F80865C3F80C25C3F8082503990029C4
:101B600040F0F881C3F80C65C3F80C25C3F80825CC
:101B70000299002940F0EB81C3F80C65DF49C3F8F6
:101B80000C254FF0100A04FB0A100831C3F8082591
:101B90001AFB0419C3F80865C3F80C25C3F8082517
:101BA00010F8011BC3F8085511F0800F0CBFC3F8E3
:101BB0000C65C3F8086511F0400FC3F80C25C3F895
:101BC00008250CBFC3F80C65C3F8086511F0200F99
:101BD000C3F80C25C3F808250CBFC3F80C65C3F87F
:101BE000086511F0100FC3F80C25C3F808250CBFC9
:101BF000C3F80C65C3F8086511F0080FC3F80C258D
:101C0000C3F808250CBFC3F80C65C3F8086511F0CC
:101C1000040FC3F80C25C3F808250CBFC3F80C65E6
:101C2000C3F8086511F0020FC3F80C25C3F80825A6
:101C30000CBFC3F80C65C3F80865C907C3F80C25C9
:101C4000C3F8082500F150818145C3F80C65C3F83D
:101C50000C75C3F80875A3D1ACF14F01C9B20806E1
:101C6000C3F80C5554BFC3F80C65C3F808654806A3
:101C7000C3F80C75C3F8087554BFC3F80C65C3F8F6
:101C800008658806C3F80C75C3F8087554BFC3F817
:101C90000C65C3F80865C806C3F80C75C3F8087569
:101CA00054BFC3F80C65C3F808650807C3F80C7582
:101CB000C3F8087554BFC3F80C65C3F80865480736
:101CC000C3F80C75C3F8087554BFC3F80C65C3F8A6
:101CD00008658807C3F80C75C3F8087554BFC3F8C6
:101CE0000C65C3F80865C907C3F80C75C3F8087517
:101CF00054BFC3F80C65C3F80865C3F80C75C3F886
:101D00000875C3F80C55C3F80C65C3F80C75C3F817
:101D10000875C3F80C65C3F80C75C3F80875C3F8EB
:101D20000C65C3F80C75C3F80875C3F80865C3F8EB
:101D30000C75C3F80875C3F80C65C3F80C75C3F8C7
:101D40000875BBF1000F40F0EB80C3F80C65C3F8D9
:101D50000C75C3F808750199002940F0EB80C3F8B1
:101D60000C65C3F80C75C3F80875BEF1000F40F0A0
:101D7000EB80C3F80C65C3F80C75C3F80875C3F89D
:101D80000C55C3F80C65C3F80C75C3F80875C3F897
:101D90000C65C3F80C75C3F80875C3F80C65C3F877
:101DA0000C75C3F80875C3F80C65C3F80C75C3F857
:101DB00008750499002900F0B080C3F80865C3F8DD
:101DC0000C75C3F808750399002940F09980C3F891
:101DD0000C65C3F80C75C3F808750299002940F02A
:101DE0009980C3F80C654549C3F80C750AFB0410CB
:101DF0000F31C3F808750730C3F808651AFB0414DF
:101E0000C3F80C75C3F8087510F8011FC3F808551E
:101E100011F0800F0CBFC3F80C65C3F8086511F012
:101E2000400FC3F80C25C3F808250CBFC3F80C6598
:101E3000C3F8086511F0200FC3F80C25C3F8082576
:101E40000CBFC3F80C65C3F8086511F0100FC3F898
:101E50000C25C3F808250CBFC3F80C65C3F808654A
:101E600011F0080FC3F80C25C3F808250CBFC3F800
:101E70000C65C3F8086511F0040FC3F80C25C3F80E
:101E800008250CBFC3F80C65C3F8086511F0020FF4
:101E9000C3F80C25C3F808250CBFC3F80C65C3F8BC
:101EA0000865C907C3F80C25C3F8082513D4844274
:101EB000C3F80C65C3F80C75C3F80875A4D105996F
:101EC00007980131C9B20591405C00287FF45FADED
:101ED00009B0BDE8F08F8442C3F80865C3F80C75FB
:101EE000C3F8087590D1EAE78145C3F80865C3F8DF
:101EF0000C75C3F808757FF453AEADE6C0A20000C0
:101F0000C3F80865C3F80C75C3F808750299002971
:101F10003FF467AFC3F8086565E7C3F80C654EE7A3
:101F2000C3F80865C3F80C75C3F808750199002952
:101F30003FF415AFC3F80865C3F80C75C3F808750E
:101F4000BEF1000F3FF415AFC3F8086513E7C3F8FF
:101F5000086513E6C3F8086506E6C3F80C65F9E5FD
:101F6000C3F80865D2E5C3F80865C5E506994FF0E2
:101F7000000E01310691CDF804E0F346CDE902EE02
:101F8000CDF810E04FF008082FE5C3F80865A9E583
:101F90004FF0A0430C22C3F8302770474FF0A04306
:101FA000D3F81005C0F30030704700BF0649074A58
:101FB000074B9B1A03DD043BC858D050FBDC00F0F4
:101FC00013F8FEF761F9000010AC000000000020DB
:101FD000A8040020FEE7FEE7FEE7FEE7FEE7FEE7D7
:101FE000FEE7FEE7FEE7FEE730B4904B1B78062BDA
:101FF00020D08F4B1B68062B00F085808D4AD2F8CD
:10200000883043F47003C2F88830BFF34F8FBFF3BA
:102010006F8F4FF01023D3F80022002AC0F2868180
:10202000D3F80432002BC0F28181834B834A1A60BB
:1020300030BC7047824B1B681D07DAD1814B1B688F
:1020400003F0F002302A00F09E8003F0E003402B02
:1020500000F099807B4B1B6803F0F003302B00F0FD
:10206000B980784B1B6803F0F002302A56D003F099
:10207000E003402B52D0734B1B6803F0F003302B6E
:1020800000F0B6806F4B1B6803F0F002302A66D078
:1020900003F0E003402B62D06A4B1B6803F0F003AF
:1020A000302B00F0B580674B1B6803F0F003302B3A
:1020B00079D0644B1B6803F0F003502B00F0E480F0
:1020C000604B1B6803F0F002302A37D003F0E003C6
:1020D000402B33D05B4B1B6803F0F002302A03D057
:1020E00003F0E003402B84D14FF08043D3F8002469
:1020F000D20744BF6FF00102C3F800244C4B1B68A9
:10210000062B7FF47BAF504B1B68062B7FF476AF1A
:102110004E4A136843F4806313606FE74C4B434AA5
:102120001B6812784B49C3F34233062A0B6048D12F
:10213000434B1B6819077FF45CAF9CE7464A3B4B57
:1021400012681B78454902F04F02062B0A607FF4A3
:1021500050AF3B4B1B6819077FF44BAFBAE74FF00A
:1021600080430022C3F80C21C3F81021C3F838259E
:102170002E4B1B78062B7FF43CAF314B1B681B07A3
:102180007FF437AF88E7364B284A1B681278354909
:10219000C3F30423062A0B60EAD1294B1B681C07F2
:1021A0007FF427AF56E7304C204A30491278304848
:1021B000304B0525256001250D6000243F2104607A
:1021C0001960062A7FF415AF1D4B1B681C077FF4AE
:1021D00010AF6EE7154B284A1B7828491160062B73
:1021E0007FF407AF164B1B6818077FF402AF38E780
:1021F00023490E4BCA681B7822F08072062BCA60F6
:102200007FF4F7AE0E4B1B681A077FF4F2AE39E786
:10221000064B1C4A1B780321062B11607FF4E9AEA4
:10222000074B1B681D077FF4E4AE3CE7E00F00F0AE
:102230003001001000ED00E0000400200090D00309
:10224000E40F00F0E80F00F0340100103C170040EC
:10225000440200103C05004058020010E40E00400B
:1022600024030010403501401056004088560040BD
:10227000185600401456004074C007400DF0ADBA27
:10228000F0ED00E0A00500404FF08053404AD3F845
:102290000414C2F82015D3F80814C2F82415D3F892
:1022A0000C14C2F82815D3F81014C2F82C15D3F862
:1022B0001414C2F83015D3F81814C2F83415D3F832
:1022C0001C14C2F84015D3F82014C2F84415D3F8F2
:1022D0002414C2F84815D3F82814C2F84C15D3F8C2
:1022E0002C14C2F85015D3F83014C2F85415D3F892
:1022F0003414C2F86015D3F83814C2F86415D3F852
:102300003C14C2F86815D3F840142248C2F86C1582
:10231000D3F844140378C2F87015062B7FF469AE25
:102320001D4B1B6818077FF464AEC9E61B4B0122E6
:10233000C3F80425D3F80024002AFBD04FF0102363
:1023400015221649C3F80022D1F80034002BFBD027
:102350004FF010221521114BC2F80412D3F80024BB
:10236000002AFBD000220D49C3F80425D1F800341F
:10237000002BFBD0BFF34F8F09490A4BCA6802F408
:10238000E0621343CB60BFF34F8F00BFFDE700BF98
:1023900000C00040E00F00F0E40F00F000E001405A
:1023A00000ED00E00400FA05F0B595B000241546F4
:1023B0000F4608461E4602F07FF838462346089529
:1023C000082205A91A9D09960D950A948DF82C40AE
:1023D0000C9402F0CBF89DF814308DF81140DDE933
:1023E000061003F00302012ACDE9020127D0022AD8
:1023F00004D0384602F064F815B0F0BDBDF81650B0
:10240000C3F3C2038DF81030AD090826082D2C4601
:1024100028BF0824334622460EA9384602F0A6F803
:102420002D1B214608AB02AA0EA8264400F02CFD65
:10243000002DEBD1384602F043F815B0F0BDBDF8E1
:102440001460059DC6F38316C3F3C204B2000EA93F
:10245000384608238DF81040C5F3952502F086F81C
:1024600008AB324628460EA9009302AB00F066FC8A
:10247000384602F025F815B0F0BD00BF014B01222F
:102480001A707047B8050020704700BF00B583B0D0
:10249000044B0093044A4023FFF786FF03B05DF826
:1024A00004FB00BFAD2400007805002038B50E48BD
:1024B0000E4D03780E4CEB5C0025D2B2257053B95B
:1024C0000C3002F083FF58B90A4B1B7813B1237804
:1024D000002BFCD038BD043003F0B0F90028F3D055
:1024E00000F08AFFF0E700BF0404002098120020EB
:1024F000B80500207405002070B51348134A03780E
:10250000D35C88B0DBB90C3002F0FAFE104D0FCD71
:102510006C460FC495E80F0008AD062645F8206DFF
:1025200084E80F0029460022074802F095F808B118
:1025300000F062FF074B00221A7008B070BD043033
:1025400003F014F9E2E700BF040400209812002011
:10255000B8A800007405002070B50D4D0FCD88B0EF
:102560006C460FC495E80F0008AD062645F8206DAF
:1025700084E80F002946074A074802F06DF808B1C1
:1025800000F03AFF054B01221A7008B070BD00BF81
:10259000B8A800007D240000040400207405002079
:1025A00008B5FFF7D9FF0421034800F07DFB034B7A
:1025B00001225A7108BD00BFE4AB000018040020DE
:1025C000F0B5324C85B004F5836001F093FA04F263
:1025D000144001F08FFAD4E9013703EA0702D01C56
:1025E00004EB800114F8200010F0040044D003F143
:1025F000020C0E7806F00306012E654635D0022E39
:1026000002F1030621D004EB86010028F1D104EB8E
:1026100082020133D26801923B4004EB830302F053
:102620000302012ADE6829D0022A23D1BDF8063030
:102630009B090333360C05EB9305154801F066FA48
:1026400000B16560304605B0F0BD4B880CEB9313CC
:1026500007EA0302D11C03F1020C14F821006546BD
:1026600004EB810100F00400CFE70B88C3F3831370
:102670006344EDE70026E0E79D1CC8E7BDF80430A1
:10268000C3F38313360C1D44D7E700BF8C0600202C
:10269000A00A00200B4B0C4810B50022FF21C3F804
:1026A00018249960C3E90022C3F8142483F8202475
:1026B00001F0BEFE044610B9044801F08BFF20462D
:1026C00010BD00BF8C060020F4AB0000F8A800008D
:1026D00021B9124B03EBC00000687047104A0F4944
:1026E000521AD20815D030B40E4D2B88834212D026
:1026F000002303E035F82340844205D001339A4299
:10270000F8D1002030BC704701EBC300006830BC3A
:102710007047104670470846F8E700BFBCAB0000A2
:10272000E4AB0000A8040020094B013903EBC00012
:1027300003290BD8DFE801F00208060402207047E5
:102740004079704700797047042070470020704737
:10275000BCAB00002DE9F843DFF8D8900746002015
:102760008846D9F8084001F091F9D9E90132D9F841
:102770000060134401339B1B012B56D809F21C4502
:102780000121284601F09EF9FFF71AFF014628466D
:1027900001F098F9D9E90132D9F800101344013356
:1027A0005B1A012BECD90A400332052302310020C9
:1027B00049F82230C9F8001001F070F900211C48D6
:1027C00001F076F980F31000731C234009EB8303BA
:1027D00000043440033440EA1740D86019F824302C
:1027E00067F3C50309F8243039F824306FF38913EF
:1027F00029F8243059F8242068F39F221346012138
:1028000061F301036FF3820349F8242009F82430AF
:1028100099F820341BB906E000F00EF818B1D9E998
:1028200000329A42F8D1BDE8F8833146BBE700BFD9
:10283000A80A00208C0600202DE9F047914C0023C7
:1028400084B0C4F81834BFF34F8FD4E9015605EAB9
:102850000602D31C04EB830114F82330580719D562
:1028600027680B7803F00303012B43D0022B03D11D
:102870004B88023505EB931506EA0502D4F81804D7
:10288000D31C04EB830128B9AF4239D914F82330A3
:102890005B07E6D404EB82026B1CD26801923340E2
:1028A00004EB830302F00302DB680293022A05F1C2
:1028B000020700F08980012A26D0D4F810543DB1D7
:1028C0002B6828469B689847EB681D68002DF7D158
:1028D0006D486E4B6E49C01AC008000440F00200FB
:1028E000FFF738FFD4E90030C01A18BF012004B048
:1028F000BDE8F0870B880235C3F383131D44BBE7A3
:10290000676004B0BDE8F087BDF804206148C2F3F9
:102910008313062B28BF062363F389120233990021
:10292000ADF8042001F086FD80460028C5D001F0F6
:10293000C3FD0023082201A9404601F0E3FDBDF8D4
:10294000043013F4707F00F09B806FF0010AAAEB53
:10295000050A082506EA070103312B46042204EB89
:102960008101404601F0CEFDBDF8043007F10109B8
:102970000AEB0902C3F3831393424F4605F10405A2
:10298000E8D8D4F81834002B64D1D4F8105465B1C9
:10299000EB685A7928464146002A57D02B681B68B5
:1029A0009847EB681D68002DF2D1404601F088FD84
:1029B000002001F06BF8D4F818340BB9C4F8049077
:1029C000002001F06BF88DE7BDF8063031484FEA82
:1029D00093194D46502D28BF502565F38F1305F1EF
:1029E0000801ADF8063001F025FD804600283FF4CF
:1029F00064AF26EA070A0AF1010A01F05DFD4FEA19
:102A00008A0A0023082201A9404601F07BFD5545B2
:102A10002BD9EBB2BAF1000F20D006EA0701A3EBE5
:102A20000A03033104EB8101DDB25246082340461C
:102A300001F068FD2A460AF108031749404601F0F3
:102A400061FD09F1030907EB99099AE71D68002D5B
:102A50009ED1AAE7404601F033FD43E72A4608230A
:102A60000D49404601F04EFDEBE706EA0701033150
:102A700004EB81012A460823404601F043FDE0E7CC
:102A8000B9467EE78C060020DCAB0000BCAB000042
:102A900004A90000F4AB0000980600202DE9F047DF
:102AA000DFF8E4A00746002091468846DAF808409F
:102AB00000F0ECFFDAE90132DAF800601344013388
:102AC0009B1B022B5CD80AF21C450121284600F012
:102AD000F9FFFFF775FD0146284600F0F3FFDAE93C
:102AE0000132DAF80010134401335B1A022BECD9DF
:102AF0000A4003320331452300204AF82230CAF845
:102B0000001000F0CBFFB31C23400AEB830300212D
:102B10001C48C3F80C9000F0CBFF80F31000731C2E
:102B200023400AEB830300043440033440EA174097
:102B3000D8601AF8243067F3C5030AF824303AF84D
:102B40002430012161F389132AF824305AF8242013
:102B500068F39F22134661F301036FF382034AF87F
:102B600024200AF824309AF820341BB906E0FFF735
:102B700063FE18B1DAE900329A42F8D1BDE8F08775
:102B80003146B5E7A80A00208C0600202DE9F84F51
:102B90003D4C8046002093469A46A568894600F041
:102BA00075FFD4E90132276813440133DB1B042B82
:102BB00067D804F21C460121304600F083FFFFF77E
:102BC000FFFC0146304600F07DFFD4E90132216868
:102BD000134401335B1A042BEDD90A40033205314B
:102BE000C523002044F82230216000F057FFB81CB4
:102BF000FA1C28402A403B1D2B4004EB800004EBCC
:102C0000820204EB8303C0F80CB00021C2F80CA0D0
:102C10001E480A9ADA6000F04BFF80F310007B1C1C
:102C20002B4004EB830300043D40033540EA184089
:102C3000D86014F8253068F3C50304F8253034F85B
:102C40002530032262F3891324F8253054F8252017
:102C500069F39F221346012161F301036FF382039D
:102C600044F8252004F8253094F820341BB906E0F8
:102C7000FFF7E2FD18B1D4E900329A42F8D1BDE87D
:102C8000F88F3946A9E700BF8C060020A80A00206B
:102C9000044BD3E900239A4201D0FFF7CDBD0020B9
:102CA000704700BF8C06002030B4184DD5F8104492
:102CB00000215CB1E3681A798A4204D116E0DB682E
:102CC0001A798A4212D01B68002BF8D1C368197197
:102CD000D5F8103493B1DA68C36812681A60D5F871
:102CE0001034DB68186030BC0846704701310A298F
:102CF000DFD14FF0FF31084630BC7047C5F81004F3
:102D0000C2681360084630BC704700BF8C060020C4
:102D100038B5094BD3F81044012583F820544CB141
:102D2000E3685D71236820465B689847E3681C6828
:102D3000002CF5D138BD00BF8C0600202DE9F047EE
:102D400084B01D460C9C002394F80C802373EB8800
:102D500081460E461746002B40D1297A05290ED010
:102D60006B7AA88873BB404B53F821A00021FFF772
:102D7000AFFC524603463D49204600F033FF062F84
:102D800009D8DFE807F0046A4249525D330049463A
:102D9000204600F027FF2B7A052B05D06B7A5BB914
:102DA0003349204600F01EFF204600F00FFF84F854
:102DB0000C8004B0BDE8F0872E4A2F49204600F071
:102DC00011FFEDE7FFF7B0FC2C4B2B4953F8202007
:102DD000204600F007FF297AA888C4E7254A009218
:102DE0002749284A204600F0FDFEB6E7D6E9041040
:102DF000D6E900230390D6E902070291CDE9000746
:102E00004946204600F0EEFEC5E74946D6E90023D4
:102E1000204600F0E7FEBEE7B168D6E90023204671
:102E20000091494600F0DEFEB5E7D6E90201D6E999
:102E30000023019100904946204600F0D3FEAAE706
:102E4000D6E90371B068D6E900230291CDE9000705
:102E50004946204600F0C6FE9DE7326849462046B6
:102E600000F0C0FE97E700BF8CA9000080A9000019
:102E700020A2000074A900007CA900001CA9000089
:102E80005CA9000054A90000082900D970472DE969
:102E9000F04F1C4617460023227B237385B0FB8826
:102EA000039206460D46002B7ED1397A05290FD0B4
:102EB0007B7AB888002B6BD13F4B53F821800021DF
:102EC000FFF706FC424603463C49204600F08AFED6
:102ED000DFF808A1DFF808914FF0000808E016F8C5
:102EE000082008F1010800F07DFEB8F1080F0BD0B2
:102EF000454549462046F2D8514608F1010800F000
:102F000071FEB8F1080FF3D12D49DFF8D8A0DFF832
:102F1000D880DFF8D890204600F064FE4FF0000B18
:102F20000EE012F8091011F0970F08BF2E2241464B
:102F300020460BF1010B00F055FEBBF1080F10D03D
:102F40005D4505D916F80B207E2AEAD92E22EEE738
:102F5000514620460BF1010B00F044FEBBF1080F77
:102F6000EED13B7A052B01D07B7A5BB9154920461F
:102F700000F038FE204600F029FE039B237305B0C5
:102F8000BDE8F08F104A1149204600F02BFEEDE716
:102F9000FFF7CAFB0E4B0D4953F82020204600F0E6
:102FA00021FE397AB88887E7074A009209490A4A18
:102FB000204600F017FE78E78CA9000080A90000E9
:102FC0004CA9000020A2000074A900007CA9000008
:102FD0001CA900005CA9000054A9000048A9000039
:102FE00040A9000088A9000050A90000B1AA000073
:102FF000054A4FF0A043105CD3F8043523FA00F0E3
:10300000C04300F001007047FCA90000044B195CAC
:103010004FF0A04201238B40C2F80C35704700BF2F
:10302000FCA90000044B195C4FF0A04201238B4027
:10303000C2F80835704700BFFCA900004FF0A0435C
:1030400010B44FF480204FF400344FF400214FF4BB
:103050008012C3F80845C3F80805C3F80815C3F87B
:1030600008255DF8044B70474FF0A04310B44FF4AF
:1030700080204FF400344FF400214FF48012C3F845
:103080000C45C3F80C05C3F80C15C3F80C255DF806
:10309000044B7047074B4FF0A041185CD1F8043542
:1030A0000122824022EA03001340C1F80805C1F85A
:1030B0000C357047FCA90000054A4FF0A043105C96
:1030C000D3F8103523FA00F0C04300F00100704738
:1030D000F8A900000D2809D00E2809D00F2809D022
:1030E00010280CBF03204FF0FF30704700207047BE
:1030F0000120704702207047C20730B41AD54FF044
:10310000A0430322C3F844274FF40035C3F84827EF
:103110004FF48024C3F84C274FF40021C3F8502704
:103120004FF48012C3F80855C3F80845C3F80815D2
:10313000C3F8082583070AD54FF0A0430C22C3F833
:103140003427C3F83827C3F83C27C3F8402730BCDE
:10315000704700BF434B1978002900F081802DE9AA
:10316000F04F002487B001258E4603E00134E4B21D
:10317000744560D23C4B27B21E6816F837C0ACF1DC
:10318000200205FA02F9394ACCF12003D2E9000104
:1031900025FA03F349EA030905FA0CF800EA0802E4
:1031A00001EA0903134306EBC70BDFD021EA090349
:1031B0002E4920EA08026046C1E9002301F01AFC0A
:1031C00016F837C0ACF1200205FA02F2019201991B
:1031D000CCF12003C6B225FA03F3ACF12002194367
:1031E00006FA02F30393224B0191D3E90023CDE9C0
:1031F000042305FA0CF30093CCF12001039B26FA7B
:1032000001F10B43039306FA0CF30293DDE9046723
:10321000DDE9002316401F4032463B46DDE90267E8
:10322000BB4208BFB24209D00E4B013493F800E014
:10323000E4B274459ED307B0BDE8F08F9BF801104F
:10324000DBF80430A1F10101B1FA81F14909091A51
:10325000B1FA81F14909002BE6D060469847E3E7CF
:10326000704700BF480B0020800B0020780B002027
:10327000700B00202DE9F84F0646244800F0D2FBE1
:10328000D8B9234F0123A6F1200103FA01FBC6F1AF
:103290002002D7E9000123FA02F24BEA020B03FAFB
:1032A00006FA00EA0A0201EA0B03134307D020EAF8
:1032B0000A0421EA0B05C7E90045BDE8F88F30464E
:1032C00001F098FB134ED6E90089C8B148EA0A0319
:1032D00049EA0B049846A146D7E900234BEA0305C7
:1032E0000D4B0A4819684AEA02044B464246C6E9B1
:1032F0000023C7E900450022BDE8F84F00F044BBB9
:1033000028EA0A0829EA0B09E6E700BF500B00206B
:10331000780B0020700B00204C0B0020042A36D9BB
:103320002DE9F04182B00E460546144601F018FA28
:10333000002836D01D491E4A1E4B0D601E481F49ED
:103340001C60167000230022741EC0E90023C1E92E
:103350000023E4B2EEB105EBC404194F083D4FF071
:103360000008032601E0AC4213D0A37820788DF842
:1033700006803A4601A98DF804608DF8053001F009
:10338000F9F9083C0028EED002B0BDE8F081072032
:1033900070470C4A0C48002100F0E4FA02B0BDE886
:1033A000F08101F099F90028C4D0EDE7800B0020EE
:1033B000480B00204C0B0020700B0020780B0020E5
:1033C000753200005531000000AA000070B5084DAC
:1033D0002B785BB1074E00243368012113F83400C9
:1033E00001F0A6FA2B780134A342F5D8002070BD75
:1033F000480B0020800B002000B585B0002303900F
:10340000194601AA44F20100CDE9013300F004F8A5
:1034100005B05DF804FB00BF10B572B6FFF778FC8D
:10342000FFF736FC0028FBD1104B114C1149E41A70
:10343000E408240444F00100FFF78CF90E4B1B68EC
:10344000DB0700D500BE44F002000C49FFF782F90B
:10345000BFF34F8F0A490B4BCA6802F4E062134373
:10346000CB60BFF34F8F00BFFDE700BFBCAB0000D8
:10347000DCAB000004AA0000F0ED00E010AA0000A0
:1034800000ED00E00400FA05F8B5204A204B0024C6
:10349000C2F84041C2F84441C2F84841C2F84C4128
:1034A000C2F80041C2F804411B6833B31949D2F88D
:1034B00004550A68AD1A1A6825F07F45AA422746C6
:1034C0000DD8197CDE69AD1A144419B11F74D3E903
:1034D000052090471EB133461A68AA42F1D90E4919
:1034E0000E4A0B7812789A4208D00D490D4A41F8DD
:1034F00023404FF48013C2F80031F8BD531CDBB2F7
:10350000022B08BF00230B70EFE700BF0010014043
:10351000A40C0020A00C00209D0C00209C0C00207E
:10352000940C002000E100E02DE9F04F8C4A8D4919
:1035300013780978DFF85082994285B0D8F800A056
:1035400000F07B810133DBB2022B08BF00238648E9
:103550001370864A076852F823107B1823F07F43C4
:1035600000240360534626462046A446ABB11A68A1
:103570008A4200F26581DC68C3F800C0891A1044F1
:10358000DA6934B13D1825F07F45C3E90154DE61A5
:103590001E4613460124002BE9D1002C40F07C810B
:1035A00001230093724B734FDFF8E09143F0010366
:1035B000019355464FF0000B46B3D6E901C134469E
:1035C000F669694B6C481A68ACEB020323F07F4341
:1035D000834248D80B44236000220121C4E9012220
:1035E000E2612174002D5DD02A689A424DD22846AE
:1035F00003E00A689A424FD20846C1699B1A002923
:10360000F7D12360E161C461002ED6D17878397892
:10361000884264D00B4603EB43034C1CBA7807EB9B
:10362000C303E1B28A421A79397004BF00213970AC
:10363000022A9C6844D0032A38D0012AE8D1227C8F
:10364000002AE5D1D3F80CC0C4F804C01969A16000
:103650005869E06099F800009B69A3610028B0D028
:1036600062609446ADE7A2EB0C0222F07F428A42F0
:1036700002D28B1A2360AFE700230122C4E9003392
:10368000A360E36122746DB12A68C8F80040D31AC0
:103690002B60E56125468FE7D21A0A602360E1615D
:1036A000C461B1E7C8F80040254685E7002DAFD0DA
:1036B00000232B74ED69002DFBD1C8F80050A5E75D
:1036C0004DB1AC422B4603D1E4E094422FD01346D7
:1036D000DA69002AF9D10023237488429AD1BBF118
:1036E000000F01D1554553D0002D56D1234E244A09
:1036F0001F4C4FF480334FF400310127C2F8801083
:103700003C43C6F848334FF43C60C6F80833776052
:10371000A047154BB7604FF43C601D60A047194BA4
:103720001D70002389F8003005B0BDE8F08FA3427A
:1037300000F09180E0692168D861002800F086805F
:103740002A4603680B440360AA424FF0000339780D
:10375000787823741CBF15464FF0010BBDE700BFFE
:103760009C0C00209D0C0020A00C0020940C00203C
:1037700020AA0000840B0020FEFF7F000010014003
:1037800000E100E0910C0020A40C0020900C00202F
:10379000009B002BC5D0002DA8D0434B434A1C688A
:1037A000D2F80465424FD5F800A03978331B23F0D6
:1037B0007F43DD1CB9B93F493F4B4FF48030C2F81D
:1037C00044034FF00108C2F804034FF40030C1F87D
:1037D000800143F001030860C2F800804FF43C60B0
:1037E000984787F80080AA452CBF04EB0A036319A9
:1037F0002E4923F07F43C1F84035D1F80425921BB0
:103800009B1B22F07F4223F07F4303329A4288D9E8
:10381000294BD1F80425C1F8402543F001034FF4AA
:103820003C609847234B4FF40032C3F8002100233B
:1038300089F8003005B0BDE8F08F00260096B1E6AB
:1038400074BB521A1A6001230093ABE60023397847
:103850007878237441E71946EA69C8F8002092B9DC
:10386000CDE90231114BDFF840C001209860019B87
:1038700089F80000CCF800204FF43C609847DDE95F
:103880000231D8F80020C8690968D86100287FF49F
:1038900058AF59E72946DFE7C8F800309A467FE677
:1038A000C8F800309A46CCE7A00C00200010014078
:1038B000910C002000E100E020AA00002DE9F8436F
:1038C0001F4D204E204FDFF898804FF480334FF487
:1038D00000324FF001090024C6F8802047EA0907AA
:1038E000C5F848334FF43C60C5F80833C5F8049078
:1038F000B847C5F808904FF43C60C8F80040B84796
:10390000124A134B13491C601470134B134A0C706A
:103910000B2114701C8099704FF48012C023C6F8DC
:10392000802186F814333260C5F8084586F81133D3
:10393000D5F80435C8F800302046BDE8F88300BF4C
:103940000010014000E100E020AA0000910C0020DE
:10395000A40C00209C0C0020840B00209D0C002057
:10396000A00C0020074B9B784BB132B128B1036803
:10397000187C20B959745A61704707207047082095
:10398000704700BF840B00202DE9F843224CA37838
:10399000002B35D0002833D0042934D943697BB3B8
:1039A000437C0646012B4FF000000CBF8846804642
:1039B0001746894600F06AF86378A17822785D1C82
:1039C000EDB2A94208BF0025AA421FD003EB430372
:1039D00004EBC3030121114A9E601971D2F804253A
:1039E000DA600020C3E904989F61657000F056F822
:1039F0000B4B4FF48012C3F800210020BDE8F88380
:103A00000820BDE8F8830720BDE8F883002000F017
:103A100045F80420F2E700BF840B002000100140AD
:103A200000E100E070B5174DAB7823B318B34369DC
:103A30000BB3002404740646204600F027F86A7889
:103A4000A8782978531CDBB2984208BF23469942D4
:103A500013D002EB420205EBC2020221966020461F
:103A600011716B7000F01AF8074B4FF48012C3F815
:103A70000021204670BD082070BD204600F00EF8E1
:103A8000042070BD840B002000E100E072B6024A01
:103A90001368013313607047A80C0020034A1368B1
:103AA000013B136003B962B6704700BFA80C002049
:103AB00050E8002F0B4640E8003C9CF0000FF7D187
:103AC0001046704750E8003F03EB010240E8002C2D
:103AD0009CF0000FF6D11046704700BF50E8003F41
:103AE000A3EB010240E8002C9CF0000FF6D1104639
:103AF000704700BF012350E8002F42EA030C40E862
:103B000000C191F0000FF6D160467047002350E8E5
:103B100000CF0CEA030240E8002191F0000FF6D13B
:103B200060467047B8B130B4D0E90112521A046847
:103B3000D2B2531E2160DBB242B101680A685C1E3A
:103B4000551C0D601370E3B2FF2BF6D10368002003
:103B5000187130BC70470E20704700BF38B504465E
:103B60000020FFF793FFD4E900311A688A4215D983
:103B7000511E19602168A3680868258A12F8012C73
:103B8000E4681B1A0879DBB2984205FB024400D2B4
:103B90000B710020FFF782FF204638BD0024F8E7B4
:103BA00038B5054600200C46FFF770FF2A681368F9
:103BB000591C1160E9682A8A641AB4FBF2F41C707B
:103BC0000020BDE83840FFF769BF00BF826842B1FE
:103BD00010B5044643690168006998470023A36053
:103BE00010BD70470EB400B582B0039929B102AA86
:103BF00004AB42F8043D00F0A9F802B05DF804EB14
:103C000003B070472DE9F04F924683B051450F46FF
:103C100005461E46DDE90CB2C0F092800B464FF01F
:103C20000108B3FBFAF39A4508F10108F9D9B04548
:103C300038BFB04612F00109A96802D1BBF1000FEC
:103C400054D1012402E0013E0AFB04F4012EFAD80B
:103C5000B7FBF4F08245F7D93B4E02E0A968B7FB09
:103C6000F4F0335C2A680A2B04FB107702EB010E98
:103C700001F1010029D0A8608EF80030D5E90131AA
:103C8000994202D32846FFF7A1FFB4FBFAF4002CB7
:103C9000E4D1B9F1000F15D0BBF1000F12D0C3452C
:103CA00010D92024AB682A68591CA960D454D5E9DE
:103CB00001329A420BF1FF3B14D2BBF1000F01D04D
:103CC000C345EFD103B0BDE8F08FA8604FF00D0001
:103CD0005054D5E9011088421DD2296801EB000E2D
:103CE0000130C8E72846FFF771FFE6E7930722D4C3
:103CF0002024C345A5D92B684A1CAA605C54D5E989
:103D0000013199420BF1FF3B10D2BBF1000F98D06B
:103D1000C345F0D195E728460193FFF757FFAA68FE
:103D20002968019B501C01EB020EA4E72846FFF70F
:103D30004DFFA968E9E7002E0CBF30242024D8E706
:103D40004FF0010873E700BF28AA0000002900F027
:103D5000B9822DE9F04F054687B091460C460E78A2
:103D6000DFF8C8A64FF00D0B13E0AB6828680A2EE9
:103D700003F1010200EB030100F04B82AA600E7018
:103D8000D5E901329A4280F01B812678002E00F09E
:103D90001E810134002E00F01A81252EE5D1234624
:103DA000002713F8012B2D2A00F0E380302A00F0C1
:103DB000E4802B2A00F0D4802A2A00F00D81A2F1A1
:103DC0003006F1B2092903D97DE2A1F1300603469C
:103DD000184606EB860110F8012BA2F13004092CDD
:103DE00002EB4101F1D92E2A00F002814FF00008C8
:103DF000013301E013F8012B02F0FB0168291C4696
:103E0000F8D0253A532AC0D801A353F822F000BFB6
:103E1000FB4100008B3D00008B3D00008B3D00000E
:103E20008B3D00008B3D00008B3D00008B3D000072
:103E30008B3D00008B3D00008B3D00008B3D000062
:103E40008B3D00008B3D00008B3D00008B3D000052
:103E50008B3D00008B3D00008B3D00008B3D000042
:103E60008B3D00008B3D00008B3D00008B3D000032
:103E70008B3D00008B3D00008B3D00008B3D000022
:103E80008B3D00008B3D00008B3D00008B3D000012
:103E90008B3D00008B3D00008B3D00008B3D000002
:103EA0008B3D00008B3D00008B3D00008B3D0000F2
:103EB0008B3D00008B3D00008B3D00008B3D0000E2
:103EC0008B3D00008B3D00008B3D00008B3D0000D2
:103ED0008B3D00008B3D00008B3D0000DF4100006A
:103EE0008B3D00008B3D00008B3D00008B3D0000B2
:103EF0008B3D00008B3D00008B3D00008B3D0000A2
:103F00008B3D00008B3D0000833F000065410000B9
:103F10008B3D00008B3D00008B3D00008B3D000081
:103F2000654100008B3D00008B3D00008B3D000093
:103F30008B3D00008B3D00008B3D0000CD4000001C
:103F40008B3D00008B3D0000454000008B3D000094
:103F5000294000008B3D00008B3D0000DF41000048
:103F600047F004071C46234613F8012B2D2A7FF443
:103F70001DAF47F001071C46F5E747F002071C4656
:103F8000F1E7D9F800301A1DC9F800201E78AB6897
:103F90000A2E0CD12A68591CA96002F803B0D5E991
:103FA0000123934203D32846FFF710FEAB682A682B
:103FB000591CA960D654D5E901329A42FFF4E5AE06
:103FC0002846FFF703FE2678002E7FF4E2AE2B7B17
:103FD00023BB07B0BDE8F08FD9F80020111DC9F848
:103FE0000010166862782E2A04F102007FF4FEAEFB
:103FF0005A78A2F13003092B00F2BD814FF000087E
:1040000008EB880802EB480810F8012FA2F13003F2
:10401000092BA8F13008F3D90346E9E6284607B092
:10402000BDE8F04FFFF7D2BDD9F800301A1DC9F82E
:10403000002019680197434600960A222846FFF798
:10404000E1FDA2E6D9F800301A1DC9F80020D3F826
:104050000080FB0700F1E880B8F1000F00F0A181BB
:10406000404605F0EDFD0746BE4215D9A6B1202118
:1040700000E08EB1AA682B68501CA8609954D5E95D
:1040800001329A4206F1FF3604D328460391FFF726
:104090009DFD0399BE42ECD108F1FF3818F8016F7D
:1040A000002E3FF472AEAB6828680A2E03F10102BD
:1040B00000EB030100F09081AA600E70D5E9013297
:1040C0009A42EBD32846FFF781FDE7E7D9F80020B5
:1040D000131DC9F80030AB6829681768581C3022D6
:1040E000A860CA54D5E90123934280F0E6802A688B
:1040F000581C7821A860D154D5E90123934280F05F
:10410000D7800F2F03D93A4612090F2AFCD84FF057
:1041100080560DE0AA6081F80080D5E901329A420C
:1041200002D32846FFF752FD36093FF42EAEAB68A6
:10413000B7FBF6F21AF802802868B8F10A0F06FBFE
:10414000127700EB030103F10102E3D1AA6000F84A
:1041500003B0D5E901329A4280F049812B68991861
:104160000132D7E7D9F800301A1DC9F800201968C4
:1041700081EAE173A3EBE173092B40F30E81AA48B6
:104180000122A0FB03C3DB08092B02F10102F8DCCA
:104190004245134638BF4346039307F00203002EFF
:1041A00040F09580002B00F0B780B8F1000F00F0D0
:1041B000F680F80740F1B0800029C0F2FF807A074E
:1041C00000F1C88007F00303022B00F0A780CDE9BF
:1041D000006743460A222846FFF714FDD5E5D9F8C3
:1041E00000301A1DC9F8002019680197434600964F
:1041F00010222846FFF706FDC7E5AB682A68581C61
:104200002521A860D154D5E901329A42FFF4BDAD11
:10421000D6E6AA6000F803B0D5E901329A423FD24F
:10422000296811440132A9E54146A1EB080311F8C0
:10423000017BD7B1AB68D5F800C00A2F03F10102AA
:104240000CEB030000F0AF80AA600770D5E90132E3
:104250009A42EAD328460391FFF7B8FC0399A1EBF1
:10426000080311F8017B002FE4D19E427FF68DAD4B
:10427000202702E0002E3FF488ADA9682A68481C78
:10428000A8605754D5E90121914206F1FF3604D3C5
:1042900028460393FFF79AFC039BB342EAD174E5E7
:1042A0002846FFF793FCAB6829685A1C194465E55A
:1042B0002846FFF78BFCAB6823E72846FFF786FC10
:1042C000AB6814E770471846002623468BE50029A3
:1042D00020DB7A071ED41BB1B8F1000F3FF46CAF9E
:1042E000F8073FF569AFBEB1039BB342BFF464AFBB
:1042F0002023AA68501CA86028688354D5E90102CD
:10430000824206F1FF3640D236B1039AB242F0D172
:10431000164651E7013EDEE700264DE7B8F1000FF3
:104320007FF455AF002E6AD0039BB342BFF44FAF6A
:104330003023AA68501CA86028688354D5E901027C
:10434000824206F1FF3618D2002E58D0039AB242AC
:10435000EFD13CE7AA68531CAB602B682B20985424
:10436000D5E901329A42FFF42DAF28460491FFF7B8
:104370002DFC049926E7034638E52846CDE90413C9
:10438000FFF724FCDDE90413DEE72846CDE904133A
:10439000FFF71CFCDDE90413B6E70122F8E6464608
:1043A0000AE7474660E6AA600CF803B0D5E9013297
:1043B0009A4226D22B689818013245E7AA68531C06
:1043C000AB602B682D209854D5E901329A42C1F197
:1043D0000001FFF4F7AEC8E7AA6000F803B0D5E922
:1043E00001329A4217D229681144013264E6284604
:1043F000FFF7ECFBA9682B684A1C19448AE60026E3
:10440000E5E628460391FFF7E1FBA8682B680399CE
:10441000421C184418E72846FFF7D8FBAB68296808
:104420005A1C194448E600BFCDCCCCCC28AA0000C9
:10443000FFF778BB2DE9F041058ACE1C043D2E44E0
:104440000746B6FBF5F6FFF789FB78B3F6B24FF4F3
:104450008073013E0446C5800760838027D0804674
:10446000002509E06379AE4203F101036371C8F8E6
:104470000000076080461AD03846FFF76FFB013511
:104480000028EFD16679721E14D023460130824293
:104490001B68FBD11F684EB10025236821460135FA
:1044A00038461C46FFF77CFBAE42F6D1002420467E
:1044B000BDE8F0812768EFE704300121FFF702BB78
:1044C000F8B5012104460430FFF708FBC0B200B183
:1044D000F8BD6679721E12D02346013082421B68F5
:1044E000FBD11F68002EF3D000252368214601353B
:1044F00038461C46FFF754FBAE42F6D1F8BD27689C
:10450000F2E700BF2DE9F843C788467907FB06F6B6
:10451000043E02EB030C0446664503F10400154615
:104520008846B0FBF7F238BFF51A07FB120012B14C
:10453000013A2468FCD13E1AAE4228BF2E469DB1F6
:104540004FF000090430AD1B2044324608EB09014E
:1045500005F080FAAF42B14424683E464FF00000B7
:1045600028BF2E46002DEDD1BDE8F8832DE9F84394
:10457000C7884679154607FB06F6043E05EB030C93
:104580001A1D664504468846B2FBF7F038BFF51A97
:1045900007FB102110B101382468FCD17E1AAE420D
:1045A00028BF2E469DB14FF0000904312144AD1BB8
:1045B000324608EB090005F04DFAAF42B1442468D9
:1045C0003E464FF0000128BF2E46002DEDD1BDE83C
:1045D000F88300BF82680023936082681361826859
:1045E00053618268D3608268536082681360704749
:1045F00030B585B0047845688DF80040D0E90240B8
:10460000064A074B039053F8213001958DF8084076
:1046100052F821106846984705B030BDAC0C002018
:10462000B00C002030B585B0047845688DF80040A6
:10463000D0E90240064A074B039053F82130019518
:104640008DF8084052F821106846984705B030BDF3
:10465000AC0C0020B00C0020F0B51A4B06781A4DB7
:104660000C6991F81DE045F826400746174803F805
:1046700006E040F826200C4694460FCC89B06D46E3
:104680000FC594E80F0085E80F000496BEF1000FF7
:104690000BD0BCF1000F0E4A694607F1040008BFB9
:1046A000002200F087FF09B0F0BDBCF1000F094AFD
:1046B000694607F10C0008BF002200F057FD09B061
:1046C000F0BD00BF98120020AC0C0020B00C002000
:1046D000F14500002546000030B51D4C94F85850B7
:1046E00083B095BB4FF0FF332946042204F15400F8
:1046F000C4E90033C4E90233C4E90433C4E906332E
:10470000C4E90833C4E90A33C4E90C33C4E90E33FD
:10471000C4E91033C4E91233236505F035FA0D4AB4
:104720000D4B0E491D60C02082F80603402010602A
:104730001B68019301984FF000430122284684F83A
:104740005820C1F8043303B030BD082003B030BD99
:10475000B40C002000E100E07C61004000600040FB
:10476000034B93F85800003018BF0120704700BF7A
:10477000B40C0020F0B56C4B1C1894F93050002D8F
:1047800068DA8E78C6F340069646002E5CD11D6A24
:10479000013500F0B58009240C2553F82470013749
:1047A0005BD004F1010C53F82C70013700F0B3809A
:1047B000A71CAF4246D253F82720013200F0AD804B
:1047C00004F1030CAC453DD253F82C70013700F0D6
:1047D000A28004F1040CAC4534D253F82C7001379C
:1047E00000F0998004F1050CAC452BD253F82C70E5
:1047F000013700F0908004F1060CAC4522D253F84A
:104800002C70013700F0878004F1070CAC4519D2F9
:1048100053F82C7001377ED004F1080CAC4511D24E
:1048200053F82C70013776D004F1090CAC4509D24D
:1048300053F82C7001376ED00A34AC4202D2DC6AD5
:10484000013409D00420F0BD1D68013567D0012472
:104850000825A2E70820F0BD0B241F1865B243F815
:1048600024E087F83050002E51D08A78540714D4B1
:10487000D6073BD44C784FF0A04600F5E072A40078
:1048800046F82240294EC40800F0070C375D01228B
:1048900002FA0CF23A4332558A780C7812F002028E
:1048A00009D1083D2B44104693F8502042EA841465
:1048B00083F85040F0BDAB0003F1804303F5C043E3
:1048C0000202D3F8101521F4473121F44071C3F8E6
:1048D00010152404D3F8101504F4403402F4F852EF
:1048E00022430A43C3F810250020F0BD820002F1E4
:1048F000A042D2F8004724F00204C2F80047C1E702
:10490000082684F83060C3F820E0354634461C445D
:1049100084F84800A9E764469FE73C469DE70025E8
:104920001A6084F83050A0E7B40C0020080D002075
:1049300070B42E4D2E1883B096F93030072B1CDD45
:104940002B4493F848309B09032B41D0012B14BF13
:104950004FF440314FF40031800000F1A040D0F816
:10496000002722F44032C0F80027D0F800370B436C
:10497000C0F8003703B070BC7047DAB2072AF9D824
:10498000980000F1804000F5C04003F14002D0F8EB
:104990001045920092B244F0010402F18042C0F846
:1049A000104502F5C04200200190019C10600029D2
:1049B000E0D096F9302055F82220002ADAD00122E2
:1049C0000B4902FA03F3C1F8043303B070BC70471B
:1049D0004FF0A043D3F81035C34013F0010F0CBFC4
:1049E0004FF400314FF44031B6E700BFB40C002063
:1049F000006000404FF0A043D3F8103523FA00F0D8
:104A000000F00100704700BF2DE9F04186B000239F
:104A1000A14A01931668012E00F054811E469F4B57
:104A20001A68012A00F05D819D4B1A68012A00F086
:104A30006A819C4B1A68012A00F077819A4B1A68A8
:104A4000012A00F08481994B1A68012A00F09181B3
:104A5000974B1A68012A00F09E81964B1A68012A2A
:104A60000CD0954B1B68012B00F0A58116F0FF0FB1
:104A700015D1002E30DB06B0BDE8F0818F4AD2F8A8
:104A800004231706EDD500221A601A6804926033D9
:104A9000049A1B68012B46F0800600F08C81884F39
:104AA00000240125A30003F18043354203F5C043F0
:104AB0004FEA45050BD0D3F8100557F82420D3F85A
:104AC0001015C0F30420C1F3014102B19047013435
:104AD000082CE7D1002ECEDA00224FF0FF33CDE9CB
:104AE0000223774C012602AF94F950305D1C2CD084
:104AF000DBB223F0C00006AA4FEAD00C02EB0C0E8A
:104B000003F007021EF80C1C06FA02F211421CD038
:104B10002518990995F9303054F82330002B00F00E
:104B20009881032900F098814FEA800C0CF1A04C89
:104B30001EF8145CDCF800E71540CEF3014E40F09F
:104B40005C81BEF1030F00F0DE81002594F9513045
:104B5000581C2DD0DBB223F0C00006AA4FEAD008C3
:104B600002EB080E03F007011EF80C2C06FA01FCFC
:104B700012EA0C0F1CD02218990992F9303054F81F
:104B80002330002B00F05B81032900F05B81820061
:104B900002F1A0421EF8148CD2F800E718EA0C0FBC
:104BA000CEF3014E40F03681BEF1030F00F0A68136
:104BB00094F95230591C2DD0DBB223F0C00006AA64
:104BC0004FEAD00802EB080E03F007011EF80C2C88
:104BD00006FA01FC12EA0C0F1CD02218990992F96E
:104BE000303054F82330002B00F03C81032900F0D2
:104BF0003C81820002F1A0421EF8148CD2F800E73A
:104C000018EA0C0FCEF3014E40F0E380BEF1030F23
:104C100000F06E8194F953305A1C2DD0DBB223F092
:104C2000C00006AA4FEAD00802EB080E03F0070105
:104C30001EF80C2C06FA01FC12EA0C0F1CD02218EC
:104C4000990992F9303054F82330002B00F0ED80B0
:104C5000032900F0ED80820002F1A0421EF8148CBE
:104C6000D2F800E718EA0C0FCEF3014E40F0BC80FA
:104C7000BEF1030F00F00081002D3FF4FCAE4FF0B9
:104C8000A043019AD3F8103593423FF4F4AE029A50
:104C90000193039228E700BF0061004004610040D7
:104CA000086100400C610040106100401461004048
:104CB000186100401C6100407C61004000600040C1
:104CC000B40C00209A49D1F8041311F0010170D0FE
:104CD000136013680493049B964B1A68012A7FF4AF
:104CE000A3AE934AD2F8042397077FF59DAE002226
:104CF0001A601B680493049B8F4B1A68012A46F0C4
:104D000002067FF496AE8A4AD2F8042355077FF54F
:104D100090AE00221A601B680493049B874B1A68AC
:104D2000012A46F004067FF489AE814AD2F80423B2
:104D300014077FF583AE00221A601B680493049B5E
:104D40007F4B1A68012A46F008067FF47CAE784A49
:104D5000D2F80423D0067FF576AE00221A601B68D5
:104D60000493049B774B1A68012A46F010067FF4DF
:104D70006FAE6F4AD2F8042391067FF569AE002228
:104D80001A601B680493049B6F4B1A68012A46F053
:104D900020067FF462AE664AD2F8042352067FF5FD
:104DA0005CAE00221A601B680493049B46F0400628
:104DB00053E60E4633E6654B00221A601B680593E6
:104DC0004FF0A043059AD3F81035019346F0004602
:104DD0004CE6BEF1020F7FF41DAF032963D0002B18
:104DE0003FF418AF984715E7BEF1020F7FF444AFC8
:104DF000032969D0002B54D13EE7BEF1020F7FF4A6
:104E0000A4AE032900F091800025002B3FF49EAE54
:104E100098479BE6BEF1020F7FF4CAAE032956D035
:104E2000002B3FF4C5AE9847C2E603297FF424AFB8
:104E300017F8082042EA0C0207F808200BE70329BC
:104E40007FF4B6AE17F8082042EA0C0207F80820F3
:104E50009DE603297FF479AE17F80C50154307F847
:104E60000C5061E603297FF4D5AE17F8082042EA1A
:104E70000C0207F80820BCE60329BBD14FF4003E22
:104E8000D2F800C72CF4403CC2F800C7D2F800C7E3
:104E900001354CEA0E0CEDB2C2F800C7002B3FF40E
:104EA000EEAE9847E8E64FF4403ED2F800C72CF447
:104EB000403CC2F800C7D2F800C701354CEA0E0CDE
:104EC000EDB2C2F800C78AE74FF4403ED8E74FF48E
:104ED000403ED2F800C72CF4403CC2F800C7D2F8DC
:104EE00000C701354CEA0E0CEDB2C2F800C797E7D7
:104EF00003297FF474AF4FF4003ED6E703298FD126
:104F00004FF4003EE5E703297FF47FAF4FF400350F
:104F1000DCF8002722F44032CCF80027DCF8002728
:104F20002A43CCF8002701256FE74FF44035EFE71F
:104F30000060004004610040086100400C610040D6
:104F40001061004014610040186100407C61004025
:104F5000014B1B68184700BF100D002038B50C4BE3
:104F6000984201D0002038BD00200D46FEF78EFD8E
:104F7000084B1C7924B10020FEF790FD112038BDAC
:104F8000012220461D601A71FEF788FD204638BDBB
:104F900000200040100D0020034B984203D1034B2A
:104FA00000221A601A71704700200040100D002086
:104FB00030B56C4AD2F8043399058BB066D5D2F877
:104FC0002431002B62D00023C2F82431D2F82431DE
:104FD00003934FF40171644B0398C2F8081393F8DC
:104FE000291009B9012151605E4902228DF818206B
:104FF000D1F88024C1F880249869D96809920022E8
:10500000CDE90710C3E90622D3E9001406A8A0479A
:10501000544AD2F81C31BBB1534B186A59698842C3
:1050200069D350480022C0F81C21D0F81C0101901F
:10503000019849B198688DF8182008915A61079035
:10504000D3E9001206A89047464AD2F84431DBB1B2
:105050000021454BC2F84411D2F8440193F82910BD
:105060000090009809B1012111609A6962B1002293
:10507000586AD9689A610122CDE907108DF8182085
:1050800006A8D3E9001290470BB030BD354AD2F8DC
:1050900004335B07BCD5D2F80831002BB8D0324BB3
:1050A000996900293CD00021C2F80811D2F80811F2
:1050B00004910499D868596AD2F8182542545A6A5A
:1050C000996901325A625A6A8A42A1D1DA69196829
:1050D000002A2ED0D8685D6A1C699A610790002268
:1050E0000120DC60DA615A628DF8180008955B686F
:1050F00006A898478CE793F8280000F0FF040028E2
:105100008FD1C2F81C41D2F81C11029102999C68FF
:10511000186A196A205C01311962C2F81C0593E70C
:10512000C2F80811D2F8080105900598D2F81825A0
:10513000C9E793F8292012B90A4A01205060094AA8
:105140004FF40170C2F80803586ADA680890002426
:10515000012007928DF818005A689C6106A89047B4
:1051600056E700BF00200040180D00202DE9F04157
:105170005E4F06792C2505FB067582B095F82A301E
:10518000002B40F087800D46044659490068904640
:10519000FFF7E4FE002879D12B68591C0CD00122BE
:1051A0004FF0A04102FA03F3C1F808352B6803F56C
:1051B000E073032241F823206B685A1C06D003F5E4
:1051C000E0734FF0A042002142F823102368AA693F
:1051D000C3F82425297D6B7D22680B43C2F86C350A
:1051E000D5E900122368C3F81425C3F80C152B7DEC
:1051F000012B53D02C2303FB06F3FA18C2F80480CA
:105200002A69FA50B8F1000F2DD022682B7F394D52
:105210000021C2F81C11D2F81C2100922268DDF88E
:1052200000C0C2F84411D2F84411226801910199DA
:10523000C2F804532168090B4AB25B01002ADBB2B1
:105240004EDB02F1604202F5614282F800332368CE
:10525000294D1B0B5AB2520903F01F03012101FA19
:1052600003F345F822302C23246803FB0673002245
:1052700004250121C4F8005583F82A10C3E9062249
:1052800083F829205A6102B0BDE8F081112002B0F4
:10529000BDE8F081082002B0BDE8F081AB68591C80
:1052A00006D003F5E0734FF0A042002142F823102E
:1052B000EB685A1C0DD001224FF0A04102FA03F313
:1052C000C1F80835EB6803F5E073032241F82320A9
:1052D000EB682268A968C2F80835C2F8101589E79A
:1052E000064A01F00F010A441376B0E7180D0020BA
:1052F000B14F00008000020000E100E0FCEC00E0A3
:10530000F8B52F4D047902682C2303FB04530021C8
:105310005B68C2F8001583B103682A4AC3F8082302
:105320000368294E1B0B5AB25209203203F01F03A7
:10533000012101FA03F346F8223003684FF0FF32EF
:10534000D3F80CC5D3F81475D3F80815D3F8106545
:10535000C3F81425C3F80C2503689445C3F8082541
:10536000C3F8102506D00CF5E07C4FF0A0430222D4
:1053700043F82C207B1C06D007F5E0774FF0A043C4
:10538000022243F82720721C06D006F5E0764FF083
:10539000A043022243F826204B1C06D001F5E07101
:1053A0004FF0A043022243F821200068FFF7F4FDEC
:1053B0002C2303FB0454002384F82A306360F8BDD7
:1053C000180D00208402020000E100E0F0B5314E2B
:1053D00005792C2303FB056385B05C69002C53D150
:1053E0001C62996083F828405A610268C2F81C4127
:1053F000D2F81C11026802910121029F916002689B
:10540000D3F808C0C2F81C41D2F81C1101910199CF
:10541000D3F820E0196A5F681CF80EE001311962C8
:10542000C2F81CE517B1204605B0F0BD1A6A5C69E8
:105430000168944203D819E093F828203ABBD1F8C8
:105440001C21002AF8D0C1F81C71D1F81C2103924C
:10545000039AD3F820E01A6A1CF80EE001321A62AF
:10546000C1F81CE51A6AA242E9D30168D1F81C31DF
:10547000002BFBD00123CB6000202C2303FB056510
:1054800000236B6105B0F0BD112005B0F0BD0F2009
:10549000F3E700BF180D0020F0B5444BD3F82421EA
:1054A00089B0002A52D00021C3F82411D3F8242156
:1054B000029202228DF81020029AD3F880043C4A0E
:1054C000C3F880040790D3F83C05D3680690C2E97E
:1054D000061105931168536804A89847334BD3F815
:1054E0004421BAB10021324AC3F84411D3F84441EF
:1054F00090690194019C68B1D3F83C35D06806935B
:105500000123C2E9061105908DF8103004A8D2E9F4
:1055100000139847254BD3F82021AAB10021C3F8E6
:105520002011D3F82001224A00900098506958B108
:10553000D3F84C05936806908DF8101051610593CF
:1055400004A8D2E90013984709B0F0BDD3F81011B0
:105550000029C3D0C3F81021D3F8101114480391C7
:1055600003998169D3F83C458C42B7D1C569C768B6
:10557000D0E900168DB1D3F800C285612CF020056A
:10558000C261C3F800520369C3600122CDE905740A
:105590008DF8102004A8B047A0E701238561CDE96C
:1055A00005748DF8103004A8B04797E7002000403C
:1055B000440D00202DE9F0430779674E4FEAC708F4
:1055C00008EB070306EB830385B093F82030002B2C
:1055D00040F096800D460446604900689146FFF70A
:1055E000BDFC002840F088802B68591C0CD001229B
:1055F0004FF0A04102FA03F3C1F808352B6803F518
:10560000E073032241F823206B685A1C06D003F58F
:10561000E0734FF0A042002142F823102368AA69EA
:10562000C3F82425297D6A7D23680A43C3F86C25C5
:10563000D5E900312268C2F80C35C2F814152B7D6B
:10564000012B61D008EB07029200B318C3F8049055
:105650002B69B350B9F1000F3DD021682B7F404D2D
:105660000022C1F81021D1F8101100912168DDF855
:1056700000C0C1F82021D1F8201101912168DDF886
:1056800004C0C1F82421D1F8241102912168DDF869
:1056900008C0C1F84421D1F844112268039103994C
:1056A000C2F804532168090B4AB25B01002ADBB23D
:1056B0004CDB02F1604202F5614282F8003323685C
:1056C000284D1B0B5AB2520903F01F03012101FAA6
:1056D00003F345F822304744226806EB870600238F
:1056E00001240821C2F8001586F82040C6E90633D7
:1056F000736105B0BDE8F083112005B0BDE8F0830B
:10570000082005B0BDE8F083AB68591C06D003F54E
:10571000E0734FF0A042002142F82310EB685A1CBE
:105720000DD001224FF0A04102FA03F3C1F8083571
:10573000EB6803F5E073032241F82320EB6822684D
:10574000A968C2F80835C2F810157BE7064A01F0CF
:105750000F010A441376B2E7440D0020995400006B
:105760001003020000E100E0FCEC00E0F8B506796F
:105770002F4C0268F500AB1904EB830300215B6832
:10578000C2F8001583B103682A4AC3F808230368E6
:10579000294F1B0B5AB25209203203F01F0301217B
:1057A00001FA03F347F8223003684FF0FF32D3F8D1
:1057B0000CE5D3F814C5D3F80815D3F81075C3F861
:1057C0000C25C3F8142503689645C3F80825C3F8CB
:1057D000102506D00EF5E07E4FF0A043022243F8DC
:1057E0002E20BCF1FF3F06D00CF5E07C4FF0A0432B
:1057F000022243F82C207A1C06D007F5E0774FF000
:10580000A043022243F827204B1C06D001F5E0718B
:105810004FF0A043022243F82120354404EB8504D5
:105820000068FFF7B9FB002384F820306360F8BDFF
:10583000440D00201003020000E100E001F060438D
:10584000B3F1005F2CD1F0B40579244EEF007C1940
:1058500006EB840482B0636923BB6261A1600268C5
:10586000C2F82031D2F820C10268CDF804C0DDF8BA
:1058700004C0C2F85831D2F8582100920268DDF80D
:1058800000C0D4F814C0C2F84415C2F848C5026874
:105890000121916062684AB1184602B0F0BC7047BD
:1058A00010207047112002B0F0BC7047036800E080
:1058B0008AB9D3F82011D3F858210029F8D0002A4A
:1058C00014BF0F2000207B1906EB830300225A61CE
:1058D00002B0F0BC70470F20F5E700BF440D002078
:1058E0000220FDF7D7BB00BF2DE9F0470D46064665
:1058F000FDF7F0FB03281ED8012D04461DD00ED362
:10590000022D18D11B4B00EB40041C44657895B167
:10591000194B1B687BB12846BDE8F047184717486C
:10592000FEF780F8134B164A04EB44010B44125D5A
:105930009D78AA42EBD0BDE8F0870E4F4FEA4008B1
:1059400008EB0003FA18FD5C53782BB9A0444744D8
:105950000B4BBA781A55DAE7DFF8289007484A4621
:105960004FF40041FEF710F80028EFD189F80060ED
:10597000ECE700BFCC0D0020E00D00208C0D0020D6
:10598000E80D0020680D002010B50078FDF7A2FB9F
:1059900003280BD8064B00EB40001844407828B190
:1059A000044B1B6813B1BDE81040184710BD00BF81
:1059B000CC0D0020E00D0020B44B1B68DB0700D4A9
:1059C000704770B5B24DB34E2B7834786BB1B24B93
:1059D0001B7800202870002B4BD0FDF723FB012003
:1059E000FDF720FB0320FDF71DFB172C40D8DFE857
:1059F00014F0B600F400F400DC000801CA00130142
:105A0000EE005000430050004300610018001800F1
:105A1000180018001800660077008B009F005D00DA
:105A20005D009E48FDF7FEFFD4F11104054600F02D
:105A30000081002840F0FD80012C13D0C82303FB17
:105A400004F44FF4FA704FF400430021C3FB040147
:105A50004FF47A72002304F007FA2A4601468F4871
:105A6000FDF792FF0220FDF7D1FA8B4B01221A704D
:105A700070BDFDF7E3FAB8E7012318462B70FDF778
:105A800009FB00224FF480418548BDE87040FDF7D6
:105A90007BBF012318462B70FDF7FCFA002240F66D
:105AA000CD417F48BDE87040FDF76EBFFDF7DCFAE1
:105AB000347070BDFDF7D8FA0C23337070BD764B8F
:105AC0001B78002B00F0BF800020FDF7ABFA01200F
:105AD000FDF7A8FA0320FDF7A5FA1223337070BD75
