:1000000000000120750300005D0300005F03000095
:1000100061030000630300006503000000000000AE
:100020000000000000000000000000006703000066
:1000300069030000000000006B0300006D03000076
:100040006F030000899A0000F14A00006F0300006E
:100050006F0300006F030000114800006F030000F1
:1000600071B100006F0300006F0300006F03000018
:100070006F0300006F0300006F0300006F030000B8
:100080006F030000DD2A00006F0300006F03000013
:100090001D2B00004DA400006F0300006F03000043
:1000A0006F0300006F0300006F0300006F03000088
:1000B0006F0300006F03000000000000000000005C
:1000C0006F0300006F0300006F0300006F03000068
:1000D0006F0300006F0300006F03000000000000CA
:1000E0000000000000000000000000000000000010
:1000F0000000000000000000000000000000000000
:1001000000000000000000000000000000000000EF
:1001100000000000000000000000000000000000DF
:1001200000000000000000000000000000000000CF
:1001300000000000000000000000000000000000BF
:1001400000000000000000000000000000000000AF
:10015000000000000000000000000000000000009F
:10016000000000000000000000000000000000008F
:10017000000000000000000000000000000000007F
:10018000000000000000000000000000000000006F
:10019000000000000000000000000000000000005F
:1001A000000000000000000000000000000000004F
:1001B000000000000000000000000000000000003F
:1001C000000000000000000000000000000000002F
:1001D000000000000000000000000000000000001F
:1001E000000000000000000000000000000000000F
:1001F00000000000000000000000000000000000FF
:10020000354936480A1A02D0072291438D463449AF
:1002100034480A1A06D00722914381F30988022242
:1002200082F3148830483149314A00F044F83148AB
:100230003149324A00F03FF831483249324A00F041
:100240003AF832483249334A00F035F832483349F7
:10025000334A00F030F833483349344A00F02BF881
:1002600033483449344A00F026F8344834490022EF
:1002700000F02CF833483449002200F027F83348C6
:100280003349091A082902DB002202604160314A21
:1002900090471F481F49884205D00268043003B4C4
:1002A000904703BCF7E700208646EC46002000217B
:1002B000294A9047FEE7884207D0521A05D00378B2
:1002C00001300B700131013AF9D17047884202D0F8
:1002D00002700130FAE770470000012000E00020C2
:1002E000000001200000012074C600000000002072
:1002F00088000020D4030000D403000082B4000072
:1003000074C600000000002000000020D0B40000EF
:10031000D0B40000D0B40000D0B40000D0B40000CD
:10032000D0B40000D0B40000D0B4000074C6000007
:10033000FCC6000088000020880000208800002003
:10034000E70D0020E80D0020E80D0020E80D00205A
:10035000E82D00209D030000916D0000FEE7FEE700
:10036000FEE7FEE7FEE7FEE7FEE7FEE7FEE7FEE765
:10037000704700BF1048804710484FF0070188437E
:1003800085460F4880470F48016841F470010160BD
:10039000BFF34F8FBFF36F8FFFF732BF0A480B4990
:1003A0000B4A884207D0521A05D0037801300B70EF
:1003B0000131013AF9D170477103000000000120BA
:1003C000E16F000088ED00E0D0B4000000000020E4
:0403D0000000002009
:1003D40000B5A1B00590049103920293049803F030
:1003E40022FB039B1593029B169300231793002370
:1003F4008DF8603000231993229B1A9300231F93D6
:100404000FA91F9B0822049803F0E6FB08231F93FF
:10041400119B1293BDF84030ADF84C30BDF842301A
:10042400ADF84E3000238DF851309DF83C3003F088
:100434000303DBB2012B26D10F9BC3F395231D933A
:100444009DF83C30C3F3C203DBB28DF85030BDF8E5
:100454003C30C3F38313DBB21C931C9B9A0009A9A1
:100464001F9B049803F0B8FB1C9B9B001F9A13442A
:100474001F9312AA09A915AB009313461C9A1D9841
:1004840000F0ECFF2FE09DF83C3003F00303DBB2F7
:10049400022B28D1BDF83E30C3F389139BB21E93BF
:1004A4009DF83C30C3F3C203DBB28DF850301E9B81
:1004B400082B28BF08231B9307A91F9B1B9A04988A
:1004C40003F08AFB1F9A1B9B13441F931E9A1B9BCA
:1004D400D31A1E9315AB12AA07A81B9901F060F852
:1004E4001E9B002BE3D1049803F0ACFA00BF21B0AB
:1004F4005DF804FB00B583B00190019B1B781A469C
:100504000C4B9B5C002B05D0019B0433184605F073
:1005140029FD0BE0019B1B781A46064B9B5C002BC4
:1005240004D1019B0C33184604F0F8FE00BF03B05D
:100534005DF804FBE407002000B587B00390029146
:1005440013468DF8073000230593039B1B781A4646
:10055400114B9B5C002B09D0039B04339DF80720AF
:100564000299184605F02CFD05900FE0039B1B78BB
:100574001A46094B9B5C002B08D1039B0C339DF856
:1005840007200299184604F03FFF0590059B184682
:1005940007B05DF804FB00BFE407002082B00190BF
:1005A4000091034B01221A7000BF02B0704700BFD4
:1005B400C800002030B58DB003468DF807301A4BC3
:1005C40002AC1D460FCD0FC495E80F0084E80F0060
:1005D400062302934FF0FF3303934FF0FF3304934A
:1005E4004FF0FF3305934FF0EB7308939DF80730FA
:1005F400002B01D00D4A00E0002202AB19460C4842
:1006040003F0C0FB0B900B9B0A930A9B002B04D0B6
:10061400084A43210A9801F0DDFC074A9DF8073097
:10062400137000BF0DB030BD3CB50000A105000043
:1006340000000020D0B40000C900002000B583B041
:1006440001238DF807309DF807301846FFF7B2FFF5
:1006540000BF03B05DF804FB00B589B003900291BC
:100664000192019B8DF81F30124B00221A709DF8E5
:100674001F301A4602991048FFF75EFF0690069B4A
:100684000593059B002B04D00C4A5321059801F0D7
:10069400A1FC00BF0A4B1B78002B07D0054B1B782D
:1006A400DBB283F00103DBB2002BF3D100BF09B04E
:1006B4005DF804FBC800002000000020D0B4000056
:1006C400C900002000B585B003900291054B00934A
:1006D4004023054A02990398FFF77AFE00BF05B04C
:1006E4005DF804FB5D0600008800002082B00190E4
:1006F40000BF02B07047000000B583B00190054808
:10070400FFF7F8FE0020FFF755FF00BF03B05DF8C8
:1007140004FB00BF0000002082B00190019BDB6855
:1007240001225A7100BF02B07047000000B583B0C7
:100734004FF0FF330193FFF781FF0421084800F0D5
:10074400A9FD0190019B002B03DA0649482002F021
:1007540000FB0348FFF7E0FF00BF03B05DF804FBB4
:10076400ACB400007CB5000000B583B001900091EA
:10077400019B1B681B6800990198984700BF03B050
:100784005DF804FB00B583B00190019B1B685B68B6
:100794000198984700BF03B05DF804FB00B583B02F
:1007A4000190019B1B689B680198984700BF03B0A8
:1007B4005DF804FB82B001900B468DF80330019B79
:1007C400DB689DF803201A7100BF02B0704782B045
:1007D4000190019BDB681B79184602B0704782B018
:1007E4000190019BDB6801225A7100BF02B070477F
:1007F40082B00190019BDB685B79184602B07047B8
:1008040000B585B001900091154BFF229A60144BFE
:1008140000221A60124B00225A60114B0022C3F8C6
:1008240018240F4B0022C3F814240D4B002283F824
:1008340020240C4803F05CF80390039B002B01D0A8
:10084400039B08E0084803F0E7F9084A084BD31A69
:10085400DB0802930023184605B05DF804FB00BFD3
:1008640034020020BCB40000ECB50000ACB40000BD
:1008740084B40000024A034BD31ADB0818467047BD
:10088400ACB4000084B4000000B587B001900B46FE
:100894008DF803309DF80330002B1FD0FFF7EAFFDB
:1008A40004900023059313E0059B9B000E4A134418
:1008B4000393039B1B881A46019B1B689A4204D12D
:1008C400019B059A1A60002309E0059B01330593F7
:1008D400059A049B9A42E7D3052300E000231846B7
:1008E40007B05DF804FB00BF0000002000B585B030
:1008F40001900B468DF803309DF8032001AB11469F
:100904001846FFF7C1FF0346002B07D1019BDB000C
:10091400054A13440393039B1B6800E00023184615
:1009240005B05DF804FB00BF84B4000084B00190FE
:100934000B468DF80330019BDB00174A13440293E6
:100944009DF80330013B032B1CD801A252F823F07D
:10095400650900006D090000750900007F090000A9
:1009640002238DF80F3011E004238DF80F300DE0D1
:10097400029B1B798DF80F3008E0029B5B798DF8A0
:100984000F3003E000238DF80F3000BF9DF80F30C7
:10099400184604B0704700BF84B4000084B00190CE
:1009A400009100238DF80F30019B1B7803F00403A2
:1009B400DBB2002B24D0019B1B78C3F30103DBB211
:1009C400012B02D0022B0CD017E0009B1B68019A6C
:1009D4001288C2F38312D2B213449A1C009B1A6089
:1009E4000BE0009B1B68019A5288C2F3891292B2F1
:1009F40013449A1C009B1A6000BF01238DF80F302A
:100A04009DF80F30184604B07047000000B58BB055
:100A14000023ADF826303E4802F029FA3D4802F0A2
:100A240026FA3D4B5B6804933B4B9B680693049A00
:100A3400069B134002339B00374A13440433089344
:100A440004AB19460898FFF7A9FF0346002B09D009
:100A5400049A069B134002339B002F4A1344043329
:100A64000893EDE700BF0023079311E0049B5A1C91
:100A74000492069A1340079A920001A90A4426494F
:100A840002339B000B445B681360079B013307939D
:100A9400079B012BEAD99DF80430C3F30103DBB2B1
:100AA400012B10D0022B1CD1BDF80A30ADF8263032
:100AB400BDF80630C3F389139BB203339A08049B31
:100AC4001344049313E0BDF80A30ADF82630BDF8A2
:100AD4000430C3F38313DBB21A46049B1344049318
:100AE40005E00E494FF4BF7002F033F900BF094826
:100AF40002F0C9F90590059B002B02D0049B064A1D
:100B04005360BDF8263018460BB05DF804FB00BFF7
:100B14004C0600204806002034020020FCB50000EA
:100B240000B585B00021074802F02AF90390039B21
:100B34000293029B83F310030193019B184605B0B3
:100B44005DF804FB5006002000B589B003900291C3
:100B540001920093039B1B0C0793FFF7E1FF0690A0
:100B6400FFF788FE0246079B934204D3214940F2D3
:100B7400A31002F0EEF8069B1904009B5A1C0A9B72
:100B84001340079A0A431C4902339B000B445A60E2
:100B9400009A0A9B134002339B00174A1344043300
:100BA4000593039B03F00703D9B2059A137861F305
:100BB400C5031370019B03F00F03D9B2059A138880
:100BC40061F389131380029BC3F31501059A13681B
:100BD40061F39F231360059A1378012161F30103E4
:100BE4001370059A13786FF38203137000BF09B072
:100BF4005DF804FBFCB500003402002000B58BB0A6
:100C04000390029113468DF80730039B0233089337
:100C140001238DF81F30002002F054F83E4B1A686F
:100C2400029B1A603C4B9A683B4B59683A4B1B68D1
:100C3400CB1A13440133099314E00121374802F01D
:100C4400E6F8FFF7E3FE06900699344802F0DFF871
:100C5400314B9A68304B59682F4B1B68CB1A13449D
:100C640001330993089A099B9A42E6D89DF81F30EC
:100C7400002B48D0002304939DF80730002B17D095
:100C84009DF81030012262F301038DF810309DF8B5
:100C9400103043F004038DF81030039B03F00F036E
:100CA400DAB2BDF8103062F38913ADF8103016E0F3
:100CB4009DF81030022262F301038DF810309DF884
:100CC400103043F004038DF81030039BC3F3090381
:100CD4009AB2BDF8123062F38F13ADF812300E4B96
:100CE4001A680D4B9B68134002339B000A4A134455
:100CF40004330593049A059B1A60074B1A68089BF2
:100D04001344054A1360002001F0F0FF9DF81F30E2
:100D140018460BB05DF804FB340200205006002096
:100D240000B58BB005900491039202931F4B9B680E
:100D3400079306AB012219460298FFF75FFF0346AB
:100D4400002B24D0069B023309930023089311E05F
:100D5400089B9B00039A1A44099B591C0991079903
:100D64000B401268114902339B000B445A60089BE4
:100D740001330893089A029B9A42E9D3069A079B87
:100D840000931346029A04990598FFF7DDFE074B7A
:100D940093F82034002B05D000BF00F07BF8034605
:100DA400002BFAD100BF0BB05DF804FB3402002025
:100DB40000B583B0019000910023002200990198AE
:100DC400FFF7AEFF00BF03B05DF804FB00B587B0CA
:100DD400039002910192019B059305AA01230299B4
:100DE4000398FFF79DFF00BF07B05DF804FB00B553
:100DF40087B00390029101920093019B0493009B9E
:100E0400059304AA022302990398FFF789FF00BF00
:100E140007B05DF804FB00B589B00390029101921C
:100E24000093019B0593009B06930A9B079305AAD5
:100E3400032302990398FFF773FF00BF09B05DF81D
:100E440004FB00B58BB00390029101920093019BC7
:100E54000593009B06930C9B07930D9B08930E9B95
:100E6400099305AA052302990398FFF759FF00BFC8
:100E74000BB05DF804FB0000054B5A68044B1B687B
:100E84009A420CBF01230023DBB21846704700BF0F
:100E94003402002000B599B0FFF7EEFF0346002BA3
:100EA40001D00023B5E19A4B0022C3F81824BFF304
:100EB4004F8F974B5B680493954B9B681093049AF0
:100EC400109B134002339B00914A13440433119343
:100ED400002317930023169300230F9304AB1946A2
:100EE4001198FFF75BFD0346002B19D0884BD3F80C
:100EF4001834002B14D1864B1A68049B9A4205D8E7
:100F0400834B1B68824A5360002382E1049A109B3E
:100F1400134002339B007E4A134404331193DDE7EC
:100F24000023159311E0049B5A1C0492109A134059
:100F3400159A920001A90A44754902339B000B4497
:100F44005B681360159B01331593159B012BEAD93C
:100F54009DF8043003F00303DBB2022B40F09C80C5
:100F6400BDF80630C3F389139BB20E93BDF8063067
:100F7400C3F389139BB2502B28BF50239BB20D930C
:100F84000D9BC3F309039AB2BDF8063062F38F13C5
:100F9400ADF806300D9B08330C939DF80430C3F371
:100FA400C203DBB20F930C995A4802F0ACFC1790C1
:100FB400179B002B00F0D080179802F034FD01A994
:100FC400169B0822179802F0E9FD169B0833169326
:100FD400049BDA43109B134001339B000B930D9A3F
:100FE4000B9B9A4242D90B9B002B08D0049A109B6E
:100FF400134002339B00464A1344043300E0464B3B
:101004000A930B9B002B02D00B9BDBB201E00D9BE0
:10101400DBB28DF827300B9B002B01D03E4B00E058
:10102400002308930B9B002B06D00D9BDAB20B9B7D
:10103400DBB2D31ADBB200E000238DF81F309DF839
:101044002720169B0A99179802F0A8FD9DF82730CF
:10105400169A13441693089B002B16D09DF81F2054
:10106400169B0899179802F099FD0EE0049A109BBC
:10107400134002339B00264A134404330693169B01
:101084000D9A0699179802F089FD0E9B03339A086E
:10109400049B134404935FE09DF8043003F00303BE
:1010A400DBB2012B58D1BDF80430C3F38313DBB298
:1010B400062B28BF0623DAB2BDF8043062F3891385
:1010C400ADF80430BDF80430C3F38313DBB202334C
:1010D40005939DF80430C3F3C203DBB20F93059B61
:1010E4009B0019460B4802F00EFC1790179B002B2F
:1010F40032D0179802F097FC01A9169B0822179882
:1011040002F04CFD169B08331693002315931AE046
:1011140034020020BCB4000040020020049B5A1C8E
:101124000492109A134002339B003C4A1344191D45
:10113400169B0422179802F031FD169B0433169374
:10114400159B01331593BDF80430C3F38313DBB24D
:101154001A46159B9342E1D3179B002B39D02F4B92
:10116400D3F8103414932D4BD3F81834002B1BD020
:10117400179802F067FC46E000238DF84F3014986E
:10118400FFF736FB0346002B02D001238DF84F30C6
:101194009DF84F30002B03D017991498FFF7E4FA09
:1011A400149BDB681B681493149B002BE4D11798E1
:1011B40002F048FC002001F085FD184BD3F81834E8
:1011C400002B02D1049B154A5360002001F08EFDD0
:1011D40019E0124BD3F81034129306E01298FFF77B
:1011E400DDFA129BDB681B681293129B002BF5D16E
:1011F4000B4A0C4BD31ADB081B0443F002030A49C5
:101204001846FFF7D5FDFFF737FE034683F00103C9
:10121400DBB2184619B05DF804FB00BF34020020AD
:10122400A4B4000084B4000064B6000000B585B026
:101234000023039323E0164BD3F8103402930123C5
:101244008DF807300FE00298FFF7C1FA03461A46FB
:10125400039B934203D100238DF8073006E0029BE1
:10126400DB681B680293029B002BECD19DF80730CE
:10127400002B01D0039B07E0039B01330393039BE3
:10128400092BD8DD4FF0FF33184605B05DF804FB99
:101294003402002000B585B001900B468DF8033070
:1012A400FFF7C4FF0390039BB3F1FF3F01D1039BFE
:1012B40022E0039BDBB219460198FFF77BFA104B3F
:1012C400D3F81034002B08D10D4A019BC2F8103416
:1012D400019BDB6800221A600DE0094BD3F810343F
:1012E400DA68019BDB6812681A60054BD3F8103486
:1012F400DB68019A1A60039B184605B05DF804FB8D
:101304003402002000B583B00C4BD3F810340193A1
:101314000A4B012283F8202409E00198FFF75FFAC1
:101324000198FFF72FFA019BDB681B680193019B6F
:10133400002BF2D100BF03B05DF804FB340200209F
:1013440082B00190009100BF02B0704710B584B024
:1013540003900291039BDB88002B0AD0039BDB885C
:101364001A461F4B009313461E4A1F49029801F068
:10137400B9FE039B1B7A052B2ED0039B5B7A002BB3
:1013840012D0039B9B881A46039B1B7A194610466E
:10139400FFF7CCFA03461A46144B53F822301A4688
:1013A4001349029801F09EFE039B1B68194602989C
:1013B400FFF7C6FF039B1B7A1A460E4B53F82240D5
:1013C400039B9B8800211846FFF790FA03462246A8
:1013D4000949029801F086FE00BF04B010BD00BFA9
:1013E40098B60000A8B60000E0B600003000002067
:1013F400F8B600001C000020FCB6000000B585B063
:101404000390029113468DF80730039B1B7A052B3A
:101414000FD0039B5B7A002B06D00D4B1B681A463A
:101424000C49029801F05EFE0B49029801F05AFE45
:1014340007E09DF80730002B03D00749029801F01C
:1014440051FE029801F02CFE00BF05B05DF804FBCC
:1014540030000020F8B6000008B7000030B58BB0AB
:1014640007900691059204930E9B1B7B8DF8273001
:101474000E9B00221A730E990498FFF767FF059BD1
:10148400062B7FD801A252F823F000BFAD14000050
:10149400B7140000C7140000DB140000F9140000A6
:1014A400211500005115000007990E9801F01AFE4D
:1014B40069E0069B1B681A4607990E9801F012FE14
:1014C40061E0069B1A68069B04331B6807990E9813
:1014D40001F008FE57E0069B1A68069B043319685E
:1014E400069B08331B6800930B4607990E9801F07E
:1014F400F9FD48E0069B1968069B04331868069BAF
:1015040008331B68069A0C32126801920093034652
:101514000A4607990E9801F0E5FD34E0069B186829
:10152400069B04331C68069B08331B68069A0C321E
:1015340012680699103109680291019200932346BA
:10154400024607990E9801F0CDFD1CE0069B1C682D
:10155400069B04331D68069B08331B68069A0C32ED
:1015640012680699103109680698143000680390CF
:101574000291019200932B46224607990E9801F09E
:10158400B1FD00E000BF00220E990498FFF736FF7A
:101594000E9B9DF827201A7300BF0BB030BD00BF0F
:1015A40000B587B00390029101920093029B082B2F
:1015B40060D8009B1B7B8DF81330009B00221A73AC
:1015C40000990198FFF7C2FE0023059314E0059AE1
:1015D400029B9A4209D2039A059B13441B781A462C
:1015E4002649009801F07EFD03E02549009801F0AA
:1015F40079FD059B01330593059B072BE7D9214909
:10160400009801F06FFD0023059326E0059A029BE4
:101614009A421BD2039A059B13441B788DF812300F
:101624009DF812307E2B0AD89DF81230184609F026
:1016340095FE0346002B02D09DF8123000E02E23C5
:101644001A461149009801F04DFD03E00F49009836
:1016540001F048FD059B01330593059B072BD5D964
:10166400012200990198FFF7C9FE009B9DF8132001
:101674001A7300E000BF07B05DF804FB0CB700006C
:1016840014B7000018B700001CB7000020B7000012
:1016940000B583B00190019B1B681F2B04D9054939
:1016A4004FF4F37001F055FB4FF0A043184603B01C
:1016B4005DF804FB24B7000000B585B0019008462E
:1016C40011461A4603468DF803300B468DF8023056
:1016D40013468DF8013001AB1846FFF7D9FF03908C
:1016E4009DF803209DF802305B001A439DF80130F9
:1016F4009B001A439DF818301B0242EA03019DF82F
:101704001C301B04019A1943039B02F5E07243F851
:10171400221000BF05B05DF804FB00B585B003904E
:101724000023019300230093002301220121039845
:10173400FFF7C2FF00BF05B05DF804FB00B585B03C
:1017440003900B468DF80B309DF80B20002301937A
:10175400002300931346002200210398FFF7ACFFF7
:1017640000BF05B05DF804FB00B585B0019001AB86
:101774001846FFF78DFF0390019B012202FA03F341
:101784001946039800F086F800BF05B05DF804FB25
:1017940000B585B0019001AB1846FFF779FF0390BF
:1017A400019B012202FA03F31946039800F07CF826
:1017B40000BF05B05DF804FB00B585B0019001AB36
:1017C4001846FFF765FF0390039BD3F80435029393
:1017D400029BDA43019B012101FA03F31A40039BA4
:1017E400C3F80825019B01229A40029B1A40039BDF
:1017F400C3F80C2500BF05B05DF804FB00B583B049
:1018040001900091009B002B03D10198FFF7C0FFCA
:1018140002E00198FFF7A8FF00BF03B05DF804FBE6
:1018240000B585B0019001AB1846FFF731FF039076
:10183400039800F01FF80246019B22FA03F303F019
:101844000103184605B05DF804FB00B585B00190AE
:1018540001AB1846FFF71CFF0390039800F012F841
:101864000246019B22FA03F303F00103184605B074
:101874005DF804FB82B00190019BD3F81035184643
:1018840002B0704782B00190019BD3F8043518462A
:1018940002B0704782B001900091019B009AC3F896
:1018A400082500BF02B0704782B001900091019BEF
:1018B400009AC3F80C2500BF02B0704700B585B08C
:1018C4000190019B032B03D91149402001F041FAF7
:1018D400104A019B13441B781846FFF7B6FF0346D2
:1018E400002B14BF012300238DF80F309DF80F3017
:1018F400002B14BF01230023DBB283F00103DBB20E
:1019040003F00103DBB2184605B05DF804FB00BF29
:1019140058B70000A8B7000000B583B00190019B40
:10192400032B03D90749472001F013FA064A019B08
:1019340013441B7800211846FFF760FF00BF03B073
:101944005DF804FB58B70000A8B7000000B583B0E9
:101954000190019B032B03D907494D2001F0F9F9AC
:10196400064A019B13441B7801211846FFF746FFE2
:1019740000BF03B05DF804FB58B70000A8B700002F
:1019840000B583B00023019305E00198FFF7DEFF63
:10199400019B01330193019B032BF6D900BF03B0D4
:1019A4005DF804FB00B583B00023019305E00198C2
:1019B400FFF7B2FF019B01330193019B032BF6D97F
:1019C40000BF03B05DF804FB00B583B00190019B38
:1019D400032B03D90749652001F0BBF9064A019B93
:1019E40013441B781846FFF7E7FE00BF03B05DF809
:1019F40004FB00BF58B70000A8B7000000B583B0CF
:101A04000023019309E0094A019B13441B781846FB
:101A1400FFF783FE019B01330193019B032BF2D952
:101A2400FFF7AEFF00BF03B05DF804FBA8B70000EA
:101A340000B585B00190019B032B03D91149B22055
:101A440001F087F9104A019B13441B781846FFF7ED
:101A5400E7FE0346002B14BF012300238DF80F304B
:101A64009DF80F30002B14BF01230023DBB283F059
:101A74000103DBB203F00103DBB2184605B05DF8E5
:101A840004FB00BF58B70000ACB7000000B583B03A
:101A9400002301930AE0094A019B13441B780321A4
:101AA4001846FFF74BFE019B01330193019B032B67
:101AB400F1D900BF03B05DF804FB00BFACB7000070
:101AC40084B001904FF0FF330293002303930DE0A1
:101AD4000A4A039B13441B781A46019B934202D182
:101AE400039B029305E0039B01330393039B032BA6
:101AF400EED9029B184604B0704700BFACB7000093
:101B040000B583B00190019B03F00103002B01D0C9
:101B1400FFF774FF019B03F00203002B01D0FFF7D2
:101B2400B5FF00BF03B05DF804FB00002DE9F047EA
:101B340092B0099000238DF84730ADE05C4B1A68F1
:101B44009DF84730DB0013441093109B1B78184614
:101B54004FF001034FF00004A0F12002C0F1200176
:101B640004FA00FA03FA02F24AEA020A23FA01F139
:101B74004AEA010A03FA00F9CDE90E9A4D4BD3E97A
:101B84000012DDE90E3401EA0300009002EA0403C6
:101B94000193DDE90034234379D0DDE90E34DA43DF
:101BA4000292E3430393434BD3E90034DDE902019A
:101BB40002461A4004920A4602EA040305933D4B86
:101BC400DDE90412C3E90012109B1B78184602F0E9
:101BD40003FE03468DF83730109B1B7818464FF0F0
:101BE40001034FF00004A0F12002C0F1200104FA27
:101BF40000F603FA02F2164323FA01F10E4303FA44
:101C040000F52D4BD3E9003405EA0302069206EAF7
:101C1400040307939DF837104FF00002109B1B78C4
:101C24001C46A4F12003C4F1200002FA04F801FACE
:101C340003F348EA030821FA00F048EA000801FA2D
:101C440004F7DDE90634444508BFBB421FD19DF8C3
:101C54003720109B5B78012B0CBF01230023DBB2E0
:101C64009A420CBF01230023DBB2DBB24FF0000425
:101C7400CDE90A34109B5B68002B08D0109B5C688C
:101C8400109B1A789DF8283019461046A0479DF8F5
:101C9400473001338DF84730084B1A789DF84730A8
:101CA4009342FFF44BAF00BF12B0BDE8F08700BF12
:101CB4005806002090060020880600205C060020BC
:101CC4002DE9F04790B00B900B468DF82B304FF078
:101CD40001034FF000040B98A0F12002C0F1200191
:101CE40004FA00F603FA02F2164323FA01F10E4352
:101CF40003FA00F5CDE90E56394B184600F0A8FF5B
:101D04000D900D9B002B66D1364BD3E90012DDE913
:101D14000E3401EA0300009002EA04030193DDE9B2
:101D24000034234343D10B9802F056FD0346002BA5
:101D340010D02D4BD3E90012DDE90E3441EA030043
:101D4400029042EA04030393274BDDE90212C3E93C
:101D5400001213E0DDE90E346FEA03096FEA040AA6
:101D6400214BD3E9003409EA030204920AEA04038A
:101D740005931D4BDDE90412C3E90012194BD3E9A5
:101D84000012DDE90E3441EA0300069042EA04033E
:101D94000793144BDDE90612C3E900121048134BF4
:101DA4001B680022194600F021FF0D9014E0DDE9C4
:101DB4000E34DF436FEA04080A4BD3E9003407EA20
:101DC4000302089208EA04030993064BDDE90812AA
:101DD400C3E9001200E000BF10B0BDE8F08700BF07
:101DE400640600209006002088060020600600207B
:101DF40010B58AB003900B4601928DF80B30019B0D
:101E0400042B01D807235AE002F0D8FB034683F0E1
:101E14000103DBB2002B09D002F07EFB0990099B81
:101E24000893089B002B01D0089B48E0254A039B9C
:101E34001360254A9DF80B301370244A019B1360EC
:101E4400234A4FF000034FF00004C2E90034214A52
:101E54004FF000034FF00004C2E9003422E09DF883
:101E64000B30DB00039A1344079305AB00210A46A9
:101E74001A800A469A7003238DF81430079B9B78C6
:101E84008DF81530079B1B78184605AB124A194686
:101E940002F0A0FB0990099B0693069B002B01D03E
:101EA400069B0CE09DF80B305A1E8DF80B20002B7E
:101EB400D5D10A4A00210A4800F068FE03461846B4
:101EC4000AB010BD580600205C0600206006002001
:101ED4008806002090060020C51C0000311B00006D
:101EE400B0B7000000B583B0114B1B68002B03D1C1
:101EF4001049BA2000F02DFF002301930CE00C4B95
:101F04001A68019BDB0013441B780121184602F078
:101F1400DBFB019B01330193074B1B781A46019BA2
:101F24009342ECD30023184603B05DF804FB00BFD2
:101F340058060020B4B700005C06002086B0039069
:101F44000291019201238DF817309DF81730204A31
:101F5400039B13601E4A029B53601D4A019B9360BE
:101F6400039B44F20102934213D0039B44F2020206
:101F7400934221D1019B164AD360154BDB681B8821
:101F84001A46134B9A61124BDB685B68104AD361A3
:101F940012E0019B0E4A13610D4B1B699B680C4AAE
:101FA40053610B4B1B691B68094A9361084B1B69FE
:101FB4005B68074AD36100BF72B600BF9DF8173053
:101FC400DBB2002BFAD162B600BF06B0704700BF87
:101FD4009806002000B583B002900091019244F26B
:101FE400010071466A4600F003F803B000BD00BF6B
:101FF40030B58BB007900691059272B6FFF782F95F
:1020040000BFFEF747FF0346002BFAD1079B44F2BB
:102014000102934216D0079B44F2020293423ED13E
:10202400059B09932C4A2D4BD31ADB081B0443F060
:102034000100099B5B681A46099B1B882849FEF727
:10204400D6FE39E0059B0893234A244BD31ADB08B8
:102054001B0443F00104089B9D68089B9B68184679
:1020640001F0F8FD03461846089B5B681946089B77
:102074001B68069A02920193009103462A46194965
:102084002046FEF7DEFE144A144BD31ADB081B0469
:1020940043F0010314491846FEF78AFE0CE00E4A89
:1020A4000E4BD31ADB081B0443F00103069A0F49B5
:1020B4001846FEF78BFE00BF0D4B1B6803F00103AF
:1020C400002B00D000BE059A06990798FFF736FF4B
:1020D40000BF0BB030BD00BFA4B4000084B4000046
:1020E40014B8000030B8000058B800006CB8000004
:1020F400F0ED00E082B003468DF807309DF807301C
:1021040003F01F0205499DF907305B09012000FA1D
:1021140002F241F8232000BF02B0704700E100E062
:1021240082B003468DF807309DF8073003F01F0294
:1021340006499DF907305B09012000FA02F22033B9
:1021440041F8232000BF02B0704700BF00E100E067
:1021540082B003468DF807309DF8073003F01F0264
:1021640006499DF907305B09012000FA02F2403369
:1021740041F8232000BF02B0704700BF00E100E037
:1021840082B003468DF807309DF8073003F01F0234
:1021940006499DF907305B09012000FA02F2603319
:1021A40041F8232000BF02B0704700BF00E100E007
:1021B40082B0034600918DF807309DF90730002B5B
:1021C4000CDA009BDAB20C499DF8073003F00F03D8
:1021D400043B5201D2B20B441A7609E0009BDAB2F6
:1021E40006499DF907305201D2B20B4483F800230B
:1021F40000BF02B0704700BF00ED00E000E100E066
:1022040000B585B00190019B002B0AD0074B43F029
:1022140001030393019B9B010293039B029898473C
:1022240000E000BF05B05DF804FB00BF90B80000FB
:1022340000B583B00190064A019BC2F80835062117
:102244001120FFF7B5FF00BF03B05DF804FB00BF2A
:102254000010014008B50D4B4FF48032C3F84423FD
:102264000A4B4FF48032C3F804231120FFF788FF90
:102274001120FFF73FFF054B01221A602F20FFF7C3
:10228400BFFF034B01221A7000BF08BD00100140BC
:10229400D607002008B51120FFF742FF0E4B4FF47C
:1022A4008032C3F848230C4B4FF48032C3F8082320
:1022B400094B01225A602F20FFF7A2FF064B01228F
:1022C4009A60064B00221A602F20FFF799FF044BF7
:1022D40000221A7000BF08BD00100140C80700208A
:1022E400D6070020024BD3F804351846704700BFC8
:1022F4000010014082B001900091019A009BD31A12
:1023040023F07F43184602B07047000082B001906A
:10231400034A019BC2F8403500BF02B0704700BFBA
:102324000010014086B00190284B1B68002B03D19C
:10233400264A019B136045E0019B1A68234B1B68E6
:102344001B689A4210D8214B1B681968019B1A68B4
:102354001E4B1B688A1A1A601C4B1A68019BDA61AF
:102364001A4A019B13602DE0019B1B680393174BD2
:102374001B680593154B1B68049309E0049B1B68B9
:10238400039AD31A0393049B0593049BDB69049378
:10239400049B002B04D0049B1B68039A9A42EDD83B
:1023A400049B002B05D0049B1A68039BD21A049B40
:1023B4001A60019B039A1A60019B049ADA61059BD7
:1023C400019ADA6100BF06B0704700BFC40700205D
:1023D40000B587B001902A4B1B680393284B1B68F8
:1023E4000593059B049308E0049A019B9A4208D044
:1023F400049B0593049BDB690493049B002BF3D19A
:1024040000E000BF049B002B01D1002333E0059AB8
:10241400049B9A4214D11A4B1B68DB69184A136057
:10242400174B1B68002B0BD1164B01229A60164BDD
:1024340000221A60154B01221A702F20FFF7E0FECC
:10244400049B1B680293049BDA69059BDA61059B74
:10245400DB690493049B002B05D0049B1A68029B40
:102464001A44049B1A60064B1B68039A9A4214BFD1
:1024740001230023DBB2184607B05DF804FB00BF5C
:10248400C407002000100140C8070020D70700201F
:1024940008B51120FFF75CFE00BF08BD08B5142085
:1024A400FFF756FE00BF08BD00B583B00190019B45
:1024B4005B69019A92691046984700BF03B05DF8C2
:1024C40004FB000000B585B02B4B1B68002B4ED0DD
:1024D40000230193FFF706FF0246284B1B681946A9
:1024E4001046FFF707FF0290234B1B6803931DE080
:1024F400039B1B68029A9A421CD3039B1B68029A93
:10250400D31A0293039B1B68019A13440193039B00
:102514000093039BDB690393009B1B7C002B05D07A
:10252400009B00221A740098FFF7BEFF039B002B48
:10253400DED100E000BF124B1A78124B1B789A428E
:102544000CD1104B1B780133DAB20E4B1A700D4BC1
:102554001B78022B02D10B4B00221A70094B1B78FB
:102564001946094A019B42F82130FFF797FF00BF43
:1025740005B05DF804FB00BFC4070020C8070020B5
:10258400D4070020D5070020CC07002082B001909A
:10259400184B1A78184B1B789A4223D0154B1B788A
:1025A4000133DAB2134B1A70124B1B78022B02D18F
:1025B400104B00221A700F4B1B781A460F4B53F81E
:1025C4002220019B1A60019B1A680D4B1B6813445F
:1025D4000B4A13600A4B1B6823F07F43084A1360BD
:1025E400012303E0019B00221A600023184602B075
:1025F400704700BFD4070020D5070020CC07002077
:10260400C807002088B00390029101920023079329
:1026140038E0204B1B680693069B1B68039A9A427A
:1026240006D2069B1A68039BD21A069B1A602DE0F9
:10263400069B1B68039AD31A0393069B1B68079A8D
:1026440013440793069B00221A60124B1B680593E0
:10265400069BDB690F4A1360069BDB68002B11D0D5
:10266400029A079B134423F07F42069B5A60069B01
:10267400DA68069B9A60019B1A68069BDA61019BE3
:10268400059A1A60034B1B68002BC2D100BF08B027
:10269400704700BFC407002000B589B00190002333
:1026A4008DF81F30664B1B680593AAE0019B002B35
:1026B40005D0019B0693069BDB69019361E0614BA6
:1026C4001B781A4613465B001344DB005D4A13442F
:1026D400043304935B4B1B780133DAB2594B1A7001
:1026E400584B1A78574B9B789A4202D1554B00228B
:1026F4001A70049B5B680693049B1B78022B04D01E
:10270400032B1BD0012B1FD01DE0049B5B681846D4
:10271400FFF75EFE0346002B02D001238DF81F3025
:10272400069B00221A746CE0454B1B680393039BC1
:1027340000221A74039BDB69414A1360404B1B68F7
:10274400002BF1D15DE05CE000BF069B1B7C002BFD
:1027540000D056E0049B9A68069B5A60049BDA6892
:10276400069B9A60049B1A69069BDA60049B5A696B
:10277400069B9A61344B1B78002B02D0069B0022E7
:102784005A60069B5A68314B1B68D31A23F07F4367
:102794002F4A93420ED8069B5A682C4B1B68194645
:1027A4001046FFF7A7FD0246069B9B681A44069B4A
:1027B4001A6017E0254B1A68069B5B681946104699
:1027C400FFF798FD0290069B9B68029A9A4206D2F4
:1027D400069B9A68029BD21A069B1A6002E0069B2B
:1027E40000221A60069B00225A60069B00229A600F
:1027F400069B01221A74069B0022DA610698FFF7F1
:1028040091FD019B002B7FF451AF0E4B1A780D4BB9
:102814005B789A427FF44AAF9DF81F30002B04D1B5
:10282400074B1B68059A9A4201D0012300E000235C
:1028340003F00103DBB2184609B05DF804FB00BFE6
:10284400C4070020B8060020D7070020C8070020CE
:10285400FEFF7F0010B588B00190274B1B68002B4A
:1028640044D0254B1B681B680793FFF73BFD06907C
:10287400224B1B68059305990698FFF73BFD034619
:10288400033304931E4B1B7883F00103DBB2002B4C
:1028940001D0FFF7DFFC049A079B934238BF13462D
:1028A400059A13440593059B23F07F4305930598EC
:1028B400FFF72CFDFFF716FD039006990398FFF729
:1028C40019FD0346DC1C06990598FFF713FD034622
:1028D4009C420DD9FFF706FD03461846FFF716FD87
:1028E4002F20FFF78DFCFFF7D3FD01E0FFF7D2FCAB
:1028F40000BF08B010BD00BFC4070020C8070020F7
:10290400D607002000B587B00023019300238DF87B
:102914001730194B1B680493184B1B6803936B46C1
:102924001846FFF733FE03468DF80B309DF80B3045
:10293400002B08D0009B01AA04991846FFF762FEF9
:1029440001238DF81730019B1846FFF7A5FE0346B7
:10295400002B02D001238DF817309DF81730002B7F
:1029640002D00398FFF776FF054B00221A7000BFD0
:1029740007B05DF804FB00BFC8070020C4070020AF
:10298400D707002082B003468DF80730034A9DF82C
:102994000730537000BF02B0704700BFB806002074
:1029A40084B00190144B5B7801338DF80F30124BD7
:1029B4009B789DF80F209A4202D100238DF80F30A6
:1029C4000D4B1B789DF80F209A4201D100230FE094
:1029D400019B9DF80F201A70074B5B781A4613462B
:1029E4005B001344DB00044A134404330293029B48
:1029F400184604B0704700BFB806002000B589B07F
:102A0400039002910192009300230793002000F0A9
:102A140059F90DF117031846FFF7C2FF0690069BFC
:102A2400002B02D10423079318E0069B01221A709D
:102A3400069B039A5A60FFF755FC0246069B9A6070
:102A4400069B029ADA60069B019A1A61069B009A19
:102A54005A619DF817301846FFF794FF002000F0E4
:102A640045F9079B002B01D1FFF718FD079B18467A
:102A740009B05DF804FB00B587B001900B468DF8F2
:102A8400033000230593002000F01CF90DF10F031F
:102A94001846FFF785FF0490049B002B02D1042302
:102AA40005930BE0049B9DF803201A70049B019A84
:102AB4005A609DF80F301846FFF764FF002000F0BD
:102AC40015F9059B002B01D1FFF7E8FC059B18467F
:102AD40007B05DF804FB000008B50E4B0022C3F8F4
:102AE40040210C4B0022C3F844210A4B0022C3F8B6
:102AF4004821084B0022C3F84C21064B0022C3F89E
:102B04000021044B0022C3F80421FFF7DBFC00BFC3
:102B140008BD00BF0010014008B5FFF7F3FE00BF79
:102B240008BD000008B5FFF7B5FB134B00221A706F
:102B3400114B00225A70104B0B229A700F4B00223B
:102B44001A600F4B00221A700E4B00221A701420C8
:102B5400FFF716FB06211420FFF72AFB1420FFF7CA
:102B6400C9FA0020FFF764FBFFF7BCFB0246064BE3
:102B74001A600023184608BDB8060020C4070020C8
:102B8400D4070020D5070020C807002086B0039092
:102B94000B4601928DF80B30134B9B78002B01D11F
:102BA40008231EE0019B002B01D1072319E0039B9E
:102BB400002B01D1072314E0039B1B681B7C002B13
:102BC40001D008230DE0039B1B680593059B00229D
:102BD4001A74059B9DF80B205A74059B019A5A613F
:102BE4000023184606B07047B806002000B587B029
:102BF400039002910192039B0593144B9B78002B45
:102C040001D108231EE0039B002B01D1082319E006
:102C1400029B042B01D8072314E0059B5B69002B5E
:102C240001D108230EE0059B5B7C012B01D1029BA3
:102C340000E000230493019B049A02990598FFF78E
:102C4400DDFE0346184607B05DF804FBB806002015
:102C540000B585B00190019B03930D4B9B78002B2D
:102C640001D1082310E0019B002B03D0039B5B6977
:102C7400002B01D1082307E0039B00221A740221D0
:102C84000398FFF7F8FE0346184605B05DF804FB09
:102C9400B806002072B6034B1B680133014A136067
:102CA40000BF7047D8070020054B1B68013B044A4E
:102CB4001360034B1B68002B00D162B600BF704742
:102CC400D807002000B583B0019000F025F8034632
:102CD400012B03D00449432000F03BF8FFF7DAFF4F
:102CE40000BF03B05DF804FB98B8000000B583B0E2
:102CF40003468DF8073000F00FF80346012B03D08C
:102D04000449512000F025F8FFF7CEFF00BF03B0BF
:102D14005DF804FB98B8000084B0EFF305830193D9
:102D2400019BC3F308030393039B002B0DD1EFF323
:102D340014830093009B0293029B03F00103002B76
:102D44000CBF01230023DBB200E00123184604B0CA
:102D5400704700B585B003460091ADF80630BDF864
:102D64000630ADF80830009B039302AB1A460021ED
:102D740044F20200FFF73CF900BF05B05DF804FB24
:102D840010B487B001900091019B009A53E8004F62
:102D9400104643E8000191F0000FF7D10594049028
:102DA4000391059B184607B05DF8044B704710B4B7
:102DB40087B001900091019B009A53E8004F44EAC8
:102DC400020043E8000191F0000FF6D1059404904D
:102DD4000391049B184607B05DF8044B704710B488
:102DE40087B001900091019B009A53E8004F04EAD8
:102DF400020043E8000191F0000FF6D1059404901D
:102E04000391059B184607B05DF8044B704710B456
:102E140087B001900091019B009A53E8004F04EBA6
:102E2400020043E8000191F0000FF6D105940490EC
:102E34000391049B184607B05DF8044B704710B427
:102E440087B001900091019B009A53E8004FA4EBD6
:102E5400020043E8000191F0000FF6D105940490BC
:102E64000391049B184607B05DF8044B704700B506
:102E740083B0019001210198FFF799FF034618469A
:102E840003B05DF804FB00B583B001900021019804
:102E9400FFF7A5FF0346184603B05DF804FB0000E6
:102EA40000B583B001900B468DF80330019B002BD5
:102EB40003D10849E820FFF74CFF019BDA689DF82D
:102EC40003300199098A01FB03F31344184603B044
:102ED4005DF804FBFCB8000000B583B001900091DC
:102EE400019B002B03D10849F520FFF732FF009B1B
:102EF400019AD2689B1A019A128AB3FBF2F3DBB2ED
:102F0400184603B05DF804FBFCB8000000B585B0BA
:102F14000190019B002B01D10E234CE0019B1B6807
:102F2400002B03D12649FF20FFF713FF019B5B68A9
:102F3400002B04D122494FF48070FFF70AFF019B54
:102F44009B68002B04D11E4940F20110FFF701FFDA
:102F5400019BDB68002B04D119494FF48170FFF702
:102F6400F8FE019B1B8A002B04D1154940F2031083
:102F7400FFF7EFFE019B9A68019B5B68D31A8DF8FB
:102F84000F30019B1B68019A52681A6007E0019B8D
:102F94001A681368591C11609DF80F201A709DF867
:102FA4000F305A1E8DF80F20002BF0D1019B1B68A7
:102FB40000221A710023184605B05DF804FB00BF17
:102FC400FCB8000000B585B00190019B002B04D132
:102FD4001C494FF49270FFF7BCFE002303930020BA
:102FE400FFF770FE019B1B681A68019B5B689A429D
:102FF4001FD9019B1B681A68013A1A601B681B7869
:1030040019460198FFF74CFF0390019B9A68019BB6
:103014001B681B68D31A8DF80B30019B1B681B7946
:103024009DF80B209A4204D9019B1B689DF80B2044
:103034001A710020FFF75AFE039B184605B05DF88D
:1030440004FB00BFFCB8000010B584B001900091EF
:10305400019B002B04D1114940F24710FFF779FE80
:10306400009B002B04D10D494FF4A470FFF771FEAF
:10307400009B03930020FFF725FE019B1B681C683F
:10308400621C1A6003990198FFF726FF0346237018
:103094000020FFF72BFE00BF04B010BDFCB80000F9
:1030A40000B583B00190019B002B03D10C49312062
:1030B400FFF74FFE019B9B68002B0CD0019B5B69C3
:1030C400019A1069019A1168019A92689847019BC4
:1030D40000229A6000E000BF03B05DF804FB00BF6B
:1030E4005CB900000EB400B584B00190019B002BC4
:1030F40003D118494220FFF72CFE019B5B69002B8A
:1031040003D114494320FFF724FE019B1B68002BC5
:1031140003D110494420FFF71CFE019B5B68002B80
:1031240003D10C494520FFF714FE059B002B0AD060
:103134000023039306AB039303AB1A460599019846
:1031440000F0B8F900E000BF04B05DF804EB03B090
:10315400704700BF5CB9000000B583B001900B4616
:103164008DF803309DF803300A2B03D10D2101980B
:10317400FFF7F2FF019B1A68019B9B68581C019999
:10318400886013449DF803201A70019B9A68019B80
:103194005B689A4202D30198FFF782FF00BF03B035
:1031A4005DF804FB00B587B003900291019200938F
:1031B40000230593009B03F00103002B24D00BE0B4
:1031C400029B01330293059B013305939DF8133051
:1031D40019460398FFF7C0FF029B1B788DF8133044
:1031E4009DF81330002BEBD106E0019B013B0193CA
:1031F40020210398FFF7B0FF019A059B9A422ED92C
:10320400019B002BF1D12AE0029B002B0BD00298EA
:1032140008F005F9059006E0019B013B019320218C
:103224000398FFF799FF019A059B9A420FD9019BD6
:10323400002BF1D10BE0029B01330293059B013378
:1032440005939DF8133019460398FFF785FF029BF9
:103254001B788DF813309DF81330002BEBD100BF91
:1032640007B05DF804FB000000B589B0039002913B
:1032740001920093029B07930123069307E0079AA8
:10328400019BB2FBF3F30793069B01330693079A62
:10329400019B9A42F3D2009A069B9A4201D9009B61
:1032A40006930B9B03F00103002B22D10A9B002BF6
:1032B4001FD00B9B03F00203002B06D0009B002BB6
:1032C40003D130238DF8173002E020238DF8173016
:1032D40008E00A9B013B0A939DF8173019460398AE
:1032E400FFF73AFF0A9B002B03D0069A0A9B9A42E7
:1032F400EFD301230793009B012B03D9009B013BD0
:10330400009309E0029A079BB2FBF3F30493049A37
:10331400019B9A4200D205E0079B019A02FB03F34A
:103324000793E8E7029A079BB2FBF3F30493049B29
:10333400079A02FB03F3029AD31A0293154A049BD9
:1033440013441B7819460398FFF706FF079A019B5D
:10335400B2FBF3F30793079B002BE3D10B9B03F022
:103364000103002B11D00A9B002B0ED006E00A9B10
:10337400013B0A9320210398FFF7EEFE0A9B002BE2
:1033840003D0069A0A9B9A42F1D300BF09B05DF8B4
:1033940004FB00BF0CBA000000B589B0059004918D
:1033A40003920293049B002BB8BF5B420693012354
:1033B400079307E0039B069A92FBF3F30693079B9C
:1033C40001330793039B069A9A42F3DA029A079B06
:1033D4009A4201D9029B07930A9B002B0AD0049BB3
:1033E400002B04DB0B9B03F00403002B02D00A9B8D
:1033F400013B0A930B9B03F00203002B02D0029BB8
:10340400002B16D00B9B03F00103002B11D10A9B58
:10341400002B0ED006E00A9B013B0A93202105985D
:10342400FFF79AFE0A9B002B03D0079A0A9B9A4245
:10343400F1D3049B002B07DA049B5B4204932D21F8
:103444000598FFF789FE08E00B9B03F00403002BAB
:1034540003D02B210598FFF77FFE0B9B03F002039B
:10346400002B19D00B9B03F00103002B14D1029BFA
:10347400002B11D10A9B002B0ED006E00A9B013BC6
:103484000A9330210598FFF767FE0A9B002B03D0AF
:10349400079A0A9B9A42F1D304990B9B01930A9BC6
:1034A4000093029B039A0598FFF7DEFE00BF09B064
:1034B4005DF804FB00B58FB0059004910392059B61
:1034C400002B04D1C8494FF4A270FFF742FC059BBE
:1034D4005B69002B04D1C4494FF4A370FFF739FC96
:1034E400059B1B68002B04D1BF4940F24710FFF72E
:1034F40030FC059B5B68002B04D1BB494FF4A470DE
:10350400FFF727FC049B002B00F0ED81049B1B7844
:103514008DF83730049B013304939DF83730002B2A
:1035240000F0D8819DF83730252B40F0C781002367
:103534000A9301230C93049B1B788DF837309DF874
:1035440037302D2B04D0302B0AD02B2B10D017E082
:103554000A9B43F001030A93049B0133049312E092
:103564000A9B43F002030A93049B013304930AE089
:103574000A9B43F004030A93049B0133049302E07F
:1035840000230C9300BF0C9B002BD4D10023099380
:103594009DF837302A2B0CD1039B1B68191D039A05
:1035A40011601B68099A13440993049B0133049323
:1035B4001AE0049B1B788DF837309DF837302F2B99
:1035C40012D99DF83730392B0ED8049B013304935C
:1035D400099A13469B0013445B001A469DF8373042
:1035E4001344303B0993D3E700230B93049B1B78CC
:1035F4008DF837309DF837302E2B1DD1049B0133C5
:103604000493049B1B788DF837309DF837302F2BAB
:1036140012D99DF83730392B0ED8049B013304930B
:103624000B9A13469B0013445B001A469DF83730EF
:103634001344303B0B93E4E7049B1B788DF837303D
:103644009DF837306C2B03D09DF83730682B07D1A9
:10365400049B01330493049B1B788DF83730EFE708
:103664009DF83730253B532B00F2238101A252F8F9
:1036740023F000BFAD380000B7380000B7380000B1
:10368400B7380000B7380000B7380000B73800007A
:10369400B7380000B7380000B7380000B73800006A
:1036A400B7380000B7380000B7380000B73800005A
:1036B400B7380000B7380000B7380000B73800004A
:1036C400B7380000B7380000B7380000B73800003A
:1036D400B7380000B7380000B7380000B73800002A
:1036E400B7380000B7380000B7380000B73800001A
:1036F400B7380000B7380000B7380000B73800000A
:10370400B7380000B7380000B7380000B7380000F9
:10371400B7380000B7380000B7380000B7380000E9
:10372400B7380000B7380000B7380000B7380000D9
:10373400B7380000B7380000B7380000B7380000C9
:1037440039380000B7380000B7380000B738000037
:10375400B7380000B7380000B7380000B7380000A9
:10376400B7380000B7380000B7380000C937000088
:10377400F1370000B7380000B7380000B738000050
:10378400B7380000F1370000B7380000B738000040
:10379400B7380000B7380000B7380000B738000069
:1037A40079380000B7380000B73800005D380000F1
:1037B400B738000015380000B7380000B7380000EB
:1037C40039380000039B1B68191D039A11601B689C
:1037D4000C930C9B8DF823309DF8233019460598E3
:1037E400FFF7BAFC66E000BFB0B90000039B1B689A
:1037F400191D039A11601B680C930A9B0193099B82
:1038040000930B9B0A220C990598FFF7C5FD51E024
:10381400039B1B68191D039A11601B680C930C9978
:103824000A9B0193099B00930B9B0A220598FFF7BF
:103834001BFD3FE0039B1B68191D039A11601B6865
:103844000C930C990A9B0193099B00930B9B1022E8
:103854000598FFF709FD2DE0039B1B68191D039ACA
:1038640011601B6807930A9B099A07990598FFF74B
:1038740099FC1FE0039B1B68191D039A11601B68C8
:103884000C9330210598FFF767FC78210598FFF722
:1038940063FC0C990023019308230093082310224E
:1038A4000598FFF7E1FC05E025210598FFF754FC96
:1038B40000E000BF049B0133049305E09DF837301A
:1038C40019460598FFF748FC049B1B78002B7FF4EE
:1038D4001DAE00E000BF059B1B7B002B04D00598A8
:1038E400FFF7DEFB00E000BF0FB05DF804FB00BF94
:1038F40000B583B001900198FFF708FB0346184612
:1039040003B05DF804FB00B58BB001900091019BFE
:103914001B8A043B0793009A079B1344DA1C079BFA
:10392400B2FBF3F38DF81B300198FFF74BFB0590C6
:10393400059B002B01D1002338E0059B00221A715E
:10394400059B01225A71079B9AB2059BDA80059B5D
:1039540009939DF81B30013B0493099B019A1A605B
:10396400002308931DE00198FFF72CFB0390039BB1
:10397400002B0ED0059B5B790133DAB2059B5A719B
:10398400099B039A1A60039B019A1A60039B09938B
:1039940004E0059800F00EF8002307E0089B0133CB
:1039A4000893089A049B9A42DDD3059B18460BB0F2
:1039B4005DF804FB00B58BB00190019B0793079B56
:1039C4005B798DF81B30019B08939DF81B30013BFC
:1039D40005930023099305E0089B1B680893099B42
:1039E40001330993099A059B9A42F5D3089B1B68F6
:1039F4000493019B0893002309930BE0089B1B6825
:103A0400039308990498FFF71FFB039B0893099BF2
:103A1400013309939DF81B30099A9A42EED300BFF3
:103A24000BB05DF804FB00B585B00190019B0393D6
:103A3400039B043301211846FFF7E9F900BF05B0E1
:103A44005DF804FB00B587B00190019B0593059BCD
:103A5400043301211846FFF7F2F90346039303AB3D
:103A64000493049B1B78002B02D10198FFF7A2FF5B
:103A740000BF07B05DF804FB00B591B0039002915C
:103A840001920093039B002B03D14349B620FFF717
:103A940060F9039B0993039B0F93099BDB881A46E8
:103AA400099B5B7903FB02F3043B0893009A089B90
:103AB4009A4203D33849C420FFF74BF9099BDB88AA
:103AC4000793009B1A1D079BB2FBF3F30E93009B15
:103AD4000433079AB3FBF2F2079901FB02F29B1A33
:103AE4000D93019B1A68009B1344089A9A4203D2CF
:103AF400089A009BD31A01E0019B1B680C93019B5D
:103B04000C9A1A6005E00F9B1B680F930E9B013BF8
:103B14000E930E9B002BF6D100230B93079A0D9B5B
:103B2400D31A0A930A9A0C9B934228BF13460A930A
:103B34002AE0029A0B9B134406930F9A0D9B13449D
:103B4400043305939DF84830002B05D00A9A059953
:103B5400069807F008FC04E00A9A0699059807F00D
:103B640002FC00230D930F9B1B680F930C9A0A9B76
:103B7400D31A0C930B9A0A9B13440B93079A0C9B2E
:103B8400934228BF13460A930C9B002BD1D100BF4C
:103B940011B05DF804FB00BF1CBA000000B589B089
:103BA4000590049103920293039B079307AA0023B1
:103BB4000093029B04990598FFF75EFF079B039A05
:103BC4009A4203D00349F620FFF7C3F800BF09B0B7
:103BD4005DF804FB1CBA000000B589B0059004919F
:103BE40003920293039B079307AA01230093029B6A
:103BF40004990598FFF740FF079B039A9A4204D063
:103C040004494FF48070FFF7A4F800BF09B05DF8D1
:103C140004FB00BF1CBA000082B00190019B9B68AA
:103C240000229A60019B9B6800221A61019B9B6899
:103C340000225A61019B9B680022DA60019B9B6809
:103C440000225A60019B9B6800221A6000BF02B0E8
:103C54007047000000B585B00190019800F00EF89F
:103C64000390039B002B01D0039B00E0024B1846FA
:103C740005B05DF804FB00BF7CBA000086B001907B
:103C8400164B0593164B04931FE0049A059BD31A15
:103C9400DB10DA0F13445B10DB00059A1344039323
:103CA400039B1B680293029A019B9A4202D9039BCD
:103CB40004930AE0029A019B9A4203D2039B0833BD
:103CC400059302E0039B5B6804E0059A049B9A4217
:103CD400DBD30023184606B0704700BF50BE000077
:103CE40068BF000000B589B001900091009B079364
:103CF400019B1B788DF80C30019B5B680493019B3E
:103D04009B68DBB28DF81430019BDB680693074A8D
:103D1400079B52F823300649079A51F8221003AA48
:103D24001046984700BF09B05DF804FBDC0700208B
:103D3400E007002000B589B001900091009B079333
:103D4400019B1B788DF80C30019B5B680493019BED
:103D54009B68DBB28DF81430019BDB680693074A3D
:103D6400079B52F823300649079A51F8221003AAF8
:103D74001046984700BF09B05DF804FBDC0700203B
:103D8400E007002030B58FB0039002910192039BAD
:103D94001B780C9326490C9B019A41F82320029B23
:103DA4001A6924490C9B41F82320029B5B7F194626
:103DB400214A0C9B13440A461A70029B04AC1D460C
:103DC4000FCD0FC495E80F0084E80F000C9B0893F7
:103DD40000230D93039B1B781A46174B9B5C002B07
:103DE4000DD0039B181D019B002B01D0134A00E04A
:103DF400002204AB194602F04FF80D9014E0039B27
:103E04001B781A460C4B9B5C002B0DD1039B03F1D2
:103E14000C00019B002B01D0094A00E0002204ABF6
:103E2400194601F011FA0D900D9B18460FB030BDE4
:103E3400DC070020E0070020E4070020E93C000044
:103E4400393D000082B003468DF807309DF80730F5
:103E540003F01F0205499DF907305B09012000FAB0
:103E640002F241F8232000BF02B0704700E100E0F5
:103E740082B0034600918DF807309DF90730002B7E
:103E84000CDA009BDAB20C499DF8073003F00F03FB
:103E9400043B5201D2B20B441A7609E0009BDAB219
:103EA40006499DF907305201D2B20B4483F800232E
:103EB40000BF02B0704700BF00ED00E000E100E089
:103EC40000B583B003460A468DF8073013468DF8D3
:103ED40006309DF80630072B03D908496B20FEF7FE
:103EE40038FF9DF806209DF9073011461846FFF764
:103EF400BFFF00BF03B05DF804FB00BF68BF000054
:103F040000B583B003468DF807309DF90730184695
:103F1400FFF798FF00BF03B05DF804FB00B583B062
:103F24000346ADF80630BDF80630184600F026F812
:103F340003461B68012B0CBF01230023DBB2184688
:103F440003B05DF804FB00B585B00346ADF8063058
:103F5400BDF80630184600F011F803461A4600234F
:103F64001360BDF80630184600F008F803461B68D5
:103F74000393039B00BF05B05DF804FB82B00346C6
:103F8400ADF80630BDF8063003F1804303F5C043B5
:103F9400184602B07047000082B00190034A019BAA
:103FA400C2F8043300BF02B0704700BF0060004095
:103FB40082B00190034BD3F80423019B13401846AD
:103FC40002B070470060004082B00190084A019B33
:103FD40003F5A27352F82330054943F00102019B13
:103FE40003F5A27341F8232000BF02B0704700BF5D
:103FF4000060004084B00390029113468DF80730AE
:10400400144A039B03F5A27352F82330114923F495
:10401400473323F44073039A02F5A27241F8223025
:104024000C4A039B03F5A27352F82320029B1B0244
:1040340003F4F8519DF807301B0403F440330B4399
:1040440004491A43039B03F5A27341F8232000BFDC
:1040540004B070470060004082B00190054A019BA3
:1040640003F5A27352F823301B0A03F01F0318460A
:1040740002B070470060004082B00190064A019B84
:1040840003F5A27352F823301B0C03F00303DBB2D5
:10409400184602B0704700BF0060004000B583B00E
:1040A4000190019B1B681F2B04D905494FF4F37041
:1040B400FEF74FFE4FF0A043184603B05DF804FB33
:1040C400A0BF000000B585B00190084611461A460D
:1040D40003468DF803300B468DF8023013468DF8F5
:1040E400013001AB1846FFF7D9FF03909DF8032078
:1040F4009DF802305B001A439DF801309B001A437F
:104104009DF818301B0242EA03019DF81C301B0481
:10411400019A1943039B02F5E07243F8221000BF91
:1041240005B05DF804FB00B585B003900B468DF82F
:104134000B309DF80B2000230193002300931346BA
:10414400002200210398FFF7BDFF00BF05B05DF812
:1041540004FB00B585B0019001AB1846FFF79EFF44
:104164000390019A039B02F5E07253F8223023F086
:1041740002030293019A039B02F5E072029943F849
:10418400221000BF05B05DF804FB00B585B00190B6
:104194000B468DF8033001AB1846FFF77FFF039001
:1041A400019A039B02F5E07253F82230019A23F43A
:1041B4004031039B02F5E07243F82210019A039BFD
:1041C40002F5E07253F822309DF8032012041146E0
:1041D400019A1943039B02F5E07243F8221000BFD1
:1041E40005B05DF804FB00B585B0019001AB18463D
:1041F400FFF754FF0390039800F020F80246019B58
:1042040022FA03F303F00103184605B05DF804FB3A
:1042140000B585B0019001AB1846FFF73FFF03904E
:10422400019A039B02F5E07253F822301B0C03F051
:104234000303DBB2184605B05DF804FB82B00190BD
:10424400019BD3F81035184602B0704700B587B00B
:104254000390029101924FF0A0430493039A029BAE
:104264001344012B04D9124940F21630FEF771FDB4
:10427400039B059311E0059B9B0006AA134453F886
:10428400083C1846FFF7DAFF0246019B1A60019BBF
:1042940004330193059B01330593039A029B134452
:1042A400059A9A42E7D300BF07B05DF804FB00BF4C
:1042B400A0BF000084B001900091009B0393019B78
:1042C400DB080293019B03F0070301930122019B86
:1042D40002FA03F30399029A0A4412781340184627
:1042E40004B0704784B001900091009B0393019B3C
:1042F400DB080293019B03F007030193039A029BDB
:1043040013441B785AB20121019B01FA03F35BB2F7
:10431400134359B2039A029B1344CAB21A7000BFE2
:1043240004B0704782B001900C4A019B13443033AF
:1043340093F90030002B09DB084A019B1344303306
:1043440093F90030072B01DC012300E0002303F084
:104354000103DBB2184602B0704700BFE807002033
:1043640082B00190064A019B1344303393F9003024
:10437400072BCCBF01230023DBB2184602B07047E1
:10438400E807002082B00190064A019B13443033B1
:1043940093F90030DB43DBB2DB09DBB2184602B031
:1043A400704700BFE807002084B003900291019297
:1043B4008DF80330029B59B20E4A039B13443033E9
:1043C4000A461A700B49029B019A41F823209DF872
:1043D400033083F00103DBB2002B08D0029B083BBF
:1043E400039A51B2034A13440A4683F8502000BF8B
:1043F40004B07047E807002082B00190044A019B92
:1044040013443033FF221A7000BF02B0704700BF5C
:10441400E807002000B583B0019004490198FFF734
:1044240061FF00BF03B05DF804FB00BF3C0800203F
:1044340082B00190044A019B1344303393F9003055
:10444400184602B0704700BFE807002082B0019010
:10445400034A019B52F82330184602B0704700BF4C
:10446400E807002000B589B00390029113468DF847
:104474000730FF238DF81F309DF80730002B01D043
:10448400002300E0082305939DF80730002B01D09A
:10449400082300E00C230493059B069314E00F4AC1
:1044A400069B52F82330B3F1FF3F0AD19DF8073041
:1044B400029A06990398FFF777FF069B8DF81F3041
:1044C40006E0069B01330693069A049B9A42E6D3C0
:1044D4009DF91F30184609B05DF804FBE807002079
:1044E40082B003468DF807309DF80730094A4FF033
:1044F400FF3142F823109DF80730072B07D99DF8A8
:104504000730083B034A1344FF2283F8502000BFBE
:1045140002B07047E807002000B583B0254B93F83C
:104524005830002B03D008230093009B3EE0002367
:104534008DF8073009E09DF807301846FFF75CFF57
:104544009DF8073001338DF807309DF807301F2B95
:10455400F1D900238DF8073009E09DF8073018469B
:10456400FFF7BEFF9DF8073001338DF807309DF843
:1045740007300B2BF1D9042200210F4806F01CFF51
:1045840006210620FFF79CFC0620FFF7B9FC4FF438
:10459400BE70FFF7D8FC4FF00040FFF7FDFC054B61
:1045A400012283F8582000230093009B184603B08F
:1045B4005DF804FBE80700203C080020044B93F856
:1045C4005830002B14BF01230023DBB21846704778
:1045D400E807002000B587B0039002910192039B85
:1045E4001F2B04D9364940F20720FEF7B2FB002303
:1045F40005930398FFF7C6FE0346002B02D0082359
:10460400059357E0029B9B78C3F34003DBB21A4641
:1046140001990398FFF726FF03468DF813309DF99F
:104624001330B3F1FF3F43D0029B9B78C3F3800365
:10463400DBB283F00103DBB2002B13D0029B9B7827
:1046440003F00103DBB2002B03D00398FFF781FDD5
:1046540005E0029B5B7819460398FFF764FD039815
:10466400FFF7D8FE029B9B7803F00203DBB2002B1A
:1046740008D09DF91300029B1B781A460399FFF793
:10468400B9FC17E09DF91330083B0E4A134493F923
:104694005010029B1B789B015AB29DF91330083BC2
:1046A4000A4351B2074A13440A4683F8502001E0F2
:1046B40004230593059B184607B05DF804FB00BF6F
:1046C400DCBF0000E807002000B587B001900B466E
:1046D4008DF80330019B1F2B04D93D4940F237204C
:1046E400FEF737FB0198FFF74DFE0346002B04D17C
:1046F40037494FF40E70FEF72CFB0198FFF730FE9C
:104704000346002B2FD00198FFF792FE0346083B87
:10471400304A134493F950308DF816309DF8163012
:104724009B098DF815309DF81530032B0BD101989A
:10473400FFF759FD0346002B01D0032300E00223B9
:104744008DF8173008E09DF81530012B01D10223B4
:1047540000E003238DF817309DF8173019460198AF
:10476400FFF713FD30E00198FFF7DCFD0346002B53
:104774002AD00198FFF75CFE03460493049B9BB286
:1047840040339BB29B00ADF80E30049B1846FFF7F4
:104794001BFCBDF80E301846FFF7D5FB9DF803301F
:1047A400002B11D00198FFF743FE03461846FFF78C
:1047B4004DFE0290029B002B06D00122049B02FABC
:1047C40003F31846FFF7E8FB00BF07B05DF804FBEE
:1047D400DCBF0000E807002000B583B00190019B16
:1047E4001F2B04D908494FF42270FEF7B2FA01983E
:1047F400FFF7F9FC0346002B14BF01230023DBB2AF
:10480400184603B05DF804FBDCBF000000B595B0AA
:1048140000231093002303934FF48073ADF83A30D0
:104824000123129300230F9321E0BDF83A30184678
:10483400FFF774FB0346002B0ED01298FFF7B8FB6A
:104844000346002B08D0BDF83A301846FFF77BFB2F
:10485400109A129B13431093129B5B001293BDF8A2
:104864003A300433ADF83A300F9B01330F930F9B6A
:10487400072BDAD94FF4BE70FFF750FB0346002B29
:104884000DD04FF4BE70FFF75EFB109B43F0004366
:10489400109303AB1A4601210020FFF7D7FC109BAD
:1048A400DBB2002B29D00123129300230F9321E0C4
:1048B400129A109B1340002B16D00F98FFF7CCFBD5
:1048C4000D900F98FFF7D8FB03468DF833300F98FF
:1048D400FFF7BCFD0B900B9B002B05D09DF83320FC
:1048E4000B9B11460D989847129B5B0012930F9BEC
:1048F40001330F930F9B072BDAD9109B002B80F207
:10490400EE8000238DF84F3000230293002311938F
:104914000AE0119B9B0014AA13444FF0FF3243F8A2
:104924004C2C119B01331193119B002BF1D00023CC
:104934008DF84F3000230F9378E06B4A0F9B13449C
:10494400503393F900308DF82B309DF82B3023F041
:10495400C0030993644A0F9B1344503393F9003006
:10496400B3F1FF3F5FD001AB19460998FFF7A2FCF2
:104974000346002B57D09DF82B309B098DF823302C
:104984000998FFF755FD03461846FFF75FFD0790AA
:10499400079B002B03D19DF82330032B43D19DF8B3
:1049A4002330032B04D102AB19460998FFF79AFC74
:1049B4000998FFF72DFC03468DF81B3003AB19460D
:1049C4000998FFF777FC0590059B002B03D09DF811
:1049D4001B30022B06D0059B002B24D19DF81B30E5
:1049E400032B20D19DF82330032B13D19DF81B30CA
:1049F400022B01D1032300E002238DF813309DF82C
:104A0400133019460998FFF7C0FB9DF84F30013366
:104A14008DF84F30079B002B05D09DF82320079B72
:104A24001146099898470F9B01330F930F9B032B53
:104A340083D99DF84F30002B4CD001238DF84E3094
:104A44006B461A4601210020FFF700FC0023119356
:104A540014E0119B9B0014AA134453F8502C119B8F
:104A64009B0014A90B4453F8443C9A4203D00023FE
:104A74008DF84E3005E0119B01331193119B002BEF
:104A8400E7D09DF84E30002B03D000238DF84F3033
:104A940020E0002311931AE0119B9B0014AA1344F5
:104AA40053F8502C119B9B0014A90B4443F8442C3D
:104AB400119B9B0014AA134453F8482C119B9B0090
:104AC40014A90B4443F84C2C119B01331193119BF3
:104AD400002BE1D09DF84F30002B7FF428AF00BFAE
:104AE40015B05DF804FB00BFE807002008B5064BCD
:104AF4001B68002B03D105495120FEF72AF9024B0C
:104B04001B68984700BF08BD440800203CC0000053
:104B140082B00190019B044A934201D1034B00E00F
:104B24000023184602B070470020004044080020CB
:104B340000B587B001900091019B002B03D1184967
:104B44007720FEF706F90198FFF7E2FF0590059B31
:104B5400002B1ED000238DF813300020FEF7B2F88E
:104B6400059B1B79002B03D001238DF8133005E03E
:104B7400059B009A1A60059B01221A710020FEF71A
:104B8400B5F89DF81330002B03D011230393039B36
:104B940002E000230393039B184607B05DF804FB6F
:104BA4003CC0000000B585B00190019B002B03D1EF
:104BB4000A499B20FEF7CDF80198FFF7A9FF03905F
:104BC400039B002B05D0039B00221A60039B002249
:104BD4001A7100BF05B05DF804FB00BF3CC00000C3
:104BE40082B003468DF807309DF8073003F01F02AA
:104BF40005499DF907305B09012000FA02F241F8EA
:104C0400232000BF02B0704700E100E082B00346F9
:104C14008DF807309DF8073003F01F0206499DF90F
:104C240007305B09012000FA02F2203341F8232007
:104C340000BF02B0704700BF00E100E082B003464D
:104C440000918DF807309DF90730002B0CDA009B9A
:104C5400DAB20C499DF8073003F00F03043B52010C
:104C6400D2B20B441A7609E0009BDAB206499DF9E8
:104C740007305201D2B20B4483F8002300BF02B0C4
:104C8400704700BF00ED00E000E100E082B0019059
:104C9400019B1B0B5BB2184602B0704700B583B092
:104CA40003460A468DF8073013468DF806309DF802
:104CB4000630072B03D908496B20FEF74AF89DF804
:104CC40006209DF9073011461846FFF7B7FF00BFCD
:104CD40003B05DF804FB00BF9CC0000000B583B0C6
:104CE40003468DF807309DF907301846FFF778FF23
:104CF40000BF03B05DF804FB00B583B003468DF834
:104D040007309DF907301846FFF780FF00BF03B056
:104D14005DF804FB84B001900B46ADF80230BDF899
:104D24000230019A134400221A60BDF80230019A3D
:104D340013441B680393039B00BF04B0704782B005
:104D440001900B46ADF80230BDF80230019A1344CD
:104D54001B68002B14BF01230023DBB2184602B0EA
:104D6400704782B001900091019B009AC3F804231C
:104D740000BF02B0704782B001900091019BD3F84C
:104D84000423009B1340002B14BF01230023DBB238
:104D9400184602B0704782B001900091019B009ABE
:104DA400C3F8082300BF02B0704784B00190019B90
:104DB400D3F880340393019B039AC3F88024039BA4
:104DC400184604B0704782B00190019B0422C3F8D6
:104DD400002500BF02B0704782B00190019B002201
:104DE400C3F8002500BF02B0704784B0039002915D
:104DF4000192039B019AC3F81425039B029AC3F8FA
:104E04000C2500BF04B0704700B583B001904FF08B
:104E1400FF324FF0FF310198FFF7E7FF00BF03B007
:104E24005DF804FB82B00190019BD3F80C35184661
:104E340002B0704782B00190019BD3F81435184634
:104E440002B0704782B00190019BD3F80835184630
:104E540002B0704782B00190019BD3F81035184618
:104E640002B0704784B0039002910192039B029AAE
:104E7400C3F80825039B019AC3F8102500BF04B0AA
:104E8400704700B583B001904FF0FF324FF0FF310F
:104E94000198FFF7E7FF00BF03B05DF804FB82B0A1
:104EA4000190019BD3F81835DBB2184602B0704765
:104EB40082B001900B468DF803309DF80320019BCE
:104EC400C3F81C2500BF02B0704782B001900B46A6
:104ED4008DF803309DF80330019A134401221A60BF
:104EE40000BF02B0704782B001900B468DF80330CA
:104EF40013468DF802309DF803209DF802301343C9
:104F0400DBB21A46019BC3F86C2500BF02B07047A0
:104F140082B001900091019B009AC3F8242500BF40
:104F240002B0704700B583B00190019B1B681F2B32
:104F340004D905494FF4F370FDF70BFF4FF0A0437C
:104F4400184603B05DF804FBD4C0000000B585B07A
:104F54000190084611461A4603468DF803300B4665
:104F64008DF8023013468DF8013001AB1846FFF777
:104F7400D9FF03909DF803209DF802305B001A438B
:104F84009DF801309B001A439DF818301B0242EA39
:104F940003019DF81C301B04019A1943039B02F57D
:104FA400E07243F8221000BF05B05DF804FB00B5C1
:104FB40085B0039000230193002300930023012272
:104FC40001210398FFF7C2FF00BF05B05DF804FBA1
:104FD40000B585B003900B468DF80B309DF80B207F
:104FE4000023019300230093134600220021039819
:104FF400FFF7ACFF00BF05B05DF804FB00B585B05A
:105004000390002301930023009300230122002135
:105014000398FFF79BFF00BF05B05DF804FB00B5E4
:1050240085B0019001AB1846FFF77CFF0390019B0C
:10503400012202FA03F31946039800F004F800BFB2
:1050440005B05DF804FB82B001900091019B009AC9
:10505400C3F8082500BF02B0704700B583B00190C3
:105064000091009B1B68B3F1FF3F09D0009B1B68B4
:105074001846FFF7D4FF009B1B681846FFF797FFFD
:10508400009B5B68B3F1FF3F05D0009B5B68002188
:105094001846FFF79DFF019B1A68009B9B69194600
:1050A4001046FFF735FF019B1868009B597D009B54
:1050B4001B7D1A46FFF717FF019B1868009B1968B0
:1050C400009B5B681A46FFF790FE009B1B7D012B3B
:1050D40022D1009B9B68B3F1FF3F05D0009B9B68E6
:1050E40000211846FFF774FF009BDB68B3F1FF3F14
:1050F40009D0009BDB681846FFF791FF009BDB6833
:105104001846FFF754FF019B1868009BD968009B61
:105114009B681A46FFF7A6FE00BF03B05DF804FBC8
:1051240000B583B001900B468DF80330019B1B68DA
:105134004FF48E711846FFF7EDFD019B1B684FF489
:10514400A2711846FFF7E6FD019B1B680E4918463D
:10515400FFF707FE019B1B681846FFF797FD034600
:105164001A469DF8033019461046FFF797FD019B38
:105174001B681846FFF78AFD03461846FFF7AEFD85
:1051840000BF03B05DF804FB8000020000B583B0EB
:105194000190019B1B6808491846FFF7FCFD019B21
:1051A4001B681846FFF772FD03461846FFF7A4FD77
:1051B40000BF03B05DF804FB8402020000B587B0B1
:1051C4000190019B1B681846FFF72CFE0590019B7C
:1051D4001B681846FFF72EFE0490019B1B681846B7
:1051E400FFF730FE0390019B1B681846FFF732FE61
:1051F4000290019B1B681846FFF706FE019B1B6883
:105204001846FFF73EFE059BB3F1FF3F02D0059819
:10521400FFF7F4FE049BB3F1FF3F02D00498FFF7BD
:10522400EDFE029BB3F1FF3F02D00298FFF7E6FECA
:10523400039BB3F1FF3F02D00398FFF7DFFE00BFEB
:1052440007B05DF804FB000000B587B0039002913D
:105254000192029B002B03D12D49AA20FDF779FD71
:10526400039B1B791A462C2303FB02F3294A13449C
:10527400049300230593049B93F82A30002B03D056
:1052840008230593059B3EE0039B1A68039B1B7947
:105294001946214B53F8213019461046FFF748FCB4
:1052A4000346002B03D011230593059B2BE00299A1
:1052B4000398FFF7D2FE049B019A5A60029B1A6975
:1052C400049B1A60049B5B68002B05D0029B1B7F28
:1052D40019460398FFF724FF039B1B681846FFF742
:1052E40072FD049B00229A61049B0022DA61049BF4
:1052F400002283F82920049B00225A61049B012286
:1053040083F82A20059B184607B05DF804FB00BF0C
:1053140010C100004C0800206CC1000000B585B02D
:105324000190019B1B791A462C2303FB02F3114ABB
:1053340013440393019B1B681846FFF74DFD039B21
:105344005B68002B02D00198FFF720FF0198FFF75C
:1053540035FF019B1B681846FFF724FC039B0022C2
:1053640083F82A20039B00225A6000BF05B05DF831
:1053740004FB00BF4C08002000B585B001900091EB
:105384004FF48E710198FFF7C5FC009B9A68009B4F
:105394001B6A13441B788DF80F30009B1B6A5A1C40
:1053A400009B1A629DF80F3019460198FFF780FDA3
:1053B40000BF05B05DF804FB00B583B00190009117
:1053C40016E0009B93F82830DBB2002B01D00023B9
:1053D40015E04FF48E710198FFF7B1FC034683F09A
:1053E4000103DBB2002BECD100990198FFF7C4FF55
:1053F400009B1A6A009B5B699A42EAD30123184610
:1054040003B05DF804FB000000B587B0039002917F
:105414000192039B1B791A462C2303FB02F33C4A9B
:1054240013440493049B93F82A30012B04D0394984
:1054340040F21510FDF78DFC029B002B04D1354979
:105444004FF48B70FDF785FC019B002B04D131498F
:1054540040F21710FDF77DFC039800F05DF8034659
:10546400002B03D011230593059B4CE0049B019A68
:105474005A61049B029A9A60049B00221A62049B5C
:10548400002283F8282000230593039B1B684FF414
:105494008E711846FFF73EFC039B1B6808211846D3
:1054A400FFF713FD039B1B6804991846FFF764FF7D
:1054B400049B5B68002B25D1039B1B680499184649
:1054C400FFF77AFF034683F00103DBB2002B02D01F
:1054D4000F23059313E000BF039B1B684FF48E71E9
:1054E4001846FFF72CFC034683F00103DBB2002BC4
:1054F400F2D1039B1B680C211846FFF7E6FC049BC2
:1055040000225A61059B184607B05DF804FB00BFF2
:105514004C08002010C1000082B00190019B1B794F
:105524001946074A2C2303FB01F3134414331B6865
:10553400002B14BF01230023DBB2184602B07047CE
:105544004C08002010B582B001900091009B9B692B
:10555400002B08D14FF484710198FFF7DBFB01980D
:10556400FFF79DFC13E04FF484710198FFF7D2FB21
:10557400009BDA68009B5B6AD4180198FFF78FFCE4
:1055840003462370009B5B6A5A1C009B5A6202B05C
:1055940010BD00B589B003900291019201238DF8EA
:1055A4001030029B0693019B0593039B5B68039A4F
:1055B400116804AA1046984700BF09B05DF804FBBF
:1055C40000B587B00190009100238DF80830009B4E
:1055D4000493019B9B680393019B00225A61019BE6
:1055E4005B68019A116802AA1046984700BF07B089
:1055F4005DF804FB00B589B0019000914FF400718F
:105604000198FFF7B8FB0346002B39D04FF4927191
:105614000198FFF794FB0346002B31D04FF49271AD
:105624000198FFF777FB4FF401710198FFF7B3FB83
:10563400009B93F8293083F00103DBB2002B03D0E5
:1056440004210198FFF741FC02238DF808300198EA
:10565400FFF7ABFB03460593009B9B690493009BF8
:10566400DB680393009B00229A61009B0022DA61AD
:10567400009B5B68009A116802AA1046984752E0A2
:1056840004210198FFF777FB0346002B4BD04FF41E
:1056940084710198FFF753FB0346002B43D0009914
:1056A4000198FFF74FFF009B9A69009B5B6A9A423F
:1056B40039D1009BDB69002B19D0009BDB68079371
:1056C400009B5B6A0693009BDA69009B9A61009BCE
:1056D4001A69009BDA60009B0022DA61009B0022B9
:1056E4005A62079A06990098FFF753FF1BE0009B44
:1056F40093F8293083F00103DBB2002B03D004219B
:105704000198FFF7E2FB4FF401710198FFF743FBA7
:10571400009B00229A61009B596A009BDB681A4631
:105724000098FFF736FF4FF48E710198FFF707FBDF
:105734000346002B22D0009B1A6A009B5B699A42A5
:105744000DD2009B93F82830DBB283F00103DBB267
:10575400002B04D000990198FFF70EFE0EE04FF4E1
:105764008E710198FFF7D6FA009B5B69002B05D078
:10577400009B5B6919460098FFF722FF4FF4A27162
:105784000198FFF7DCFA0346002B1CD04FF4A271FA
:105794000198FFF7BFFA009B93F82930002B03D040
:1057A40000210198FFF791FB009B9B69002B0AD015
:1057B400009B00229A61009B596A009BDB681A4691
:1057C4000098FFF7E6FE00BF09B05DF804FB000097
:1057D40008B503490348FFF70DFF00BF08BD00BF2C
:1057E4004C0800200020004082B003468DF80730AA
:1057F4009DF8073003F01F0205499DF907305B0946
:10580400012000FA02F241F8232000BF02B07047E1
:1058140000E100E082B003468DF807309DF80730C0
:1058240003F01F0206499DF907305B09012000FAC5
:1058340002F2203341F8232000BF02B0704700BFBA
:1058440000E100E082B0034600918DF807309DF935
:105854000730002B0CDA009BDAB20C499DF80730B4
:1058640003F00F03043B5201D2B20B441A7609E051
:10587400009BDAB206499DF907305201D2B20B44BB
:1058840083F8002300BF02B0704700BF00ED00E0C2
:1058940000E100E082B00190019B03F06043B3F1AA
:1058A400005F0CBF01230023DBB2184602B070472F
:1058B40082B00190019B1B0B5BB2184602B070478B
:1058C40000B583B003460A468DF8073013468DF8B9
:1058D40006309DF80630072B03D908496B20FDF7E5
:1058E40038FA9DF806209DF9073011461846FFF74F
:1058F400A9FF00BF03B05DF804FB00BF70C1000046
:1059040000B583B003468DF807309DF9073018467B
:10591400FFF76AFF00BF03B05DF804FB00B583B076
:1059240003468DF807309DF907301846FFF772FFDC
:1059340000BF03B05DF804FB84B001900B46ADF8E2
:105944000230BDF80230019A134400221A60BDF8F7
:105954000230019A13441B680393039B00BF04B0F5
:10596400704782B001900B46ADF80230BDF80230AA
:10597400019A13441B68002B14BF01230023DBB2DC
:10598400184602B0704782B001900091019BD3F891
:105994000022009BDB431A40019BC3F8002200BF96
:1059A40002B0704782B001900091019B009AC3F845
:1059B400042300BF02B0704782B001900091019BA4
:1059C400009AC3F8082300BF02B0704784B0019066
:1059D400019BD3F880340393019B039AC3F880247A
:1059E400039B184604B0704782B00190019B0822C3
:1059F400C3F8002500BF02B0704782B00190019B3C
:105A04000022C3F8002500BF02B0704784B00390A1
:105A140002910192039B029AC3F80C25039B019AFD
:105A2400C3F8142500BF04B0704700B583B00190DB
:105A34004FF0FF324FF0FF310198FFF7E7FF00BF4F
:105A440003B05DF804FB82B00190019BD3F80C35E0
:105A5400184602B0704782B00190019BD3F8143508
:105A6400184602B0704782B00190019BD3F8083504
:105A7400184602B0704782B00190019BD3F81035EC
:105A8400184602B0704784B0039002910192039BC0
:105A9400029AC3F80825039B019AC3F8102500BF96
:105AA40004B0704700B583B001904FF0FF324FF05F
:105AB400FF310198FFF7E7FF00BF03B05DF804FB77
:105AC40082B001900B468DF803309DF80330019AA3
:105AD400134401221A6000BF02B0704782B00190E3
